:10000000F8FF0020110400002959000029590000C0
:1000100029590000295900002959000029590000D8
:1000200029590000295900002959000029590000C8
:1000300029590000295900002959000029590000B8
:1000400029590000295900002959000029590000A8
:10040000FFFFFFFFFFFFFFFFFFFFFFFFFEFFFFFFFD
:1004100062B605F04BFEFEE780B501F026F9DFF885
:10042000E818088001F02FF9DFF8E018088001F0E3
:1004300023F9DFF8DC18088001BD2DE9F24F804672
:10044000DFF8D048DFF8D078DFF8D0580098296876
:1004500001F07EF9396801F0BBF9216801F024FA56
:100460002060DFF8BC98DFF8BC68DFF8BC080068E3
:10047000716801F06DF9B16801F06AF9C9F800001E
:10048000F06890F00040C9F80400F06890F0004077
:10049000C9F80800DFF894080068C9F80C00D9F81A
:1004A0000010386801F094F9316801F0FDF930600E
:1004B000D9F80410386801F08BF9716801F0F4F98B
:1004C0007060D9F80810386801F082F9B16801F05D
:1004D000EBF9B060D9F80C10386801F079F9F168DF
:1004E00001F0E2F9F060DFF848784046216801F059
:1004F0002FF93860DFF83C883068C8F80000B06831
:10050000DFF834180860DFF834B8DFF83408016821
:10051000D8F8000001F0C8F9CBF80000DFF8249803
:10052000D8F80000DBF8001001F030FAC9F800003C
:10053000DFF814A8DFF800080068DBF8001001F00D
:1005400025FACAF80000DFF804B8D8F80000CBF8A4
:100550000000DFF8FC877068C8F80000D9F80010C8
:10056000DBF8000001F034F90100306801F0F0F828
:100570003060D9F80010D8F8000001F029F9010026
:10058000706801F0E5F87060DAF80010DBF8000040
:1005900001F01EF90100B06801F0DAF8B060DAF895
:1005A0000010D8F8000001F013F90100F06801F024
:1005B000CFF8F060D9F80010386801F009F9216827
:1005C00001F072F92060DAF80010386801F000F9E3
:1005D000296801F069F928600098296801F0B8F8E5
:1005E000DFF870170860BDE8F18FF8B5DFF86867CD
:1005F000DFF86807DFF86877DFF80C07B0F900006C
:1006000001F042FA0022DFF85C3701F04FFA0400F3
:100610000D00DFF85407B0F90000DFF85017B1F90A
:100620000010401A01F030FA02000B0020002900EF
:1006300001F00EFB04000D00DFF83407006801F044
:100640002BFC02000B002000290001F049FC01F006
:10065000B9FC3860DFF8FC46DFF8B406B0F90000FA
:10066000DFF8841CB1F90010401A01F0DFFC310002
:1006700001F0AEF8206021683868FFF7DEFEF1BDBA
:10068000F8B5DFF890462068DFF8E81601F0E0FCE6
:1006900029D22068DFF8E01601F0ECFC23D8DFF85F
:1006A000DC56DFF8DC662868DFF8741A01F06EF9B2
:1006B0000100306801F04CF83060002005E005EBE7
:1006C0008001496845F82010401C0928F7DB2068A4
:1006D0006862686ADFF8481A01F058F9316801F079
:1006E000E3F830600DE00020DFF894160860002089
:1006F00005E00021DFF8842642F82010401C0A287B
:10070000F7DBDFF8206A3168206801F061F870607B
:10071000B168DFF86C06006801F05AF8F060DFF8A5
:1007200034463169206801F053F870612068002177
:1007300001F0A0FC01D2206802E0206890F00040A7
:10074000DFF8E41901F096FC36D82068002101F0AA
:1007500091FC01D2206802E0206890F00040DFF8B0
:10076000CC1901F075FC27D22068002101F082FC31
:1007700001D2276802E0276897F00047706901F00E
:100780008BFB04000D00380001F086FB0022DFF82F
:10079000B43A01F081FC0022DFF8AC3A01F058FADB
:1007A0000022DFF86C3B01F077FC22002B0001F007
:1007B0007DF901F007FC70617168706901F074F8EF
:1007C000B061F1BD2DE97043982001F0A5FD01282D
:1007D00003D1DFF8780A046803E0DFF8700A0468E0
:1007E0006442992001F098FD012804D1DFF8600AE5
:1007F00005686D4202E0DFF8580A05680020DFF85E
:10080000501A08600020DFF8441A0860DFF8446AD4
:10081000306801F041FB80468946281901F034F91F
:100820000022DFF8C83A01F013FA42464B4601F0C5
:1008300033FC01F0C7FB3060DFF8B46A2C192000EC
:1008400001F022F90022DFF8AC3A01F02FF9002282
:10085000DFF8983A01F0FCF901F0B4FB3060306841
:10086000DFF8941A01F006FC02D8DFF8A80A30601D
:10087000BDE870832DE9F843DFF8800ADFF8806A6D
:10088000DFF8800A016831600068DFF8641A0968DF
:1008900000F05EFF0400DFF8705A00202860002797
:1008A00013E0DFF8681A3800C0B201EB800040683E
:1008B0003A00D2B241F8220028683A00D2B251F888
:1008C000221000F0F1FF28607F1C3800C0B213280E
:1008D000E7DBDFF8380AC4642968C06C00F0E4FF85
:1008E0002860DFF8348ADFF8347A3868C8F8000006
:1008F000DFF82C9AD9F80000210000F069FF04000D
:10090000D9F80810286800F063FF210000F0CCFF40
:100910003860D8F8000001F0BFFA5FF06632DFF807
:10092000043A01F0C3F804000D00386801F0B4FA8D
:100930005FF03332DFF8F03901F0B8F822002B0015
:1009400001F0AAFB01F03EFB386038683060BDE87A
:10095000F18338B5DFF8C059DFF8C00900682968AD
:1009600000F0F6FE0400DFF8C4090068401C01F046
:100970005DFB210000F02CFF0400DFF8B4090068E3
:1009800001F054FB0100200001F000F8296800F09C
:100990008BFFDFF88C19886131BD2DE9F843DFF852
:1009A000B863DFF890590121242001F0BCFD2860D4
:1009B000DFF884490121292001F0B5FD2060286875
:1009C000002801D5002000E0286841F289318842E2
:1009D00003DB41F28830286001E028682860206845
:1009E000002801D5002000E02068884203DB41F2A6
:1009F0008830206001E020682060DFF840795FF0F7
:100A00006408286808FB00F041F2883190FBF1F09F
:100A10003860DFF82C99206808FB00F041F288313B
:100A200090FBF1F0C9F800003868D9F800100843CD
:100A3000002804D10120DFF80C1908700AE038689A
:100A40000B2803DAD9F800000B2803DB0020DFF8BD
:100A5000F4180870DFF8F0482078022827D13868A9
:100A6000142804DAD9F800003968884209DBD9F87B
:100A70000000002805D03968D9F80000091A1F299C
:100A800001DB01202070D9F80000142804DA38684E
:100A9000D9F80010884208DB3868002805D0D9F85A
:100AA00000103868091A1F2901DB00202070DFF8C8
:100AB0009C589648B0F90000DFF89418B1F900107E
:100AC000401A01F0B3FA0100300000F081FE286006
:100AD0003868152804DAD9F800001528C0F29A8081
:100AE00002202070DFF86C68D9F800103868091A05
:100AF00008FB01F8D9F800103868411898FBF1F0AC
:100B000001F094FA3060306801F0C6F980468946F9
:100B10003068316800F05CFE01F0BEF90022DFF8B9
:100B2000383801F095F800225FF0804301F0B4FA04
:100B300042464B4600F0BAFF0022DFF8203801F0B1
:100B400087F801F03FFA3060DFF814783268082146
:100B5000380000F081FBDFF80C080168082903DA8F
:100B60000168491C01600DE03A0000680100C9B24B
:100B7000002000F0DDFADFF8F01700F029FEDFF8C2
:100B8000EC1708603068002101F074FA01D2316876
:100B900002E0316891F00041DFF8D477386800F066
:100BA00017FEDFF8D01701F065FA00D808003168A9
:100BB00000F00EFE7860DFF8B4070068396900F0D5
:100BC00007FE06002868DFF8B017096900F000FE8C
:100BD0000100300000F068FE7861DFF8A057786807
:100BE000796900F061FE2860286800F042FB286007
:100BF0002868B861DFF88817B86901F029FA00D2CF
:100C0000B961B869DFF87C1701F034FA02D8DFF86F
:100C10007807B8612078012804D1DFF86407DFF88D
:100C2000501788612078002804D1DFF85C07DFF8CE
:100C300040178861BDE8F1832DE9F04D464CDFF89F
:100C40000C573248B0F90000DFF80417B1F9001072
:100C5000401A01F0EBF9210000F0BAFD2860DFF83E
:100C600018673168DFF82407006800F0B1FD706094
:100C70003169286800F0ACFD7061DFF814777168A5
:100C8000706900F011FE3860DFF80807396801600C
:100C9000DFF80487DFF804472168C8F80010DFF8A0
:100CA00000170A68226000680860086801F0F4F81C
:100CB0005FF03332DFF8EC3600F0F8FE82468B4608
:100CC000206801F0E9F85FF03332DFF85C3600F0BD
:100CD000EDFE52465B4601F0DFF904000D00D8F846
:100CE000000001F0D9F8DFF8C026DFF8C03600F0C8
:100CF000DDFE22002B0001F0CFF901F063F938602E
:100D00003868B061BDE8F08D5428FF1F5628FF1FDA
:100D10005828FF1FD024FF1F8804FF1F0C26FF1F29
:100D2000FC25FF1F8C04FF1F7C04FF1F8004FF1F96
:100D30001026FF1F1426FF1F1826FF1F1C26FF1F4B
:100D40008404FF1F2026FF1F2426FF1F2826FF1FC5
:100D50002C26FF1FCC24FF1FA69B443D0AD7233C13
:100D6000C824FF1F00806640FC05FF1FFE05FF1F13
:100D7000E424FF1F0000A041FFFF9FC13026FF1F9A
:100D8000D424FF1F2DE9F84F1424DFF8240600783F
:100D9000002840F09B80DFF81C160878012843D11A
:100DA000DFF8A005007800283ED1DFF87455DFF8A1
:100DB0000866DFF870733968306800F009FDA969CA
:100DC00001F046F904D23968306800F001FDA861ED
:100DD000200001F02BF9396891F0004100F0F8FC97
:100DE0000100A86901F034F908D2200001F01EF9D1
:100DF000396891F0004100F0EBFCA861B869A9697D
:100E000000F0A6FC0400DFF868552000A96900F096
:100E10009FFCDFF8A8150860A869210000F044FDD8
:100E2000DFF89C150860C5E0DFF818250978107810
:100E30000143C9B200293DD1DFF8E454DFF87865F9
:100E4000B84F3968306800F0C3FCA96901F000F9B7
:100E500004D23968306800F0BBFCA861200001F0C2
:100E6000E5F8396891F0004100F0B2FC0100A86992
:100E700001F0EEF808D2200001F0D8F8396891F0BE
:100E8000004100F0A5FCA861B869A96900F060FC08
:100E90000400DFF8E4542000A96900F059FCDFF8F1
:100EA0001C150860A869210000F0FEFCDFF8101591
:100EB00008607FE0107801287CD10020DFF8FC1466
:100EC00008600020DFF8F814086073E0DFF8E4142D
:100ED0000878012847D1DFF86C040078002842D157
:100EE000DFF8E014DFF83844A06901F0C3F800D857
:100EF000A161DFF8B484DFF8B494DFF87454894E4C
:100F0000A06990F00040A96900F022FC00F0C4FF45
:100F100082468B46B06900F0BFFF42464B4600F068
:100F2000C5FD52465B4601F0B7F801F04BF8DFF81B
:100F30008C140860A869A16900F00AFC00F0ACFFFD
:100F400004000D00B06900F0A7FF42464B4600F0D8
:100F5000ADFD22002B0001F09FF801F033F8DFF81F
:100F60006014086019E00978DFF8D80300780143BD
:100F7000C9B2002911D1DFF80054DFF8A443A069F9
:100F8000A96900F0E5FBDFF834140860A169A869DD
:100F900000F08AFCDFF828140860DFF8A803007866
:100FA000012807D10020DFF8141408600020DFF8C2
:100FB00010140860DFF81024DFF8045428681100CA
:100FC00001F058F800D82A60DFF8003428681900CA
:100FD00001F03EF802D2DFF8F8032860DFF8DC43C6
:100FE0002068110001F046F800D82260206819003E
:100FF00001F02EF802D2DFF8D8032060DFF8D463C6
:101000002068310000F0E4FB01F0DCFA04002868FD
:10101000310000F0DDFB01F0D5FA0500DFF8B82360
:101020001068DFF8B81301F013F804D310683E49D4
:1010300001F020F816D8DFF8A8231078002811D185
:10104000DFF8A0030068DFF8A01301F013F809D857
:10105000012010700120DFF8941308700020DFF8E1
:10106000901308607B480068DFF8881301F002F8ED
:1010700023D8DFF86C23107800281ED19C4B186809
:101080005FF07C5100F0E4FF04D318689A4900F047
:10109000F1FF0ED8DFF858030168491C01600068B1
:1010A000FB280ADB012010700120DFF840130870D4
:1010B00003E00020DFF838130860002C0AD4220077
:1010C0000021002001F0A0FB00220121002001F0FE
:1010D0009BFB0AE000220021002001F095FB644206
:1010E00022000121002001F08FFB002D0AD42A00EC
:1010F0000221002001F088FB00220321002001F0E2
:1011000083FB0AE000220221002001F07DFB6D42FA
:101110002A000321002001F077FBBDE8F18F0000D9
:10112000000020416C25FF1F0100F0410000A0429B
:101130002DE9F84F04000D00002600275FF000089D
:101140005FF00009002000202000C0B202EB800AFE
:10115000A34628E05846C0B201F09AFB310000F0E7
:10116000A3FB0600DAF80000390000F09DFB070041
:101170005846C0B201F08CFBDAF8001000F028FBF2
:10118000414600F091FB80465846C0B25946C9B26C
:10119000484300F04BFF494600F086FB81461AF1B8
:1011A000040A1BF1010B58462900C0B2C9B288429B
:1011B000D0D32800C0B22100C9B2401A00F036FFD7
:1011C000494600F005FB82463000310000F000FB8C
:1011D0000100504600F0BCFA002101F067FB2CD062
:1011E0002800C0B22100C9B2401A00F01FFF4146DA
:1011F00000F0EEFA80463000390000F0E9FA010014
:10120000404600F0A5FA0700EDB2E4B22C1B200026
:1012100000F00CFF494600F0DBFA0400300031001A
:1012200000F0D6FA0100200000F092FA0100380028
:1012300000F0ACFB7049086001E06F480068BDE851
:10124000F28F000000003EC000003E40B827FF1FA4
:10125000BC27FF1FF824FF1F491E06E000EB810397
:1012600053F8043C40F82130491E0129F6DA0260A7
:10127000704770B5614EB168F1607168B1603168F6
:1012800071603060306800F007FE474A5C4B00F048
:101290000DFC04000D00706800F0FEFD5FF03332BD
:1012A000214B00F003FC22002B0000F0F5FE0400AF
:1012B0000D00B06800F0F0FD3B4A524B00F0F6FB29
:1012C00022002B0000F0E8FE04000D00F06800F0A2
:1012D000E3FD354A354B00F0E9FB22002B0000F01E
:1012E000DBFE00F06FFE70BD0206FF1F00D4B740AA
:1012F000EC24FF1F00406F40010040409A99593F85
:10130000E425FF1F7804FF1FE024FF1F5826FF1F5E
:101310000000F03F00004040DC24FF1FD824FF1FE6
:101320008825FF1F6666E63F3333D33FE824FF1F5F
:101330007404FF1F1C25FF1F2025FF1F2425FF1FEE
:101340002825FF1F6728FF1F6828FF1FFC24FF1F99
:101350000006FF1F2C25FF1F00889340000024403B
:101360003425FF1F5C25FF1F000020C13025FF1F13
:10137000C025FF1FF4FDD43CA425FF1F6025FF1FDF
:10138000B81E05BFB91E053FB81E053F0425FF1F47
:101390000825FF1FEC25FF1FF825FF1FF425FF1F61
:1013A000F025FF1F3333E33F9A9999999999B93FF3
:1013B0007428FF1F0506FF1F9C04FF1FDC25FF1F6D
:1013C000E025FF1F9A99193FA4707D3FA3707DBF50
:1013D000A4707DBF00401C46D024FF1F000020C227
:1013E0006A28FF1F4027FF1F010000406B28FF1FD6
:1013F000A826FF1F0100803FAC26FF1F0C25FF1F02
:101400009999D93F9999C93F80B50122012122209C
:1014100000F000FF01220121232000F0FBFE00F07C
:1014200039F900F05EF901BD70B504000D00160039
:1014300000F038F864002000C0B200F0AAF82800DC
:10144000C0B200F0A6F83000C0B200F0A2F800F080
:1014500050F870BD38B504000D0000F023F86000AE
:10146000C0B200F096F82800C0B200F092F800F088
:1014700019F8E4B26400641C2000C0B200F089F8DE
:1014800000F0B9F8040000F054F800F0B4F80500DA
:1014900000F067F800F02DF8E4B2240254FA85F069
:1014A00000B232BD38B50120684908600F2000F055
:1014B000D5F80F2000F0D2F8654C01202060654D72
:1014C000012028600F2000F0C9F80F2000F0C6F8B6
:1014D000002020600F2000F0C1F80F2000F0BEF8BF
:1014E000002028600F2000F0B9F80F2000F0B6F8B7
:1014F00031BD38B5564C00202060564D0020286084
:101500000F2000F0ABF80F2000F0A8F801202860B1
:101510000F2000F0A3F80F2000F0A0F801202060B9
:101520000F2000F09BF80F2000F098F800202860B2
:1015300031BD10B5474C002020600F2000F08EF820
:101540000020434908600F2000F088F80120206047
:101550000F2000F083F8002020600F2000F07EF8BC
:1015600010BD10B53B4C002020600F2000F076F835
:101570000120374908600F2000F070F8012020603A
:101580000F2000F06BF8002020600F2000F066F8BC
:1015900010BD70B50400082514E000202C49086037
:1015A00007E02C4E002030602006F6D501202849A7
:1015B000086064000F2000F051F8012030600F2017
:1015C00000F04CF82800451EC0B20028E9D1214C9B
:1015D000002020600F2000F041F801201E49086023
:1015E0000F2000F03BF8012020600F2000F036F8BB
:1015F0000020206070BDF8B50824002501201449A2
:101600000860124E0020306011E06D00114F002084
:1016100038600F2000F022F8012038600F2000F021
:101620001DF80D480068002801D055F00105200084
:10163000441EC0B20028E8D10120306000200549D6
:1016400008602800C0B2F2BD000000008C0AFE4312
:101650000C08FE430808FE430C0AFE4300E0401E4F
:10166000010089B20029FAD1704780B505211C20FC
:10167000FFF7F0FE00B202BD80B51F216820FFF722
:10168000E9FE00B202BD80B51D216820FFF7E2FE31
:1016900000B202BD80B580223E216820FFF7C4FE63
:1016A000052001F039F9002215216820FFF7BCFE62
:1016B000052001F031F9112216216820FFF7B4FE50
:1016C000052001F029F9002217216820FFF7ACFE60
:1016D000052001F021F900223E216820FFF7A4FE39
:1016E00001BD80B501220E211C20FFF79DFE0520C3
:1016F00001F012F910220F211C20FFF795FE0520A2
:1017000001F00AF901222A211C20FFF78DFE052095
:1017100001F002F901BD30B4002513E050F8042BAC
:10172000D30744BFA9F101039A18091F042942F8FD
:10173000045BFAD213468C0744BF15809B1CC90773
:1017400048BF1D7050F8041B0029E7D130BC70471A
:1017500090EA010F40F1AE8081F00041421A3CBF97
:10176000801A89184FF0004CC0F3C752FF2A24D0CA
:10177000C1F3C75313B3D21AD2F1190327DD4CEAD0
:1017800001214CFA03F321EA0303D140C20D4CEAD4
:101790000020401834BF20EA0C004CEA5000D2056B
:1017A00053EA006373EB0C0C52EB1020420012F171
:1017B000807F38BF7047C00DC0057047490212BF17
:1017C0009A4200EB5120F8E7D2F11703D9D57047C0
:1017D000FF2212EAD05C1DBF12EAD1539445934216
:1017E0002BE09C44D30780EA01021A4043EA002020
:1017F00043EA0121A1FB0030C04238BF40007CF128
:101800007F010BDBFE294ADA5B0842EAC15153EA49
:10181000006373F1004C51EB10207047D1F1080CBC
:10182000DCF120012FDB5B0810FA01F10B4320FAF9
:101830000CF073F100415041704794451CBF02EA1F
:10184000D153934280EA010202F000421DD04000D1
:1018500019D0490017D05BB9634514D00902B1FA19
:1018600081F39940BCEB030CC00140F00040C1E79C
:101870000002B0FA80FC10FA0CF0B3EB0C0CC901BA
:1018800041F00041B6E71000704740000AD049001F
:1018900008D010F1807F94BF11F1807F02E042F008
:1018A000FF407047D043704790EA010F7FF556AF75
:1018B00081F00041431A4FF000423EBF5340C01A2E
:1018C000C91800BFD3095FEAD05C13EB400F34BFE7
:1018D000B3EB410F40E07CEBD1530CD342EA012142
:1018E00022D8D1EB402009D3400A28BF5FEA50013B
:1018F00040EBCC507047401A15D04002B0FA80F24D
:10190000521C9040400A4FEA3C23B3EB026384BF71
:1019100000EB730007E040F400001A16DB07C2F189
:101920000102D04018437047182BFCDC31FA03F257
:1019300002FA03F3591A38BF42F00102D2EB4020F9
:101940003CBF4000ACF1010C5FEACC5CC20572F117
:1019500000414CEB5020704713EB400F0FD2C942AF
:1019600009D0ACEBD153022B03DB4902172BDDDD91
:1019700070479143401AC042D5D10020704713EB05
:10198000410FD0D36FF000007047000110B5FF2366
:1019900013EAD0541DBF13EAD1529C429A4239E057
:1019A000A41ADA0780EA0103134042EA012142EA5D
:1019B0000020421A3CBF641E01EB4202090AB2FB3E
:1019C000F1FE01FB1E221202B2FBF1F001FB10221C
:1019D0006EF30F201202B2FBF1FE4EEA00207F34BC
:1019E00006DDFE2C24DA53EA500050EBC45010BD43
:1019F000D4F1020401FB1E2240F08071192C1DDC81
:101A000021FA04F0C4F12004A140114371F1004215
:101A1000584110BD9C421ABF03EAD1529A420FE0CE
:101A200080EA010E0EF00043400004D0490016D1B8
:101A300043F0FF4010BD490008BFD343180010BD5C
:101A40009C4205D1D21AF7D001F00041484010BDA8
:101A50004A0212BF0846484000F0004010BD4AB993
:101A60000902B1FA81F2914044B1A418C00140F0DA
:101A700000409EE7C90141F0004152420002B0FA25
:101A800080F4A040141B94E7C11768B14840401A85
:101A9000B0FA80F29040D21CC907C2F5846241EAD4
:101AA000025202EBD021400570470000B0B581EA38
:101AB000030C0CF0004C40F2FF7515EA11541DBFE9
:101AC00015EA1357AC42AF4239E0E41923EA455313
:101AD00043F48013C90241F0004141EA505EC7025D
:101AE0001100A7FB020200284FF00000EEFB0120CE
:101AF0004FF00001E3FB072118BF42F0010240183C
:101B000000214941E3FB0E01A4F580640F0302D2DA
:101B100052004041494154F101046CDD470872F123
:101B2000004250F1000051EB0451A1F580115CBF5F
:101B300041EA0C01B0BD4CEA05510020B0BD05EAF8
:101B40001357AC4214BFAF4241E050EA410E1CBFF4
:101B500052EA430E02E061460020B0BD24423C44FC
:101B60001BD15FEA070EF6D0090302BF0146002031
:101B7000AEF1140EB1FA81F7AEEB070401FA07FEDD
:101B80000C37C7F1200100FA07F7C8404EEA000EF3
:101B900023EA455343F48013A2E733F00043B3FA3A
:101BA00083F704BFB2FA82FE77440B3FE41BB7F120
:101BB000200E2FBF02FA0EF3BB40C7F1200E22FA0F
:101BC0000EFE38BF43EA0E03BA40641C82E750EAB7
:101BD000410E14BF52EA430E6FF000014FF400179C
:101BE00017EB430F8ABF194617EB410FB5E74CEAD5
:101BF00005510020B0BDD4F10104B4F120070FDA83
:101C0000C4F12007520828BF42F0010210FA07F57C
:101C100001FA07F7E1BF2A43E0403843E1400FE013
:101C2000352C98DCC7F1200452EA400220FA07F272
:101C300018BF42F0010231FA07F0A1400A43002127
:101C400072F1004250F1000051EB0C01B0BD0000F8
:101C5000F0B540F2FF7581EA030C0CF0004C15EA78
:101C600011541DBF15EA1357AC42AF42E5E0BC4129
:101C7000C1F31301C3F31303801A994143F4801392
:101C800004D2641E4000494180185941C90241EA0A
:101C90005051B1FBF3F603FB1611A2FB0675D7EB0F
:101CA000C020A94102D2761E80185941C90241EADA
:101CB0005051B1FBF3FE03FB1E11A2FB0E75D7EBD7
:101CC000C020A94103D2AEF1010E8018594189020A
:101CD00041EA9051760546EA8E2EB1FBF3F603FBFE
:101CE0001611A2FB0675D7EB8020A94102D2761E01
:101CF00080185941C90241EA50514EEA060EB1FB23
:101D0000F3F603FB1611A2FB0675D7EBC020A94121
:101D100002D2761E80185941C90241EA5051B1FBE6
:101D2000F3F703FB1711A2FB0735D3EBC020A94142
:101D300067F100070CBF004247F0010766F3D527A3
:101D40004FEA1E31B80814F5806412DDBD0775F145
:101D5000004250EB0E5051EB045111F5801F5CBF57
:101D600041EA0C01F0BD4CF07F6141F0E041002000
:101D7000F0BDBD076D0840EA0E5041F48011D4F16A
:101D80000104B4F120060ADAC4F120060200E040A2
:101D900001FA06F3E1401843B24015430EE0342C3B
:101DA00013DCC6F1200445EA40056D0820FA06F26E
:101DB000154321FA06F0A1400D43002175F10042C0
:101DC00050F1000051EB0C01F0BD00205FEA0C0166
:101DD000F0BDCFB992185B41B3FA83F704BFB2FAF2
:101DE00082F6BF190B3FB7F120062FBF02FA06F3A8
:101DF000BB40C7F1200622FA06F638BF3343BA408B
:101E00001CB1E419641E33E77F4231F00041B1FA9E
:101E100081F404BFB0FA80F6A4190B3CB4F120069B
:101E20002FBF00FA06F1A140C4F1200620FA06F601
:101E300038BF3143A0403C1B1AE7AC421ABF05EA49
:101E40001357AF4212E050EA41061CBF52EA430664
:101E5000BFE750EA4107304661461CBF41EA0551E1
:101E6000F0BD52EA430C08BFC143F0BD00204FF45F
:101E7000001616EB410F98BF16EB430F08BF16EB89
:101E8000410F24BFC14305E016EB430F0CBF614671
:101E90004CEA0551F0BD0000C0F3C75181B1FF29E4
:101EA00006D0C110400721F0E04101F160517047B8
:101EB00041020CBF40F4E0016FF000410020704788
:101EC00000F0004100020AD0B0FA80FC00FA0CF0E9
:101ED00001F16051A1EB0C5101EBD021400570479D
:101EE00070B44FF0004591EA030F40F1DD806B4084
:101EF000841A71EB030603D2001BB141121973411E
:101F00004FF4001C1CEB410F34BF7CEB430442E058
:101F10000C0DA4EB1356352E4FDC45EAC323DB0A28
:101F200045EAC121C912B6F120050DDD63FA05F6B7
:101F3000EB4086EA0305124218BF45F00105C018C0
:101F400051F100010CD213E062FA06F5F24055405F
:101F5000F3415A40B340F3405A408018594107D3E7
:101F600049085FEA30005FEA350528BF45F0010502
:101F700001F58011420875F1004250F1000041EB7B
:101F800004514E0016F5001F70BC38BF704700208A
:101F9000090D090570471CEB410F10D252EA4306A8
:101FA0000BD0BCEB410F05D80C0DAB43661E342E95
:101FB000B6DD02E0AB438018594170BC704770BC7D
:101FC0007047000001F000428B1AA3F16051B1F597
:101FD000801F0ADBB1F17F6F1FD242EAC102C1004C
:101FE00071F1004142EB507070470B15C3F10903CA
:101FF000212B10D2890241EA9051800201284941E7
:1020000041F0004121FA03F0C3F12003994071F13E
:10201000004150417047100070476FF0000013EB13
:10202000103F5CBF000E42EAC0507047C2175040DC
:10203000801AB0FA80F10AD08840D1F19D01D20710
:1020400042EAC151020672F1004241EB1020704792
:102050004FF0807C1CEB400F94BF1CEB410F05E060
:1020600040EA010C1CEB0C0F01D28842704718BFEC
:10207000814270474FF0807C1CEB400F94BF1CEBFB
:10208000410F05E040EA010C1CEB0C0F01D281422C
:10209000704718BF8842704770B44FF0004591EA0E
:1020A000030F7FF525AF6B40841A71EB030604D252
:1020B0006E40001BB141121973414FF4001C1CEB20
:1020C000410F34BF7CEB430683E00C0DA4EB1356A9
:1020D000362E00F37C80012E45EAC32341DC43EA1F
:1020E000525312BFD20292025B08240545EAC12175
:1020F00041EA5051D2EBC020994125D407D1B0FA22
:1021000080F610FA06F162D00020203608E0B1FA1D
:1021100081F6B140C6F1200220FA02F21143B0402C
:102120004FEAF474B4EB465434F001064FEA7404F9
:102130000AD8D6F50016760D04F00044F04061FA96
:1021400006F25040F1404840C00A40EA415021F0B8
:10215000004128BF5FEA500550F1000044EBD12157
:1021600035E0DB0A45EAC121C90AB6F120050EDDDA
:1021700042EA0242120CC5F1200603FA06F6EB40D1
:1021800042EA06056D42984161F100010DE062FAF4
:1021900006F5F240554063FA06FC82EA0C02F34071
:1021A0005A406D42904161EB030111F4801F05D14B
:1021B000641E620502D06D004041494121F4801146
:1021C000430875F1004350F1000041EB045170BC2D
:1021D00070471CEB410F15D223F0004352EA43062F
:1021E0000BD04FEA4C0CBCEB410F04D80C0D661E13
:1021F000342EB7DDEBE7801A994150EA410608BF5B
:102200000021E4E708BF1CEB430F28BF6FF000017B
:10221000DDE7000070B504000E0015004FF480717A
:102220002000C0B200F084FBF6B2002E14D1424868
:102230002100C9B2491150F821102200D2B2521126
:1022400050F822004069012214F01F0412FA04F42D
:1022500030EA04044C6135E00121374A2000C0B265
:10226000401152F820002300DBB25B1152F82330FA
:102270005B6914F01F0611FA06F633434361EDB2B1
:10228000002D10D12000C0B2401152F82000036888
:1022900014F01F00814033EA0101E4B2641152F8E6
:1022A000240001600EE02000C0B2401152F820006E
:1022B000036814F01F0081401943E4B2641152F81E
:1022C0002400016070BD10B4C9B2002911D11A4AAE
:1022D0000100C9B2491152F821100B68012410F015
:1022E0001F018C40A343C0B2401152F8200003608C
:1022F00010E0114A0100C9B2491152F821100B68CF
:10230000012410F01F018C402343C0B2401152F849
:102310002000036010BC7047010007480A00D2B2D9
:10232000521150F82200006911F01F01C84010F04E
:1023300001007047000000007405FF1F80B5010018
:10234000C9B24909C9B2002902D001290DD018E04B
:1023500098490A6852F000620A6097490A6832F0A8
:1023600090020A600A680A600BE094490A6852F019
:1023700000620A6090490A6832F410420A600A68F2
:102380000A60C0B2002800F08980012800F0868031
:10239000032800F0838008284ED0092851D00A284D
:1023A00054D00B2857D00C285AD00D285DD00E28B9
:1023B00060D00F2863D0102870D0112864D0122864
:1023C00067D013286AD0142868D01A2866D01D2830
:1023D00064D01E2862D0202861D021285FD0232815
:1023E0005DD024285CD025285FD0262862D02728FD
:1023F00065D0282868D029286BD02A286ED02B28B1
:1024000071D02C2874D02D2877D02E287AD02F2860
:102410007DD0302800F0858031287DD0322800F032
:10242000808033287DD034287BD03A2879D03D284D
:1024300077D03E2875D075E00021202000F078FA92
:1024400070E00021212000F073FA6BE000210720EA
:1024500000F06EFA66E00021082000F069FA61E001
:102460000021222000F064FA5CE00021232000F02B
:102470005FFA57E00021402000F05AFA52E00021B4
:10248000412000F055FA4DE00021982000F050FA6C
:1024900048E00021992000F04BFA43E042E041E09F
:1024A0000021802000F044FA3CE00021812000F06F
:1024B0003FFA37E00021822000F03AFA32E00021B2
:1024C000832000F035FA2DE00021202000F030FAC2
:1024D00028E00021212000F02BFA23E00021242015
:1024E00000F026FA1EE00021252000F021FA19E074
:1024F0000021262000F01CFA14E00021272000F023
:1025000017FA0FE000212A2000F012FA0AE0002159
:102510002B2000F00DFA05E00021112000F008FA50
:1025200000E0FFE701BD10B50400E4B26409002239
:10253000C9B2C0B200F01AF821492000C0B251F867
:10254000200000680006F7D52000C0B251F8200036
:1025500000692200D2B251F82220126832F08002C3
:10256000E4B251F824100A6080B210BD10B4020029
:10257000D2B2520910F01F00114BC9B2890011F0FC
:102580000C0151F050011400E4B253F82440A16052
:1025900004211400E4B253F82440E160C0B210F00A
:1025A0001F0050F04000D2B253F82210086010BC57
:1025B000704700003C800440188004403080044094
:1025C0006005FF1FC0F3C7517E390EDDC217D1F180
:1025D000200106DD000240F00040C8401044504099
:1025E0007047D04380F000407047002070470000E3
:1025F00080B5C0B2002803D0022860D046D377E06F
:10260000DFF87C02026852F080720260C9B20029D1
:102610000BD0022915D00ED304291ED017D30629BA
:1026200027D020D307292AD02FE04FF48061412002
:1026300000F07EF95CE04FF48061422000F078F910
:10264000F8E74FF48061432000F072F9F2E74FF4AD
:102650008061442000F06CF9ECE74FF48061642065
:1026600000F066F9E6E74FF48061652000F060F95C
:10267000E0E74FF48061662000F05AF9DAE74FF4A2
:102680008061672000F054F9D4E731E0DFF8F00111
:10269000026852F000720260C9B2002902D001291A
:1026A00006D00BE04FF440710C2000F041F91FE020
:1026B0004FF440710D2000F03BF9F8E718E0DFF827
:1026C000C401026852F080720260C9B2002902D0CF
:1026D000012906D00BE04FF440710A2000F028F9E0
:1026E00006E04FF440710B2000F022F9F8E7FFE715
:1026F00001BD2DE9F04104000D0090461F002900A6
:10270000C9B22000C0B2FFF773FFDFF87C01016897
:102710004FF47A7041430800000CB0FBF8F200203F
:1027200000E0401C13009BB20341012BF9DAC140C9
:10273000B1FBF8F12200D2B2002A03D0022A13D052
:1027400009D31AE00A0092B2521C574342F21072A7
:10275000B7FBF2F611E00A0092B2521C57434FF455
:102760007A72B7FBF2F608E00A0092B2521C5743A5
:102770004FF47A72B7FBF2F6FFE7DFF8102123007F
:10278000DBB252F823302F00FFB203EBC703270060
:10279000FFB252F82770AC465FFA8CFC07EBCC070F
:1027A000FF6837F00407DF602300DBB252F8233004
:1027B0002F00FFB203EBC7032827DF60C0B210F081
:1027C000070050F008002300DBB252F823301860F5
:1027D00089B22000C0B252F82000816000202100A0
:1027E000C9B252F82110C8642000C0B252F82000CB
:1027F000EDB200EBC500B6B206610020E4B252F8BB
:1028000024104860BDE8F08170B403000020180077
:10281000C0B2002803D0022803D001D302E001E0B7
:1028200000E0FFE7194D1800C0B255F8200080689D
:102830000028F7D01E00F6B2002E03D0022E0FD0D3
:1028400007D314E0401C424342F21070B2FBF0F494
:102850000DE0401C42434FF47A70B2FBF0F406E006
:10286000401C42434FF47A70B2FBF0F4FFE7DBB256
:1028700055F82300C9B200EBC100046170BC704779
:102880003C800440308004405028FF1F6805FF1F33
:1028900000280AD0B0FA80F18840D1F19D01C90525
:1028A000020672F1004241EB1020704740EA010C31
:1028B0001CEB0C0F07D0884205D14FEA400C1CF1ED
:1028C000807F98BF8042704710B40F490A6852F069
:1028D00080720A600D490A6852F001020A600C4ACF
:1028E00013680C4909684FF47A7491FBF4F148437A
:1028F000C018984202D211688842FCD31168814204
:10290000FCD310BC70470000FCED00E0001000E0BC
:10291000041000E04828FF1F10B5040003E04FF446
:102920007A70FFF7D1FF2000441E0028F7D110BDB8
:1029300030B42A4B1C684FF400750200D2B2520921
:1029400095402C431C60264B0200D2B2521153F822
:102950002240012510F01F029540C4F8A05002004B
:10296000D2B2521153F82220C0B210F01F0042F828
:10297000201030BC704730B4184B1C684FF4007501
:102980000200D2B2520995402C431C60144B020045
:10299000D2B2521153F82240012510F01F02954087
:1029A000C4F8A05031F4E0610200D2B2521153F8E1
:1029B00022200400E4B214F01F0452F8242012F480
:1029C000E06211430200D2B2521153F82220C0B289
:1029D00010F01F0042F8201030BC704738800440CF
:1029E000D005FF1FDFF8B809DFF8B81909680160E2
:1029F000DFF8B41909684160DFF8B019096881602F
:102A0000DFF8AC190968C160DFF8A819096801612D
:102A1000DFF8A4190A684261DFF8A0291268826110
:102A2000DFF89C291268C261DFF898299269026276
:102A3000DFF8942992694262DFF8902992698262F4
:102A40000968C1637047DFF87C19DFF88409026800
:102A50000A6042688A6082680A61DFF86C19C2689D
:102A60000A6002698A60DFF8641942690A60826953
:102A70000A61C169DFF85C291160DFF83C1A026A5B
:102A80000A60406A0861704770B5DFF84C492078E9
:102A9000022856DADFF8445901212E20FFF743FDC2
:102AA000FFF7F6FE28602868FFF7F6F95FF0663258
:102AB000DFF82C39FEF7FAFF0022DFF82839FFF79C
:102AC000C7F8DFF82429DFF82439FEF7EFFFFFF716
:102AD00079FA2860DFF818290021002000F05BFF58
:102AE00002232A680021302001F0BFF80523DFF817
:102AF0000409DFF8C819097850F82120002148207E
:102B000001F0B3F8DFF8B809007807280BD1DFF837
:102B1000B4590120287070A20021742000F03BFFFE
:102B20000020287004E06CA20021742000F033FF24
:102B300007217A2000F0C2FD20783030C0B200F0CA
:102B400074FF2078002860D100243AE00523DFF8E4
:102B500080082100C9B250F82120611CC9B2482068
:102B600001F083F827E0DFF860192200D2B20C20D0
:102B700042430A44611CC9B2002000F00CFF20004F
:102B80002978C0B28842E1D1DFF8400900780028F6
:102B9000DCD0DFF83059012028700523DFF8300839
:102BA0002100C9B250F82120611CC9B2482001F0AF
:102BB0005CF800202870611CC9B2742000F07EFD12
:102BC000641C2000C0B2072880F2D581DFF8F058DD
:102BD00020002978C0B28842C5D1DFF8F00800781B
:102BE0000028C0D1DFF8DC6801203070DFF8D81889
:102BF0002200D2B20C2042430A44611CC9B2002018
:102C000000F0C9FE00203070B9E72078012865D1B6
:102C100000243CE00523DFF8B8072100C9B200EB2F
:102C20008100C269611CC9B2482001F01EF828E089
:102C3000DFF89C182200D2B20C2042430A44611CE7
:102C4000C9B2002000F0A7FE20002978C0B2884257
:102C5000E0D1DFF8780800780028DBD0DFF864588E
:102C6000012028700523DFF868072100C9B200EBB6
:102C70008100C269611CC9B2482000F0F6FF002043
:102C80002870611CC9B2742000F018FD641C20007B
:102C9000C0B2072880F26F81DFF82458200029781D
:102CA000C0B28842C4D1DFF8240800780028BFD120
:102CB000DFF8106801203070DFF814182200D2B25B
:102CC0000C2042430A44611CC9B2002000F063FE9C
:102CD00000203070B8E700BF45450000207802288A
:102CE00074D1DFF8F0270021002000F054FE032308
:102CF000DFF8B40602680021482000F0B6FFDFF8D4
:102D0000D8270121002000F046FE0323DFF89C06AF
:102D100002680121482000F0A8FFDFF8C027022147
:102D2000002000F038FE0323DFF894060268022139
:102D3000482000F09AFFDFF8A8270321002000F0C8
:102D40002AFE0423DFF89C0702680321482000F0D4
:102D50008CFFDFF894270421002000F01CFE0423E0
:102D6000DFF8540602680421482000F07EFFDFF8F7
:102D70007C270521002000F00EFE0423DFF87007F9
:102D800002680521482000F070FFDFF8682706215F
:102D9000002000F000FE0423DFF85C070268062133
:102DA000482000F062FFDFF854270721002000F0E0
:102DB000F2FD0323DFF8480702780721482000F0DE
:102DC000A9FE0020DFF8FC160870D4E02078032864
:102DD00022D100F088FC0423DFF8D4050268022128
:102DE000542000F042FF0423DFF8D00502680421DC
:102DF000542000F03AFF0423DFF8D0058269052152
:102E0000542000F032FF0423DFF8F80602680621A0
:102E1000542000F02AFFAEE02078042840F0A28081
:102E2000DFF8E4260021002000F0B5FDDFF8DC0625
:102E300002680021192000F01FFEDFF8D4260021CF
:102E4000402000F0A8FDDFF8CC06026800215920E0
:102E500000F012FEDFF8C0260121002000F09BFDEB
:102E60000323DFF8B80602680121232000F052FE98
:102E7000DFF8AC260121402000F08DFD0323DFF8B0
:102E8000A40602680121632000F044FEDFF89826C2
:102E90000221002000F07FFD0323DFF89006027876
:102EA0000221402000F036FEDFF8842603210020B6
:102EB00000F071FD0523DFF8100582690321402031
:102EC00000F0D3FEDFF86C260421002000F063FD43
:102ED0000523DFF8640602680421192000F0C5FE0E
:102EE000DFF858260421462000F055FD03231C007E
:102EF000DFF84C060068FFF765FB020023000421A1
:102F0000632000F007FEDFF83C260521002000F0DA
:102F100042FD0523DFF8A00582690521402000F06D
:102F2000A4FEDFF824260621002000F034FD05234E
:102F3000DFF8180602680621402000F096FEDFF850
:102F400010260721002000F026FD0523DFF80406E7
:102F500002680721402000F088FE0020DFF8641599
:102F6000087008E02078052805D1DFF8EC2500215D
:102F7000002000F010FD70BD70B59A20FFF7CCF96D
:102F8000002826D100213420FFF79DF91E20FFF7ED
:102F9000C3FC01213420FFF796F99A20FFF7BCF912
:102FA00000280ED1DFF8B4452078002804D100F0C5
:102FB0006FFC0120207004E000202070002000F051
:102FC0001CFC9A20FFF7A8F90028FAD01E20FFF772
:102FD000A3FC1120FFF7A0F9002869D100213420BB
:102FE000FFF771F91E20FFF797FC01213420FFF74E
:102FF0006AF91120FFF790F9002821D1DFF85C056C
:10300000007800281CD0DFF8B8442078072804D1C5
:1030100000F088FF0020207045E0DFF8B014087849
:1030200000280AD1DFF8B0030278012A02D0007824
:10303000002802D10120087035E00020087032E03D
:10304000DFF81C050178012927D14FF47A71DFF8E8
:10305000142511600121DFF8102511700021017085
:103060000020DFF8081508600020DFF8041508606C
:103070000020DFF8001508600020DFF84C1388619D
:103080000020DFF8601408600020DFF82C130860CF
:103090000020DFF8E414086005E001210170012040
:1030A000DFF8D81408701120FFF736F90028FAD09D
:1030B0003020FFF731F900283CD1DFF8A004007878
:1030C000002837D000213420FFF7FDF81E20FFF73D
:1030D00023FC01213420FFF7F6F83020FFF71CF91C
:1030E000002822D1DFF8E403007800280BD0DFF8B5
:1030F000CC030178052902D10521017015E0017882
:10310000491C017011E00020DFF8B4130870DFF8EB
:10311000C8120878002802D10520087002E008785B
:10312000401E0870002000F068FB3020FFF7F4F824
:103130000028FAD02920FFF7EFF800283BD1DFF86C
:103140001C040078002836D000213420FFF7BBF89B
:103150001E20FFF7E1FB01213420FFF7B4F82920FE
:10316000FFF7DAF8002821D1DFF8600300780028A3
:103170000BD0DFF848130878002802D1002008702F
:1031800014E00878401E087010E00020DFF83013CB
:10319000087091480178052902D10021017002E0F0
:1031A0000178491C0170002000F027FB2920FFF75F
:1031B000B3F80028FAD03120FFF7AEF800285FD12D
:1031C000DFF89803007800285AD000213420FFF758
:1031D0007AF81E20FFF7A0FB01213420FFF773F8D7
:1031E0003120FFF799F8002845D1DFF8E002007898
:1031F00000280DD1DFF8C8120878002804D1DFF8C4
:1032000080030078087036E00878401E087032E0CD
:10321000714C2078002813D1DFF8A45228780728B1
:103220000EDA6B4E287856F820107248DFF88C22A0
:10323000127850F82200FEF737FB297846F8210073
:103240002078012815D1DFF878020178072910DAF3
:103250005F49027801EB8204007801EB8000C169CC
:103260006448DFF85822127850F82200FEF71CFB61
:10327000E061FFF7E8FB3120FFF74EF80028FAD0B5
:103280001020FFF749F800285AD1DFF8D002007863
:10329000002855D000213420FFF715F81E20FFF735
:1032A0003BFB01213420FFF70EF81020FFF734F824
:1032B000002840D18548007800280DD18048017849
:1032C000DFF8BC221278914202D10021017032E075
:1032D0000178491C01702EE03F4C2078002811D164
:1032E000774D287807280DDA394E287856F82000CF
:1032F0004049724A127851F82210FEF729FA2978CB
:1033000046F821002078012813D16D48017807295B
:103310000FDA2F49027801EB8204007801EB80007C
:10332000C0693449654A127851F82210FEF710FA44
:10333000E061FFF788FB1020FEF7EEFF0028FAD0CF
:1033400070BD7CB5002100230E2100221EE01C0070
:10335000E4B2045D8DF800405B1C1C00E4B2045D27
:103360008DF801405B1C1C00E4B2045D8DF8024046
:103370005B1C1C00E4B2045D8DF803405B1C009CE8
:10338000134D1600F6B245F82640521C14000D00ED
:10339000E4B2EDB2AC42DAD3FFF755FB73BD0000E7
:1033A000B026FF1FC824FF1FD024FF1FCC24FF1FFF
:1033B0000425FF1F0025FF1F4027FF1FFC24FF1FC0
:1033C000EC24FF1F6C25FF1F8825FF1FA425FF1F6E
:1033D0000027FF1F7804FF1F0706FF1F3C27FF1F62
:1033E00066660A400000B040F6285C8FC2F50840CF
:1033F000D0620000A004FF1F10B5002000F068FF9D
:10340000012803D15F49002000F054FF5E4C207872
:1034100000281DD05D480178382908DA5949097813
:103420005B4A0378D1540178491C017010E00021F7
:1034300001700020207053480078022808D15448B9
:10344000FFF77FFF0120534908700120524908709F
:1034500052494878552828D10878AA2825D14948C2
:10346000007801280AD020D3032816D010D30528CD
:1034700018D016D3072817D015D316E0454A107870
:10348000002801D1012010700120434A10700CE087
:1034900000203E4A10700120207001203E4A10702A
:1034A00003E002E001E000E0FFE7087848703548FB
:1034B0000078087010BD0000C025FF1F0906FF1F1F
:1034C0000806FF1F7828FF1FB804FF1F6C28FF1F86
:1034D0000C05FF1FDC620000E8620000F4620000DF
:1034E00000630000F824FF1F606300000C6300000D
:1034F000F424FF1F18630000E825FF1F2463000069
:103500000506FF1FEC25FF1F686300001C25FF1F39
:10351000706300002025FF1F786300002425FF1F33
:10352000806300002825FF1F306300006728FF1F0D
:103530003C630000886300003025FF1F906300009B
:103540002C25FF1F48630000B0620000DC25FF1F30
:10355000C0620000E025FF1F986300006D28FF1F78
:103560006A28FF1F4427FF1F6928FF1FDC24FF1F55
:10357000D824FF1FE024FF1FF024FF1F6B28FF1F2C
:103580000606FF1F7028FF1F7228FF1F7128FF1FEC
:103590005427FF1F6E28FF1F6F28FF1F4827FF1F9C
:1035A00038B50400082501214C20FEF78CFE00BF31
:1035B00000BF00215220FEF786FE00BF00BF16E0CC
:1035C00000215020FEF77FFE05E0E007F8D501213D
:1035D0005020FEF778FE01215220FEF774FE00BF56
:1035E00000BF00215220FEF76EFEE4B264082800FE
:1035F000451EC0B20028E8D131BD000070B50500FD
:103600000C00082601214C20FEF75DFE00BF00BF24
:1036100000215220FEF757FE00BF00BFE4B2002C8D
:103620001AD0EDB2ED4317E000215020FEF74BFE1B
:1036300005E02806F8D501215020FEF744FE00BF22
:1036400000BF01215220FEF73EFE00BF00BF002157
:103650005220FEF738FE6D003000461EC0B2002832
:10366000E7D170BD38B50400082500214C20FEF7D5
:103670002AFE00BF00BF00215220FEF724FE00BF3B
:1036800000BF15E000215020FEF71DFE05E02006DA
:10369000F8D501215020FEF716FE01215220FEF739
:1036A00012FE00BF00BF00215220FEF70CFE640096
:1036B0002800451EC0B20028E9D131BD10B5040074
:1036C000B1F15000C0B2FFF7CDFF2000C0B2000939
:1036D00050F01000C0B2FFF7C5FF14F00F04200037
:1036E000FFF7C0FF10BDF8B5ADF5965D002005E011
:1036F000DFF88C17095C6A461154401CB0F5965FE0
:10370000F6DB002137E0DFF87C270800C0B2105C50
:1037100000280CD06B460C00E4B250250800C0B263
:10372000105C05FB040403EB0400002343705023EA
:103730006C460D00EDB20800C0B2104490F83C0099
:1037400003FB0505002060550800C0B2104490F846
:10375000780050280ED06C460D00EDB20800C0B2C3
:10376000104490F8780003FB050304EB03000022EB
:1037700000F8022C491C0800C0B23B28C3DB00241F
:1037800000E0641C2000C0B2082832DAB4F1500016
:10379000C0B2FFF767FF0020FFF764FF1020FFF7BC
:1037A00061FF00251EE0521C082A17DA6946230033
:1037B000DBB24FF42076502707FB02F706FB0373BA
:1037C00053FA85F3CB5CD2F107018B4053FA80F0BA
:1037D0002100C9B20729E6D1032AE4D1C0B2FFF71C
:1037E000DFFE6D1C2800C0B25028CADA002000227B
:1037F000DAE70DF5905D31B0F0BD70B5040000253D
:103800000AE000212000C0B2FFF7F8FE761C30006D
:10381000C0B28028F5DB6D1C2800C0B208280CDA85
:10382000B5F15000C0B2FFF71DFF0020FFF71AFFEF
:103830001020FFF717FF0026E9E770BD38B5002418
:1038400009E000210020FFF7D9FE6D1C2800C0B25E
:103850008028F6DB641C2000C0B208280CDAB4F122
:103860005000C0B2FFF7FEFE0120FFF7FBFE102064
:10387000FFF7F8FE0025E9E731BD06E043F22642F6
:1038800011004A1E0029FBD1401E0028F6D17047C6
:1038900080B5002201214E20FEF7BCFC0022012150
:1038A0004C20FEF7B7FC002201215220FEF7B2FCAB
:1038B000002201215020FEF7ADFC3220FFF7DDFF92
:1038C00001215220FEF7FFFC00214E20FEF7FBFCF9
:1038D0003220FFF7D2FF01214E20FEF7F4FCAE208C
:1038E000FFF7C0FE0020FFF7BDFE1020FFF7BAFE75
:1038F0004020FFF7B7FE8120FFF7B4FECF20FFF78F
:10390000B1FEA120FFF7AEFEC820FFF7ABFEA62058
:10391000FFF7A8FEA820FFF7A5FE3F20FFF7A2FEB5
:10392000D320FFF79FFE0020FFF79CFED520FFF776
:1039300099FE8020FFF796FED920FFF793FEF12035
:10394000FFF790FEDA20FFF78DFE1220FFF78AFEC8
:10395000DB20FFF787FE4020FFF784FE2020FFF7E3
:1039600081FE0220FFF77EFE8D20FFF77BFE1420F4
:10397000FFF778FEA420FFF775FEA620FFF772FE82
:10398000AF20FFF76FFE0020FFF737FF0021002078
:10399000FFF794FE01BD2DE9F04704000D0016006D
:1039A000002000200027002016E05146C9B2DFF8B1
:1039B000D8244346DBB20620434302EB03004A46C9
:1039C000D2B2805CFFF71AFE19F101094846C0B275
:1039D0000628EADBA41D7F1C3800C0B2305C00283A
:1039E00021D03800C0B2305CB0F12008DFF89C0470
:1039F0000078002806D04046C0B2002802D05FF010
:103A0000010A01E05FF0000A2000C0B27F2801DB5C
:103A100000246D1C2900C9B22000C0B2FFF74EFE81
:103A20005FF00009D2E7BDE8F08770B50021002102
:103A30000024B0F12005DFF854040078002804D0F9
:103A40002800C0B2002800D0012400260FE0210089
:103A5000C9B2DFF834242B00DBB20620434302EB6B
:103A600003003200D2B2805CFFF7C8FD761C300044
:103A7000C0B20628EBDB70BDF8B51400C9B2C0B205
:103A8000FFF71CFE0020002C04D52D20FFF7CDFFF2
:103A9000644202E02B20FFF7C8FF42F2107094FB53
:103AA000F0F042F2107194FBF1F201FB12414FF47D
:103AB0007A7291FBF2F54FF47A7194FBF1F201FB0B
:103AC0001241642291FBF2F6642194FBF1F201FBB6
:103AD00012410A2291FBF2F70A2194FBF1F201FB59
:103AE00012443030C0B2FFF7A0FF30352800C0B21A
:103AF000FFF79BFF30363000C0B2FFF796FF30373C
:103B00003800C0B2FFF791FF30342000C0B2FFF799
:103B10008CFFF1BD7FB516001C000125C9B2C0B2F3
:103B2000FFF7CCFD0F2C00DB0F24012102E00A205F
:103B30004543491CA142FADB002E04D52D20FFF796
:103B400074FF764202E02B20FFF76FFF96FBF5F043
:103B50008DF8000001200EE096FBF5F105FB1161E8
:103B60000A2295FBF2F291FBF2F16A4611540A2106
:103B700095FBF1F5401C611E8842EDDB0A2096FBA7
:103B8000F0F100FB11666846204400F8016C002546
:103B900006E06846405D3030C0B2FFF746FF6D1C5E
:103BA000A542F6DB7FBDF8B504000D002E20FFF71F
:103BB0003CFF4FF47A70B4FBF0F04FF47A71B4FB31
:103BC000F1F201FB12416422B1FBF2F66421B4FB75
:103BD000F1F201FB12410A22B1FBF2F70A21B4FB18
:103BE000F1F201FB1244EDB2012D06D039D3032DC1
:103BF00014D008D3042D21D033E030342000C0B2DB
:103C0000FFF713FF2DE030373800C0B2FFF70DFF8C
:103C100030342000C0B2FFF708FF22E03036300019
:103C2000C0B2FFF702FF30373800C0B2FFF7FDFE29
:103C300030342000C0B2FFF7F8FE12E03030C0B2DE
:103C4000FFF7F3FE30363000C0B2FFF7EEFE30373C
:103C50003800C0B2FFF7E9FE30342000C0B2FFF7F1
:103C6000E4FE2020FFF7E1FEF1BD2DE9F04707005B
:103C70000D0091461C00062048460021FEF7FAF987
:103C800009D24846FEF708F9814A824BFEF704FA4A
:103C9000FEF798F981462E00B8464846FEF792FC9A
:103CA00007004846FEF78EFCFEF7C0F901004846C3
:103CB000FDF74EFD7849FDF78BFDFEF783FC05000F
:103CC0003100C9B24046C0B2FFF7F8FC484673491C
:103CD000FEF7BEF902D22D20FFF7A7FE002F00D578
:103CE0007F4242F2107097FBF0F142F2107097FBA6
:103CF000F0F200FB12704FF47A7290FBF2F94FF47D
:103D00007A7097FBF0F200FB1270642290FBF2F8DD
:103D1000642097FBF0F200FB12700A2290FBF2F68F
:103D20000A2297FBF2F002FB10770800C0B20028CD
:103D30001DD05FF0050A30310800C0B2FFF775FEF4
:103D400019F130094846C0B2FFF76FFE18F130088C
:103D50004046C0B2FFF769FE30363000C0B2FFF710
:103D600064FE30373800C0B2FFF75FFE4BE04846D4
:103D7000C0B2002818D05FF0040A19F13009484693
:103D8000C0B2FFF752FE18F130084046C0B2FFF74C
:103D90004CFE30363000C0B2FFF747FE30373800F7
:103DA000C0B2FFF742FE2EE04046C0B2002812D05B
:103DB0005FF0030A18F130084046C0B2FFF735FE45
:103DC00030363000C0B2FFF730FE30373800C0B2B6
:103DD000FFF72BFE17E03000C0B200280CD05FF0D8
:103DE000020A30363000C0B2FFF71FFE303738000D
:103DF000C0B2FFF71AFE06E05FF0010A3037380064
:103E0000C0B2FFF712FE002D00D56D4221000A005E
:103E1000D2B25046C0B2121A002A06D0022A12D0DC
:103E200007D3042A22D018D328E02020FFF7FDFD75
:103E300024E0B1EB0A01C9B242F2107095FBF0F038
:103E4000FFF7B1FE1AE0B1EB0A01C9B24FF47A7084
:103E500095FBF0F0FFF7A7FE10E0B1EB0A01C9B245
:103E6000642095FBF0F0FFF79EFE07E0B1EB0A013E
:103E7000C9B20A2095FBF0F0FFF795FEBDE8F08788
:103E80005411FF1F1424FF1F2C5900007828FF1F16
:103E9000F168E388B5F8E43E0050C347ACC527B7E6
:103EA000DFF800F02906FF1FDFF800F04B06FF1FC8
:103EB000DFF800F00307FF1FDFF800F0A306FF1F85
:103EC00038B50025FFF7ECFF5FF4FF20047864208D
:103ED000FEF722FDE4B2AA2C08D0FF20FFF7E4FF92
:103EE00000207649087000F01DF81AE0734A00209F
:103EF00010701F2000E0401E00280BD4402101FB61
:103F000000F111F5FF210978C9B2AA29F3D1401CAB
:103F100010700125EDB2012D03D100F08FF8FEF7EE
:103F200092FD31BDF0B58FB0002068463C2100F015
:103F3000FBF90F20AA218DF80010604C2278102385
:103F4000694692FBF3F503FB1522521C4A700225C9
:103F5000002224E05A4B1600F6B213F826602F0018
:103F6000FFB2CE556D1C1600F6B203EB86067678CE
:103F70002F00FFB2CE556D1C1600F6B203EB86067D
:103F8000B6782F00FFB2CE556D1C1600F6B203EBCB
:103F90008603DB782E00F6B28B556D1C521C130085
:103FA0000600DBB2F6B2B342D4D3207820281FDA61
:103FB0006B463C222078402110FB01F189B2FF20A2
:103FC000FFF776FF21784020414311F5FF21087863
:103FD000C0B2AA2808D0009A2078402110FB01F135
:103FE00089B2FF20FFF768FF2078401C207023E093
:103FF000FF20FFF759FF002020706B463C222078FD
:10400000402110FB01F189B2FF20FFF751FF217819
:104010004020414311F5FF210878C0B2AA2808D0FA
:10402000009A2078402110FB01F189B2FF20FFF7B0
:1040300043FF2078401C20700FB0F0BD7CB50020FD
:1040400002210F22002330E01E4C1C4D2E78402010
:10405000464356FA81F0201800788DF80000491C7C
:104060002E784020464356FA81F0201800788DF8CB
:104070000100491C2E784020464356FA81F0201852
:1040800000788DF80200491C2D784020454355FAF0
:1040900081F0241820788DF80300491C0098084C02
:1040A0001D00EDB244F825005B1C18001400C0B2DE
:1040B000E4B2A042C8D3FEF7C6FC73BD7328FF1F4D
:1040C0000027FF1FC0F70700012210F01F018A40E0
:1040D000DFF83C1240B2400941F82020704738B563
:1040E00004000D002000C0B2002808D0022828D00B
:1040F00016D3042847D035D3052855D065E0DFF81E
:104100001402016851F4806101604FF440710F2086
:10411000FEF70EFC4FF440710E20FEF709FC54E050
:10412000DFF8F001016851F4006101604FF4407163
:104130004320FEF7FDFB4FF440714420FEF7F8FBEF
:1041400043E0DFF8D001016851F4805101604FF481
:1041500040716320FEF7ECFB4FF440716220FEF7E4
:10416000E7FB32E0DFF8AC01016851F40051016077
:104170004FF440715020FEF7DBFB4FF440715120AB
:10418000FEF7D6FB21E0DFF89001016851F4806171
:1041900001604FF440714E20FEF7CAFB4FF44071AE
:1041A0004F20FEF7C5FB10E0DFF86C01016851F409
:1041B000006101604FF440718920FEF7B9FB4FF4B4
:1041C00040718820FEF7B4FBFFE754492000C0B2DD
:1041D00051F82000C07810F0F3002200D2B251F85C
:1041E0002220D0702000C0B251F820008078220038
:1041F000D2B251F8222090702000C0B2002803D023
:104200002000C0B2012805D1454803684FF47A70F8
:10421000434304E0434803684FF47A704343280162
:10422000B3FBF0F2100080B2B0F5005F01DB41F6A5
:10423000FF72B3FBF5F3100080B2B3EB0013200064
:10424000C0B251F82000057815F0E005C2F3042053
:1042500005432000C0B251F8200005702000C0B214
:1042600051F8200042702000C0B251F82000807A3E
:1042700010F0E00013F01F0303432000C0B251F818
:10428000200083722000C0B251F82000007C50F062
:1042900088002200D2B251F8222010742000C0B24F
:1042A00051F82000C07850F00C00E4B251F824100E
:1042B000C87031BD194A0300DBB252F823301B79B4
:1042C0009B06F7D5C0B252F82000C079087070473D
:1042D0001249C0B251F82000807D002801D0012091
:1042E00000E00020704780B50C490200D2B251F8BE
:1042F0002220D27852F020020300DBB251F82310C2
:10430000CA70C0B240002D3040B2FFF7DDFE01BDE3
:1043100000E100E03480044028800440E405FF1FF1
:104320004828FF1F5028FF1F002200F001B800009E
:1043300000B500BF130096469446103928BFA0E888
:104340000C50FAD85FEA417C28BF0CC048BF40F847
:10435000042BC90728BF20F8022B48BF00F8012B07
:1043600000BD00002DE9F043002000200020DFF810
:10437000C41400200880DFF8C824002010800AE060
:10438000FF20DFF8B4340C8818550888401C0880DA
:104390001088401C108010883C2880F2B780DFF81D
:1043A000A43400201880DFF8A04410880A2510FBF0
:1043B00005F020800025DFF894640020178826F897
:1043C00017000020178826F81700DFF884740020F3
:1043D000388040E0B4F800E0B7F8008018FA8EFEAC
:1043E0001CF80EE05EFA00FE1EF0010EF0465FFAC9
:1043F00088F8B3F800901FFA88F8C8451DD0DFF898
:104400005484B7F800905FEAC909A8F80090EDB2AB
:10441000002D04D10D88B2F8009026F81950B8F894
:104420000050ED1D2D1ADFF81084B1F8009008F847
:1044300009500D886D1C0D8001255FFA8EFEA3F8D2
:1044400000E0401E86460FFA8EFEBEF1000FC1D579
:104450003888401C388038880A2891DADFF8F8C399
:104460002088B7F800E01EFA80F01CF80000FF2852
:1044700020D1188800281AD1DFF8D803B7F800C077
:104480005FEACC0CA0F800C0EDB2002D04D10D887D
:10449000B2F800C026F81C500088DFF89C53B1F831
:1044A00000C005F80C000888401C08800125012088
:1044B0001880CDE72088B7F800E01EFA80F01CF8DD
:1044C0000000002820D1188801281AD1DFF88403C1
:1044D000B7F800C05FEACC0CA0F800C0EDB2002D28
:1044E00004D10D88B2F800C026F81C500088DFF80F
:1044F0004853B1F800C005F80C000888401C08803B
:10450000012500201880A3E707209BE7BDE8F08382
:104510002DE9F0410024002200200021002000238A
:10452000DFF838530020286010E0C44800262F68C8
:10453000C65500262F68074487F83C6050262F6830
:10454000384480F878602868401C286028683C2837
:10455000EBDB3B20286041E0306838444078FF289E
:1045600076D03068801C3060B34F3068385CFF28EC
:1045700031D03068385C3728EEDA3068384440781B
:104580001A28E9DB3068384490F801C03068385C9C
:10459000BCEB000CBCF11A0FDEDBA848D6F800C05B
:1045A00017F80CC0D5F800E000F80EC0D6F800C02F
:1045B000BC449CF801C0BCF1FF0F05D150262F6808
:1045C000384480F8786006E036683E4476782F6894
:1045D000384480F878602868401E286028680128E0
:1045E000C0F2E480994F286837F81000002807D1FE
:1045F0002868002804D05B1C1800C0B20A2814DA0E
:1046000028681E2805D10020954E30700020954E58
:104610003070954E286837F81000306028683B28C5
:10462000A2D0924F0020386016E001208C4908701B
:104630008C49087800280AD18D480278521C0270F3
:104640000278022A01DB0022027001200870ADE02E
:10465000C1E73068801C3060DFF8DCC130681CF8CE
:104660000000FF2847D0DFF8D4E12868704490F8B4
:104670007900D6F800801CF80880404536D33068B1
:1046800060444078D5F80080F04498F801804045B7
:104690002CD33068604490F8018030681CF800002A
:1046A000B8EB0008B8F1040F20DB0120386028685F
:1046B0001EF80000002806D130681CF80000D5F86C
:1046C00000800EF80800306860444078FF280DD064
:1046D0002868704490F87700502807D1306860440B
:1046E0004078D5F80080C6448EF878003068604481
:1046F0004078FF28ADD1386800287FF46CAF286877
:10470000401C28601000C0B2002812D0594803682D
:104710001600F6B2B3420CDBD2B2026006E0002211
:10472000464B06689A550268521E02600268012ACA
:10473000F5DA0800C0B2002814D04E4802680B0019
:10474000DBB29A420EDBC9B2016008E000213B4AAD
:1047500003681A4482F878100168491E01600168F4
:104760000129F3DA22E035482968415C2A680244CD
:1047700092F878205118022291FBF2F12A68024443
:1047800082F83C102968233905290CD2296808448D
:1047900090F83C00FEF77CF82100FDF785F83649DB
:1047A000FDF782F804002868401C286028683B2830
:1047B000D9DB324D20003249FDF7E8F801002868C6
:1047C000FCF7C6FF0021FDF755FC08D220002C495C
:1047D000FDF7DCF801002868FCF7BAFF06E02000CE
:1047E0002749FDF7D3F82968FCF7B2FF5FF0804155
:1047F000FDF72EFC05D220002149FDF7C7F82860FF
:1048000015E020001E49FDF7C1F801002868FDF7FA
:104810001FFC06D229685FF08040FDF745F828604C
:1048200005E029685FF04040FDF73EF82860BDE8EC
:10483000F08100005A28FF1FA40CFF1F1424FF1F43
:104840005C28FF1F6028FF1F6228FF1FC027FF1F73
:104850005E28FF1F6428FF1F4C0AFF1F3828FF1F18
:104860000506FF1F7528FF1F3C28FF1F4428FF1F58
:104870007428FF1F4028FF1F000020C20425FF1FCF
:104880000000A040DFF800F0AD07FF1FDFF8A8131D
:104890000200D2B231F822200100C9B2002900F092
:1048A0007E81C0B2112880F27A81DFF89003002166
:1048B0000170110089B2652902DA002141707DE0A2
:1048C000110089B2C92902DA0121417076E0110094
:1048D00089B240F22D13994202DA022141706DE053
:1048E000110089B240F29113994202DA032141701A
:1048F00064E0110089B240F2F513994202DA042112
:1049000041705BE0110089B240F25923994202DA0A
:104910000521417052E0110089B240F2BD23994255
:1049200002DA0621417049E0110089B240F22133D8
:10493000994202DA0721417040E0110089B240F249
:104940008533994202DA0821417037E0110089B2BB
:1049500040F2E933994202DA092141702EE0110058
:1049600089B240F24D43994202DA0A21417025E0B2
:10497000110089B240F2B143994202DA0B21417031
:104980001CE0110089B240F21553994202DA0C2161
:10499000417013E0110089B240F27953994202DA72
:1049A0000D2141700AE0110089B240F2DD539942B5
:1049B00002DA0E21417001E00F214170110089B22D
:1049C0001F2902DA0021817071E0110089B23D29AE
:1049D00002DA012181706AE0110089B25B2902DAF2
:1049E0000221817063E0110089B2792902DA032182
:1049F00081705CE0110089B2972902DA042181708C
:104A000055E0110089B2B52902DA052181704EE026
:104A1000110089B2D32902DA0621817047E0110022
:104A200089B2F12902DA0721817040E0110089B2D0
:104A300040F20F13994202DA0821817037E0110029
:104A400089B240F22D13994202DA092181702EE0D9
:104A5000110089B240F24B13994202DA0A218170A7
:104A600025E0110089B240F26913994202DA0B2164
:104A700081701CE0110089B240F28713994202DA7A
:104A80000C21817013E0110089B240F2A513994204
:104A900002DA0D2181700AE0110089B240F2C313DD
:104AA000994202DA0E21817001E00F21817011001C
:104AB00089B21F2902DA0021C17070E0110089B2A9
:104AC0003D2902DA0121C17069E0110089B25B2938
:104AD00002DA0221C17062E0110089B2792902DA9A
:104AE0000321C1705BE0110089B2972902DA042129
:104AF000C17054E0110089B2B52902DA0521C170F4
:104B00004DE0110089B2D32902DA0621C17046E0D6
:104B1000110089B2F12902DA0721C1703FE01100CA
:104B200089B240F20F13994202DA0821C17036E0CF
:104B3000110089B240F22D13994202DA0921C170A5
:104B40002DE0110089B240F24B13994202DA0A219A
:104B5000C17024E0110089B240F26913994202DA6F
:104B60000B21C1701BE0110089B240F287139942FA
:104B700002DA0C21C17012E0110089B240F2A513D3
:104B8000994202DA0D21C17009E092B240F2C311DC
:104B90008A4202DA0E21C17001E00F21C170704714
:104BA00070B504002000C0B2FFF770FE2448017801
:104BB00011F0FD010170017851F010010170214DDB
:104BC000B8202870204E3078C006FBD43078C0F36F
:104BD00081000228FAD11948C37882784178007898
:104BE000FFF750FE14482100C9B200EB810189781B
:104BF00011F01F01154A11702100C9B200EB8101AB
:104C0000C97811F01F0151F04001114A117031783B
:104C10008906FCD531784906FCD5297811F03F0189
:104C200029703178C1F381010329FAD1E4B230F857
:104C30002400C0B270BD00008805FF1FCC05FF1F17
:104C40000140064000400640064006400440064041
:104C500005400640012210F01F018A40DFF868126B
:104C600040B2400941F820207047020052B2002AA9
:104C700009D50901DFF8542240B210F00F001044AA
:104C800000F8041C04E00901DFF8442240B211548A
:104C9000704710B5FEF7FCFD00F070F900213420DC
:104CA000FDF711FB4620FDF737FE01213420FDF70B
:104CB0000AFBAA20FDF730FE00213420FDF703FB9C
:104CC0004620FDF729FE01213420FDF7FCFA00F013
:104CD0009CF900F0A1F972B62E20FDF72FFB2920D8
:104CE000FDF72CFB2420FDF729FB7A4800684100E2
:104CF000002000F0B3F97849542000F0E4F9FFF700
:104D0000DFF800F053F8FCF77FFB42F21074002349
:104D1000220000210020FDF7ECFC002322000121ED
:104D20000020FDF7E6FC0023220002210020FDF711
:104D3000E0FC0023220003210020FDF7DAFC00F054
:104D40006FF801213420FDF7BEFAFEF777FD634AC4
:104D500000210020FEF71FFE00F0C8F9604969201D
:104D600000F0B1F95F49102000F0ADF95920FFF7CC
:104D700071FFFEF763FD5C493D2000F0A4F90020BF
:104D8000FFF7B1FA4420FFF765FF02214420FFF747
:104D90006CFF01211020FFF768FF00216920FFF759
:104DA00064FF62B601205149087010BD70B45048CC
:104DB0005049016050498160504901615049514A50
:104DC0000A60514A8A60514A514B1360514B13613A
:104DD000514B524C1C60524C1C61524C524D2C6039
:104DE000524C534D2C60534C534D2560534D544EF3
:104DF0003560544D06682E6086686E600069A86054
:104E00000868E86088682861106868611069A861AE
:104E10002068E861186828621869686270BC704789
:104E200080B54948016851F0007101604748016848
:104E300051F4007101604FF45070454908604549D4
:104E40000A6852F044020A600A6832F038020A60C6
:104E5000414908604148016851F04401016001681E
:104E600031F03801016008203D4908603D48016883
:104E700051F00401016000213B4A116001684908BA
:104E80004900016000203949086000203849086065
:104E90000FF211014F2000F016F93F20FFF7DAFE64
:104EA00001BD00003249086800220A60C10703D52D
:104EB00030490A68521C0A60800703D52E480168F1
:104EC000491C01607047000000E100E018ED00E0BF
:104ED00000E400E05028FF1FD15F00009C6200004A
:104EE0004D51000079510000F93300006D28FF1F7B
:104EF0006C25FF1F0AD7233E0AD7A33CA69B443B41
:104F00008825FF1FEC51B83D0AD7233CA425FF1F7D
:104F1000E3A51B3D6C0979BBC025FF1FA69BC43AC6
:104F200027A0093B0AD7A33B6425FF1F6F12033A52
:104F30006825FF1F7804FF1FCDCCCC3F000090C137
:104F4000E424FF1F0027FF1F3C80044038800440FA
:104F5000309004400C90034034900440149003407F
:104F60000090034054900340649003404C900340F1
:104F700050900340B827FF1FBC27FF1F80B50122B8
:104F800000219A20FDF746F903219A20FDF7F3FC52
:104F9000012200213020FDF73DF903213020FDF7EB
:104FA000EAFC012200213120FDF734F903213120F0
:104FB000FDF7E1FC012200211020FDF72BF9032170
:104FC0001020FDF7D8FC012200211120FDF722F965
:104FD00003211120FDF7CFFC012200212920FDF73C
:104FE00019F903212920FDF7C6FC012201213420F3
:104FF000FDF710F9012200219820FDF70BF901229D
:1050000000219920FDF706F901BD80B5012201219B
:105010001320FDF7FFF801BD80B500211320FDF737
:1050200052F94FF49670FDF777FC01211320FDF73C
:105030004AF94FF49670FDF76FFC00211320FDF73D
:1050400042F94FF49670FDF767FC01211320FDF73C
:105050003AF94FF49670FDF75FFC01BD154A1368ED
:1050600053F4000313600022134B1A60134A491EC5
:105070000300DBB21B01D1500100C9B20901114488
:10508000C96851F001010300DBB21B011344D96070
:105090000100C9B2090111448968490849000300A7
:1050A000DBB21B01134499600321C0B2000110441C
:1050B000816070473C8004400070034000710340F1
:1050C000034908607047034AC0B242F82010704795
:1050D00008ED00E00000FF1F012210F01F018A40D0
:1050E0006E4940B2400941F82020704780B500F079
:1050F00054F80028FBD000F002F8002002BDE0B513
:10510000012002904FF416700190002000904D2372
:10511000634A6449002000F0E7F8634801684908E1
:10512000490001606148016851F0010101600020FF
:10513000FFF7D2FF5E494D20FDF7FAFB5D494F2096
:10514000FDF7F6FB5920FFF7C7FF07BD00205A48BF
:1051500002685FF0FF3101600F21CA40D1070AD514
:105160004FF4004101604E48544908604E480168C0
:1051700051F001010160704710B54C48016851F0D1
:105180000101016001204E4908704FF41672444934
:105190004C4C200000F0E6F910BD1CB500200020AA
:1051A0008DF8000000F032FA8021122000F00DFB93
:1051B000002801D100202AE00B220121684600F0DE
:1051C0003DFB002801D1002021E09DF800002128AE
:1051D0001CD1002400E0641C20003B49097880B207
:1051E00089B2884210D23948210089B200EB4101CE
:1051F0004978220092B210F8120080B200F0E5FA6D
:105200000028E8D1002002E0012000E0002016BDC7
:1052100038B403002E480088ADF8000038E00C7860
:10522000491C68462500EDB2ED11455D1D705B1C03
:105230002500EDB2C5F38015455D1D705B1C250092
:10524000EDB2C5F34015455D1D705B1C2500EDB248
:10525000C5F30015455D1D705B1C2500EDB2C5F35F
:10526000C005455D1D705B1C2500EDB2C5F38005D2
:10527000455D1D705B1C2500EDB2C5F34005455D25
:105280001D705B1CE4B214F00104005D18705B1C1F
:105290001000421E0028C2D131BC704700E100E07E
:1052A000F407FF1FD0F00F400C8000402480004026
:1052B0000201020012010A00A0B004401090004058
:1052C0006628FF1F4C0AFF1F0406FF1F1004FF1F64
:1052D0008A190000012210F01F018A40964940B24D
:1052E000400941F8202070472DE9F047089F3C0015
:1052F000E4B2002C01D101240CE03C00E4B2012C0A
:1053000001D1022406E03C00E4B2022C01D10424C5
:1053100000E01024DDF828C0DDF824E00D000600D0
:105320008648016851F0020101608548016851F02A
:105330000201016083483100C9B249014550310082
:10534000C9B2490101440A6100213200D2B25201BE
:10535000024491802100C9B23200D2B2520102440B
:1053600091823900C9B2090211F4E0613A00D2B267
:1053700012F0070211433200D2B252010244D1802E
:1053800071464904490C3200D2B252010244D18222
:1053900071464904490C3200D2B252010244D18311
:1053A00069490A6832F080020A602100C9B23200FD
:1053B000D2B252010244916000213200D2B25201B5
:1053C0000244D1605FEA8C6102D4DEF1000E01E09C
:1053D0005FF0000E3100C9B249010144C1F818E084
:1053E0000A213200D2B25201104481831800C0B2A7
:1053F0004009313050F0800054493200D2B2885414
:105400004FF40071524A10689E465FFA8EFE5FEAC2
:105410005E1E11FA0EFE5EEA000010605FF00108E9
:10542000DFF830E11800C0B240115EF82000994664
:105430005FFA89F95FEA69195EF82990D9F8149042
:1054400013F01F0A18FA0AFA39EA0A09C0F8149088
:10545000DFF804911800C0B2401159F820009A46B4
:105460005FFA8AFA1AF01F0A5FEA0C4C1CF4403CFF
:105470005CF4817C40F82AC01800C0B2002801D03A
:10548000012000E000209C465FFA8CFC5FEA6C1C67
:105490005EF82CC0DBB25B115EF823305B6918FA52
:1054A00000F033EA0000CCF8140010682B009B09D0
:1054B00013F00703994001431160FFB2002F03D09E
:1054C000022F09D004D30BE00020291D08700BE047
:1054D0000020291D088007E00020291D086003E046
:1054E000A8211E4800F01AFA2800103810F03F00DA
:1054F000E4B2E40054FA80F10CE02A00920912F0C0
:10550000070259F822200300DBB24FF4817442F8FD
:105510002340401C02000B00D2B2DBB29A42ECD313
:105520000020FFF7D7FE0E48016818FA06F631EAA8
:1055300006060660BDE8F08700E100E04080044018
:105540003C80044000900040008000400010024079
:10555000388004407405FF1FD005FF1FDC61000088
:105560000C80004062B38B0708D0521E11F8013B3B
:1055700000F8013B00F024808B07F6D1830740F050
:10558000208000BF103A07D330B4B1E83810103A89
:10559000A0E83810F9D230BC530724BFB1E8081096
:1055A000A0E8081044BF51F8043B40F8043BD20780
:1055B00024BF31F8022B20F8022B44BF0B78037074
:1055C0007047121F17D35B0009D151F8043B20F834
:1055D000023B1B0C121F20F8023BF6D20BE051F8E5
:1055E000043B00F8013B1B0A20F8023B1B0C121F76
:1055F00000F8013BF3D238BF121D521E24BF11F830
:10560000013B00F8013BF8D87047000080B501224B
:1056100001218520FCF7FEFD012201218420FCF7F9
:10562000F9FD23218520FDF7A6F923218420FDF72C
:10563000A2F901BD38B50120DFF8CC1208600120C5
:10564000DFF8C8120860DFF8C8420120206000F0CF
:1056500051F9DFF8C0520120286000F04BF900201A
:10566000206000F047F900202860012032BD10B50D
:105670000120DFF8941208600120DFF89012086022
:10568000DFF88C420020206000F034F90120DFF8C0
:105690008412086000F02EF90120206000F02AF941
:1056A00010BD10B5DFF86C420020206000F022F938
:1056B0000020DFF85C12086000F01CF90120206077
:1056C00000F018F90020206000F014F910BD10B5AA
:1056D000DFF840420020206000F00CF90120DFF8E4
:1056E0003012086000F006F90120206000F002F995
:1056F0000020206000F0FEF810BD38B5DFF814423D
:1057000000202060DFF804520020286000F0F2F84A
:105710000120206000F0EEF8DFF8FC0100680028AE
:1057200005D00120286000202060002004E0012036
:10573000286000202060012032BD70B504000825DB
:1057400015E00020DFF8C811086005E02006F8D554
:105750000120DFF8BC110860640000F0CBF8DFF82E
:10576000B4610120306000F0C5F8002030602800EE
:10577000451EC0B20028E9D170BDF8B50824002646
:10578000DFF888510020286011E07600DFF884718E
:105790000020386000F0AEF80120386000F0AAF870
:1057A000DFF874010068002801D056F001062000DF
:1057B000441EC0B20028E8D1012028600020DFF894
:1057C00054110860F6B23000F2BD70B504000D004F
:1057D00000262900C9B2200080B200F00BF8002892
:1057E00006D1761C3000C0B21428F2D1002000E0AF
:1057F000012070BD38B504000D00FFF71BFF002825
:1058000001D1002019E04220FFF797FFFFF775FF55
:10581000002803D1FFF72BFF00200EE02000C0B2CC
:10582000FFF78BFFFFF769FF2800C0B2FFF785FF86
:10583000FFF763FFFFF71BFF012032BDF8B504003F
:105840000D00160000273200D2B2290089B22000D4
:1058500000F00BF8002806D17F1C3800C0B21E28CB
:10586000F1D1002000E00120F2BD70B504000D0070
:105870001600FFF7DFFE002801D1002038E04220AB
:10588000FFF75BFFFFF739FF002803D1FFF7EFFEBB
:1058900000202DE03000C0B2FFF74FFFFFF72DFFD3
:1058A000FFF7E5FEFFF7C6FE002801D100201FE04C
:1058B0004320FFF742FFFFF720FF002811D1FFF739
:1058C000D6FE002014E0FFF7ECFE08E0FFF755FFDE
:1058D0002070280080B20128F5D1FFF7F8FE641C83
:1058E0006D1E280080B20028F0D1FFF7C0FE012015
:1058F00070BD0000002001E000BF401C010089B223
:10590000B1F5FA6FF8DB70479422FE439022FE4314
:105910001020FE431420FE431022FE4380B5FFF703
:1059200074FBFFF779FBFCE7704700000000000004
:1059300000000000002F0000000007000700001416
:105940007F147F1400242A7F2A1200626408132324
:1059500000364955225000000503000000001C22BB
:105960004100000041221C000014083E08140008F9
:10597000083E0808000000A06000000808080808A9
:10598000000060600000002010080402003E514941
:10599000453E0000427F40000042615149460021DF
:1059A00041454B31001814127F10002745454539F9
:1059B000003C4A4949300001710905030036494954
:1059C000493600064949291E00003636000000000D
:1059D0005636000000081422410000141414141458
:1059E0000000412214080002015109060032495901
:1059F000513E007C1211127C007F49494936003E1D
:105A000041414122007F4141221C007F49494941D7
:105A1000007F09090901003E4149497A007F0808D1
:105A2000087F0000417F4100002040413F01007F8E
:105A300008142241007F40404040007F020C027F5A
:105A4000007F0408107F003E4141413E007F09096C
:105A50000906003E4151215E007F09192946004692
:105A6000494949310001017F0101003F4040403F69
:105A7000001F2040201F003F4038403F00631408B3
:105A8000146300070870080700615149454300008E
:105A90007F41410000552A552A55000041417F00B1
:105AA00000040201020400404040404000000102A6
:105AB0000400002054545478007F4844443800388F
:105AC0004444442000384444487F00385454541817
:105AD00000087E0901020018A4A4A47C007F080429
:105AE00004780000447D4000004080847D00007FF9
:105AF000102844000000417F4000007C0418047816
:105B0000007C0804047800384444443800FC242411
:105B100024180018242418FC007C080404080048F9
:105B20005454542000043F444020003C4040207C1A
:105B3000001C2040201C003C4030403C0044281009
:105B40002844001CA0A0A07C004464544C441414BD
:105B500014141414FFFFFFFFFFFF00000D4111009C
:105B600009030CD01240173F185019031A7832005D
:105B7000A00A63E0ACFF650C6600670029142C1EC8
:105B80002A007E0C7F16802A814E8261836F847B7F
:105B90008586868E879788A489AF8AC58BD78CE83F
:105BA0008D204A00491347084B144C17460522998B
:105BB0002303A6049B389C50AB069E119F02000055
:105BC00032000000CDCCCC3E6F12833A6F12833A84
:105BD0000000A0406F12833B0000803F00000000E7
:105BE000000000000000803F00000C4217B7D138D1
:105BF0006F12833A0AD7233CCDCCCC3D0000803FC6
:105C0000000020415049445F414E474C452E500012
:105C10005049445F414E474C452E49005049445F2E
:105C2000414E474C452E44005049445F5350454532
:105C3000442E50005049445F53504545442E49007E
:105C40005049445F44495245432E50005049445FF7
:105C500044495245432E440053657453706565644E
:105C60000000000041445F5455524E2E5000000089
:105C700041445F5455524E2E4400000046757A7AD6
:105C8000795F6B700000000046757A7A795F6B640B
:105C900000000000535475726E5370656564000017
:105CA000425475726E416E676C65000000B003402F
:105CB00000B00B40008003400090034000800B4088
:105CC00000F00F4040F00F4080F00F40C0F00F4058
:105CD00000F10F40E5000B1F3000180032001801E2
:105CE000600018186400181A6E00181F7800131846
:105CF0007D00131A8200131C8C000E1296000E15E4
:105D0000A0000E18AA000E1BB4000E1EC8000C1C2A
:105D1000E1000B1EFA000A1F000404090090044071
:105D200000A0044000B0044000C0044000D0044083
:105D300000A0064000B0064000C0064000D006406B
:105D400000A00E4000B00E40002000E0F6FF010071
:105D500031010703010200005C48F0210170017865
:105D60000906FCD5007810F0710F01D0002000E08A
:105D7000012070475648016851F4002101605548E0
:105D8000016851F400210160504801780906FBD5F3
:105D9000F021017070471CB50400210089B24FF456
:105DA00000604143009109204B4908709DF80200B2
:105DB0004A4908709DF80100494908709DF80000A3
:105DC00048490870FFF7C8FF002801D100200DE006
:105DD000200080B2002808D17FF0010240F20C417F
:105DE000200080B200F003F800E0012016BD80B56D
:105DF00080B24FF4006389B203FB001000909DF85D
:105E00000200364908709DF80100354908709DF878
:105E100000003449087000929DF803003249087070
:105E20009DF80200314908709DF801003049087062
:105E30009DF800002F490870062027490870FFF7D9
:105E40008BFF002801D1002000E0012002BD7CB5BD
:105E500014001D0080B24FF4006289B202FB0010F2
:105E6000009006201C490870002604E00098001DE0
:105E700000902D1D361D200080B2864223D29DF851
:105E80000200164908709DF80100154908709DF838
