:10000000F8FF002011040000C5580000C55800008A
:10001000C5580000C5580000C5580000C55800006C
:10002000C5580000C5580000C5580000C55800005C
:10003000C5580000C5580000C5580000C55800004C
:10004000C5580000C5580000C5580000C55800003C
:10040000FFFFFFFFFFFFFFFFFFFFFFFFFEFFFFFFFD
:1004100062B605F01BFEFEE780B501F028F9DFF8B3
:10042000E818088001F031F9DFF8E018088001F0E1
:1004300025F9DFF8341A088001BD2DE9F24F804616
:10044000DFF8CC48DFF8CC78DFF8CC580098296882
:1004500001F080F9396801F0BDF9216801F026FA50
:100460002060DFF8B898DFF8B868DFF8B8080068EF
:10047000716801F06FF9B16801F06CF9C9F800001A
:10048000F06890F00040C9F80400F06890F0004077
:10049000C9F80800DFF890080068C9F80C00D9F81E
:1004A0000010386801F096F9316801F0FFF930600A
:1004B000D9F80410386801F08DF9716801F0F6F987
:1004C0007060D9F80810386801F084F9B16801F05B
:1004D000EDF9B060D9F80C10386801F07BF9F168DB
:1004E00001F0E4F9F060DFF844784046216801F05B
:1004F00031F93860DFF838883068C8F80000B06833
:10050000DFF830180860DFF830B8DFF8300801682D
:10051000D8F8000001F0CAF9CBF80000DFF8209805
:10052000D8F80000DBF8001001F032FAC9F800003A
:10053000DFF810A8DFF8FC070068DBF8001001F016
:1005400027FACAF80000DFF800B8D8F80000CBF8A6
:100550000000DFF8F8877068C8F80000D9F80010CC
:10056000DBF8000001F036F90100306801F0F2F824
:100570003060D9F80010D8F8000001F02BF9010024
:10058000706801F0E7F87060DAF80010DBF800003E
:1005900001F020F90100B06801F0DCF8B060DAF891
:1005A0000010D8F8000001F015F90100F06801F022
:1005B000D1F8F060D9F80010386801F00BF9216823
:1005C00001F074F92060DAF80010386801F002F9DF
:1005D000296801F06BF928600098296801F0BAF8E1
:1005E000DFF888180860BDE8F18F70B5DFF8606744
:1005F000DFF860170878002833D1DFF80C07B0F96E
:100600000000DFF85417B1F90010401A01F03EFA6B
:100610000022DFF8483701F04BFA04000D00DFF844
:100620005008B0F90000DFF84C18B1F90010401A7A
:1006300001F02CFA02000B002000290001F00AFB57
:1006400004000D00DFF83008006801F027FC2200EC
:100650002B0001F047FC01F003FDDFF8B41908603E
:100660002FE0087801282CD1DFF89C06B0F90000B3
:10067000DFF8E416B1F90010401A01F007FA002281
:10068000DFF8D83601F014FA04000D00DFF8E007B7
:10069000B0F90000DFF8DC17B1F90010401A01F0E2
:1006A000F5F902000B002000290001F0D3FA002226
:1006B000DFF8C83701F016FC01F0D2FCDFF8501962
:1006C0000860DFF8A847DFF8A007B0F90000DFF8FE
:1006D000B017B1F90010401A01F0F6FC310001F03A
:1006E00079F820602168DFF828090068FFF7A5FE87
:1006F00070BDF8B5DFF88C673168DFF81406006864
:1007000001F068F87060DFF864473169206801F033
:1007100061F870612068002101F0E8FC01D22068D6
:1007200002E0206890F00040DFF85C1701F0DEFC8A
:1007300036D82068002101F0D9FC01D2206802E0FF
:10074000206890F00040DFF8441701F0E1FC27D268
:100750002068002101F0CAFC01D2276802E0276866
:1007600097F00047706901F099FB04000D00380014
:1007700001F094FB0022DFF8183701F0B3FB0022F0
:10078000DFF8103701F066FA0022DFF8B83801F020
:10079000A9FB22002B0001F08BF901F061FC7061D4
:1007A0007168706901F082F8B061F1BD2DE97043A4
:1007B000982001F041FD012802D1DFF8DC06056830
:1007C000982001F039FD012803D0DFF8CC06056838
:1007D0006D42992001F030FD012803D1DFF8BC06FD
:1007E00004686442992001F027FD012802D0DFF857
:1007F000AC0604680020DFF8A41608600020DFF8CB
:1008000098160860DFF80C68306A7062F069306230
:10081000B069F0617069B06130697061F068306131
:10082000B068F0607068B06030687060280001F0F7
:100830004BFC3060DFF8E057286A6862E86928629C
:10084000A869E8616869A86128696861E868286141
:10085000A868E8606868A86028686860200001F0FF
:1008600033FC28603168706801F020F8B16801F04D
:100870001DF8F16801F01AF8316901F017F8716993
:1008800001F014F8B16901F011F8F16901F00EF806
:10089000316A01F00BF8716A01F008F8DFF87C1793
:1008A00001F076F801F0DAFC04002968686800F0CD
:1008B000FDFFA96800F0FAFFE96800F0F7FF296979
:1008C00000F0F4FF696900F0F1FFA96900F0EEFFA4
:1008D000E96900F0EBFF296A00F0E8FF696A00F0BF
:1008E000E5FFDFF8381701F053F801F0B7FC050019
:1008F000DFF82C67306801F0D1FA80468946281964
:1009000001F0C4F80022DFF81C3701F0A3F94246D9
:100910004B4601F0E7FA01F0A3FB30602C192000F0
:1009200001F0B4F8DFF80027DFF8003701F0C0F875
:1009300001F096FBDFF8F8160860BDE87083F8B5A3
:10094000DFF8F0060068DFF8E816096800F002FF3B
:100950000400DFF8E45600202860002613E0DFF8EA
:10096000DC163000C0B201EB800040683200D2B229
:1009700041F8220028683200D2B251F8221000F06B
:1009800095FF2860761C3000C0B21328E7DBDFF843
:10099000AC06C4642968C06C00F088FF2860DFF8EA
:1009A000A0663068DFF8A0160860DFF8A076386827
:1009B000210000F00FFF0400B968286800F00AFF6A
:1009C000210000F073FF3060F1BD10B5DFF8704614
:1009D0002068DFF87416096800F0BCFE2068DFF8B4
:1009E0006C168861DFF864070168192902D10121BA
:1009F000016005E00168192902DA0168491C0160FB
:100A000010BD2DE9F84388B0DFF844530020009072
:100A1000E8460020C8F80400002002900020C8F832
:100A20000C005FF0000915E0D8F8046001212420D3
:100A300001F01FFD16FA80F0C8F80400D8F80C6029
:100A40000121292001F015FD16FA80F0C8F80C00EC
:100A500019F10109B9F10A0FE6DBDFF8F465D8F8FE
:100A6000040090FBF9F03060DFF8E875D8F80C006E
:100A700090FBF9F038603068002801D5002000E0D4
:100A8000306841F28931884203DB41F288303060BE
:100A900001E0306830603868002801D5002000E0AF
:100AA0003868884203DB41F28830386001E03868FA
:100AB0003860DFF808263068322190FBF1F01060D2
:100AC000DFF8FC353868322190FBF1F018601068CF
:100AD00019680843002803D10120DFF8E8150870E1
:100AE00010680B2802DA18680B2803DB0020DFF8F7
:100AF000D4150870106865283DDB1868512809DB9B
:100B0000DFF8C4050078002804D1DFF8C0050168CB
:100B1000491C0160DFF8B015087800280ED1DFF815
:100B2000AC05D0F800C0BCF1140F07DB5FF0020C7D
:100B300081F800C05FF0000CC0F800C0186865289C
:100B40000DDB087802280AD1DFF804C6DCF80000C3
:100B5000002804D10020CCF800000120087018689B
:100B6000662808D10878032805D1042008700020E1
:100B7000DFF8DC1508601068642803DA0020DFF86D
:100B80004C150860DFF8CC85DFF8CC05B0F9000023
:100B90005E49B1F90010401A01F096FA01002800F0
:100BA00000F018FEC8F80000386801F08DFA050062
:100BB000306801F089FA0100280000F0CBFD050043
:100BC00038683168081801F07FFA0100DFF88421E5
:100BD0001078002801D14FF47A741078012801D1DF
:100BE0004FF49674DFF87465280000F0D1FE05001C
:100BF000200001F069FA0100280000F0EBFD3060F0
:100C0000DFF85C452068316800F0E4FD6060206931
:100C1000D8F8001000F0DEFD60616068616900F0E6
:100C200045FEA061DFF8A0040178012904D0DFF8B7
:100C300034150978012929D1DFF814150A68521CE6
:100C40000A600278012A05D10A681F2A02DBDFF850
:100C50001825A261DFF80C251378012B05D10B684C
:100C6000652B02DBDFF80C37A3610B6840F22D1512
:100C7000AB420BDB00230B600178012901D103217A
:100C800001701178012901D1032111700178042923
:100C900004D0DFF8D0140978042931D1DFF8B0147A
:100CA0000A68521C0A600278042A06D10A68642A7B
:100CB00003DADFF8B404A06122E0DFF8A824137897
:100CC000042B06D10B68642B03DADFF8A806A061B9
:100CD00016E00B68643B40F24C44A34210D30B680F
:100CE000B3F5966F0CDB00230B600178042902D169
:100CF0000021017004E01078042801D10020107058
:100D000009B0BDE8F08300002828FF1F2A28FF1F34
:100D1000CC24FF1F8804FF1FC025FF1FB025FF1F25
:100D20008C04FF1F7C04FF1F8004FF1FC425FF1FCE
:100D3000C825FF1FCC25FF1FD025FF1F8404FF1FE0
:100D4000D425FF1FD825FF1FDC25FF1FE025FF1F2F
:100D5000A69B443D4B28FF1F2E28FF1F00806640A6
:100D600070B51420DFF814462078002821D1DFF870
:100D70001006007801281CD1DFF84803007800280D
:100D800017D140488169DFF8C402806900F08EFD08
:100D90000500DFF8CC632800B16900F0DBFCDFF868
:100DA000E4150860B069290000F080FDDFF8D8156F
:100DB0000860207801283CD1DFF8C40500780128BC
:100DC00037D1DFF800030078002832D1DFF8BC45C6
:100DD000206800280DD1DFF8B80500685FF0834176
:100DE00001F084F905D8012020600120DFF8A41566
:100DF00008602068012803D100F06AF9206004E04F
:100E0000DFF89405DFF844128861DFF85443DFF817
:100E10003C52A86990F00040A16900F09BFCDFF80B
:100E200064150860A069A96900F094FCDFF8581502
:100E30000860DFF86845206800280ED100F00CF942
:100E400001280AD1DFF84C050068002805D10120EF
:100E500020600020DFF8481508602068012802D1D2
:100E600000F084F9206070BD2C28FF1FC824FF1FEC
:100E7000F805FF1FFA05FF1FDC24FF1F00003940A3
:100E8000FE05FF1F1825FF1F0100F0410000A042D2
:100E900000003EC000003E409827FF1F9C27FF1F18
:100EA00070B5DFF80025DFF8E0542868110001F084
:100EB0001DF900D82A60DFF8F0342868190001F025
:100EC00027F902D2DFF8E4042860DFF8B84420688C
:100ED000110001F00BF900D822602068190001F020
:100EE00017F902D2DFF8C4042060DFF8C464206878
:100EF000310000F06FFC01F0B1F904002868310006
:100F000000F068FC01F0AAF90500DFF884241068FD
:100F1000DFF8641401F0FCF805D31068DFF89414CE
:100F200001F0E4F816D8DFF890241078002811D1E9
:100F3000DFF888040068DFF8881401F0D7F809D8D2
:100F4000012010700120DFF87C1408700020DFF809
:100F50007814086032480068DFF8701401F0C6F8B1
:100F600024D8DFF85424107800281FD1304B18689B
:100F70005FF07C5101F0CCF805D31868DFF850140D
:100F800001F0B4F80ED8DFF840040168491C016094
:100F90000068FB280ADB012010700120DFF8241410
:100FA000087003E00020DFF820140860002C0AD449
:100FB00022000021002001F0B7FB002201210020C7
:100FC00001F0B2FB0AE000220021002001F0ACFB9E
:100FD000644222000121002001F0A6FB002D0AD46A
:100FE0002A000221002001F09FFB002203210020A3
:100FF00001F09AFB0AE000220221002001F094FB9C
:101000006D422A000321002001F08EFB70BD00001C
:10101000C424FF1FE425FF1F0C26FF1F00002041F2
:10102000E824FF1F0088B3409A9999999999A93F9C
:10103000E024FF1F7804FF1FD824FF1F3426FF1F62
:10104000D024FF1F0000F03FD424FF1F3425FF1FD2
:10105000F824FF1FFC24FF1F70B5002540F2A46494
:101060002820002612E00121262001F002FA15FABC
:1010700080F50AE0DFF8040300780028F3D00121AE
:10108000252001F0F6F915FA80F5761C0A2EF1DB21
:101090000A2095FBF0F1DFF8E4020078002808D080
:1010A000DFF8300301608C4201DA012005E0002006
:1010B00003E0DFF824030160002070BD0025FF1F5E
:1010C0000425FF1F3D28FF1F4128FF1F8826FF1F03
:1010D00080B5DFF8CC221068002803D0022820D089
:1010E00010D332E0DFF8F402DFF8F4128861A84888
:1010F0000068DFF8F01201F00BF801D20120106057
:10110000012022E0A448DFF8D8128861A0480068D6
:10111000DFF8D41200F0FCFF01D2022010600120A1
:1011200013E00020DFF8B812886199480068DFF802
:10113000BC1200F0DBFF06D80020106000209549AB
:101140000860002001E00120FFE702BD7404FF1FDA
:101150008426FF1FEC24FF1FFC05FF1F0825FF1F2F
:101160006C25FF1F4228FF1F9A9919BE38B5A04C65
:101170002068401C20608A4D2868002818D002286A
:101180002FD023D3042843D037D3062857D04BD3AE
:1011900008286CD060D30A2800F0808073D30C2814
:1011A00000F09880C0F08B800D2800F09F80AAE0AE
:1011B00000F0DAF88F480068002100F0A9FF03D89A
:1011C000012028600020206001209CE000F0B0F8A1
:1011D0002068642803DB02202860002020600120B2
:1011E00091E000F0BBF8FFF737FF002803D10320A0
:1011F000286000202060012085E000F099F8206838
:10120000642803DB042028600020206001207AE0AD
:1012100000F07AF82068B0F5967F03DB052028609F
:101220000020206001206EE000F082F82068642831
:1012300003DB0620286000202060012063E000F02E
:1012400071F8206840F6CA01884203DB0720286055
:1012500000202060012056E000F06AF82068642831
:1012600003DB082028600020206001204BE000F014
:1012700052F82068B0F5D27F03DB092028600020F7
:10128000206001203FE000F053F82068642803DB71
:101290000A20286000202060012034E000F042F89D
:1012A00000F04DF8012808D1206840F2DC51884256
:1012B00003DB0B20286000202060012023E000F0E9
:1012C00037F82068642803DB0C20286000202060A9
:1012D000012018E000F018F82068B0F5967F03DBD5
:1012E0000D2028600020206001200CE000F020F894
:1012F0002068642805DB0020286000202060002092
:1013000001E00120FFE732BD3B481E4908603B4831
:101310001D490860704739481A49086036481A491B
:1013200008607047364817490860174908607047D9
:1013300000201449086000201349086070473148B4
:101340000068B0F57A6F07DB2F48006840F2E9319A
:10135000884201DA012000E0002070470E48094968
:1013600008600949086070470E4806490860064948
:10137000086070477B142E3E000020C14B28FF1FE1
:101380000106FF1F8825FF1F8C25FF1F9C25FF1FBF
:10139000CC24FF1FA025FF1F9A99193EA425FF1FEB
:1013A000A825FF1FA4707D3FA3707DBFA4707DBFE3
:1013B00000401C460100F0413F28FF1F2027FF1F6F
:1013C000010000404028FF1F8C26FF1F0100803FC6
:1013D000010040409425FF1F9825FF1F3333B33E83
:1013E0003425FF1F00002041FFFF9FC00000A0C068
:1013F000AC25FF1FE024FF1FCDCC4CBECDCC4C3E16
:101400009A9919BEFC24FF1FF824FF1F80B5012202
:101410000121222000F08EFE01220121232000F074
:1014200089FE00F039F900F05EF901BD70B50400E5
:101430000D00160000F038F864002000C0B200F083
:10144000AAF82800C0B200F0A6F83000C0B200F040
:10145000A2F800F050F870BD38B504000D0000F09F
:1014600023F86000C0B200F096F82800C0B200F087
:1014700092F800F019F8E4B26400641C2000C0B2D5
:1014800000F089F800F0B9F8040000F054F800F01A
:10149000B4F8050000F067F800F02DF8E4B224027B
:1014A00054FA85F000B232BD38B5012068490860B1
:1014B0000F2000F0D5F80F2000F0D2F8654C012085
:1014C0002060654D012028600F2000F0C9F80F2032
:1014D00000F0C6F8002020600F2000F0C1F80F20B7
:1014E00000F0BEF8002028600F2000F0B9F80F20AF
:1014F00000F0B6F831BD38B5564C00202060564D8E
:10150000002028600F2000F0ABF80F2000F0A8F8B2
:10151000012028600F2000F0A3F80F2000F0A0F8B1
:10152000012020600F2000F09BF80F2000F098F8B9
:101530000020286031BD10B5474C002020600F20EE
:1015400000F08EF80020434908600F2000F088F872
:10155000012020600F2000F083F8002020600F2081
:1015600000F07EF810BD10B53B4C002020600F202D
:1015700000F076F80120374908600F2000F070F87D
:10158000012020600F2000F06BF8002020600F2069
:1015900000F066F810BD70B50400082514E00020C6
:1015A0002C49086007E02C4E002030602006F6D55C
:1015B00001202849086064000F2000F051F8012044
:1015C00030600F2000F04CF82800451EC0B2002803
:1015D000E9D1214C002020600F2000F041F80120CB
:1015E0001E4908600F2000F03BF8012020600F200A
:1015F00000F036F80020206070BDF8B50824002502
:10160000012014490860124E0020306011E06D0086
:10161000114F002038600F2000F022F801203860C0
:101620000F2000F01DF80D480068002801D055F08B
:1016300001052000441EC0B20028E8D1012030601E
:101640000020054908602800C0B2F2BD000000007B
:101650008C0AFE430C08FE430808FE430C0AFE43B6
:1016600000E0401E010089B20029FAD1704780B520
:1016700005211C20FFF7F0FE00B202BD80B51F213E
:101680006820FFF7E9FE00B202BD80B51D21682089
:10169000FFF7E2FE00B202BD80B580223E21682045
:1016A000FFF7C4FE052001F0ABF8002215216820E9
:1016B000FFF7BCFE052001F0A3F8112216216820D7
:1016C000FFF7B4FE052001F09BF8002217216820E7
:1016D000FFF7ACFE052001F093F800223E216820C0
:1016E000FFF7A4FE01BD80B501220E211C20FFF7EB
:1016F0009DFE052001F084F810220F211C20FFF729
:1017000095FE052001F07CF801222A211C20FFF71C
:101710008DFE052001F074F801BD30B4002513E002
:1017200050F8042BD30744BFA9F101039A18091FED
:10173000042942F8045BFAD213468C0744BF158093
:101740009B1CC90748BF1D7050F8041B0029E7D136
:1017500030BC704790EA010F40F1AE8081F000414B
:10176000421A3CBF801A89184FF0004CC0F3C75290
:10177000FF2A24D0C1F3C75313B3D21AD2F11903ED
:1017800027DD4CEA01214CFA03F321EA0303D1409F
:10179000C20D4CEA0020401834BF20EA0C004CEA8D
:1017A0005000D20553EA006373EB0C0C52EB10208F
:1017B000420012F1807F38BF7047C00DC0057047EE
:1017C000490212BF9A4200EB5120F8E7D2F1170309
:1017D000D9D57047FF2212EAD05C1DBF12EAD1535F
:1017E000944593422BE09C44D30780EA01021A40BF
:1017F00043EA002043EA0121A1FB0030C04238BF88
:1018000040007CF17F010BDBFE294ADA5B0842EAEB
:10181000C15153EA006373F1004C51EB1020704743
:10182000D1F1080CDCF120012FDB5B0810FA01F18B
:101830000B4320FA0CF073F100415041704794457E
:101840001CBF02EAD153934280EA010202F0004237
:101850001DD0400019D0490017D05BB9634514D0A2
:101860000902B1FA81F39940BCEB030CC00140F0CE
:101870000040C1E70002B0FA80FC10FA0CF0B3EBB4
:101880000C0CC90141F00041B6E710007047400060
:101890000AD0490008D010F1807F94BF11F1807FF9
:1018A00002E042F0FF407047D043704790EA010FDA
:1018B0007FF556AF81F00041431A4FF000423EBF22
:1018C0005340C01AC91800BFD3095FEAD05C13EBBC
:1018D000400F34BFB3EB410F40E07CEBD1530CD34E
:1018E00042EA012122D8D1EB402009D3400A28BF87
:1018F0005FEA500140EBCC507047401A15D04002CF
:10190000B0FA80F2521C9040400A4FEA3C23B3EBFD
:10191000026384BF00EB730007E040F400001A1676
:10192000DB07C2F10102D04018437047182BFCDCE2
:1019300031FA03F202FA03F3591A38BF42F00102F6
:10194000D2EB40203CBF4000ACF1010C5FEACC5C24
:10195000C20572F100414CEB5020704713EB400F71
:101960000FD2C94209D0ACEBD153022B03DB4902A1
:10197000172BDDDD70479143401AC042D5D10020BE
:10198000704713EB410FD0D36FF000007047000198
:1019900010B5FF2313EAD0541DBF13EAD1529C4265
:1019A0009A4239E0A41ADA0780EA0103134042EAB6
:1019B000012142EA0020421A3CBF641E01EB4202B0
:1019C000090AB2FBF1FE01FB1E221202B2FBF1F08A
:1019D00001FB10226EF30F201202B2FBF1FE4EEA61
:1019E00000207F3406DDFE2C24DA53EA500050EB51
:1019F000C45010BDD4F1020401FB1E2240F08071DE
:101A0000192C1DDC21FA04F0C4F12004A14011437B
:101A100071F10042584110BD9C421ABF03EAD152F5
:101A20009A420FE080EA010E0EF00043400004D01D
:101A3000490016D143F0FF4010BD490008BFD34311
:101A4000180010BD9C4205D1D21AF7D001F0004118
:101A5000484010BD4A0212BF0846484000F000400E
:101A600010BD4AB90902B1FA81F2914044B1A418FB
:101A7000C00140F000409EE7C90141F000415242E0
:101A80000002B0FA80F4A040141B94E7C11768B1BB
:101A90004840401AB0FA80F29040D21CC907C2F503
:101AA000846241EA025202EBD021400570470000F7
:101AB000B0B581EA030C0CF0004C40F2FF7515EA5A
:101AC00011541DBF15EA1357AC42AF4239E0E41977
:101AD00023EA455343F48013C90241F0004141EA2F
:101AE000505EC7021100A7FB020200284FF0000061
:101AF000EEFB01204FF00001E3FB072118BF42F08D
:101B00000102401800214941E3FB0E01A4F5806465
:101B10000F0302D252004041494154F101046CDDEF
:101B2000470872F1004250F1000051EB0451A1F559
:101B300080115CBF41EA0C01B0BD4CEA05510020A8
:101B4000B0BD05EA1357AC4214BFAF4241E050EAC2
:101B5000410E1CBF52EA430E02E061460020B0BDB8
:101B600024423C441BD15FEA070EF6D0090302BFB2
:101B700001460020AEF1140EB1FA81F7AEEB070476
:101B800001FA07FE0C37C7F1200100FA07F7C84039
:101B90004EEA000E23EA455343F48013A2E733F0E4
:101BA0000043B3FA83F704BFB2FA82FE77440B3FD7
:101BB000E41BB7F1200E2FBF02FA0EF3BB40C7F1B2
:101BC000200E22FA0EFE38BF43EA0E03BA40641C10
:101BD00082E750EA410E14BF52EA430E6FF0000153
:101BE0004FF4001717EB430F8ABF194617EB410F4D
:101BF000B5E74CEA05510020B0BDD4F10104B4F1C1
:101C000020070FDAC4F12007520828BF42F0010272
:101C100010FA07F501FA07F7E1BF2A43E04038431D
:101C2000E1400FE0352C98DCC7F1200452EA400275
:101C300020FA07F218BF42F0010231FA07F0A14082
:101C40000A43002172F1004250F1000051EB0C01F7
:101C5000B0BD0000F0B540F2FF7581EA030C0CF056
:101C6000004C15EA11541DBF15EA1357AC42AF42A0
:101C7000E5E0BC41C1F31301C3F31303801A99419A
:101C800043F4801304D2641E400049418018594136
:101C9000C90241EA5051B1FBF3F603FB1611A2FB56
:101CA0000675D7EBC020A94102D2761E8018594193
:101CB000C90241EA5051B1FBF3FE03FB1E11A2FB26
:101CC0000E75D7EBC020A94103D2AEF1010E8018EA
:101CD0005941890241EA9051760546EA8E2EB1FBC0
:101CE000F3F603FB1611A2FB0675D7EB8020A94182
:101CF00002D2761E80185941C90241EA50514EEA7B
:101D0000060EB1FBF3F603FB1611A2FB0675D7EB2B
:101D1000C020A94102D2761E80185941C90241EA69
:101D20005051B1FBF3F703FB1711A2FB0735D3EBBF
:101D3000C020A94167F100070CBF004247F001072E
:101D400066F3D5274FEA1E31B80814F5806412DD1A
:101D5000BD0775F1004250EB0E5051EB045111F5E7
:101D6000801F5CBF41EA0C01F0BD4CF07F6141F087
:101D7000E0410020F0BDBD076D0840EA0E5041F47F
:101D80008011D4F10104B4F120060ADAC4F120066E
:101D90000200E04001FA06F3E1401843B240154367
:101DA0000EE0342C13DCC6F1200445EA40056D0832
:101DB00020FA06F2154321FA06F0A1400D43002156
:101DC00075F1004250F1000051EB0C01F0BD002014
:101DD0005FEA0C01F0BDCFB992185B41B3FA83F70B
:101DE00004BFB2FA82F6BF190B3FB7F120062FBF2E
:101DF00002FA06F3BB40C7F1200622FA06F638BF06
:101E00003343BA401CB1E419641E33E77F4231F01A
:101E10000041B1FA81F404BFB0FA80F6A4190B3C7A
:101E2000B4F120062FBF00FA06F1A140C4F120064C
:101E300020FA06F638BF3143A0403C1B1AE7AC42FB
:101E40001ABF05EA1357AF4212E050EA41061CBF21
:101E500052EA4306BFE750EA4107304661461CBFDD
:101E600041EA0551F0BD52EA430C08BFC143F0BD41
:101E700000204FF4001616EB410F98BF16EB430FEE
:101E800008BF16EB410F24BFC14305E016EB430F1B
:101E90000CBF61464CEA0551F0BD0000C0F3C751CC
:101EA00081B1FF2906D0C110400721F0E04101F1C6
:101EB0006051704741020CBF40F4E0016FF00041F7
:101EC0000020704700F0004100020AD0B0FA80FC08
:101ED00000FA0CF001F16051A1EB0C5101EBD021A3
:101EE0004005704770B44FF0004591EA030F40F190
:101EF00093846B40841A71EB030604D26E40001B7E
:101F0000B141121973414FF4001C1CEB410F34BF57
:101F10007CEB430683E00C0DA4EB1356362E00F346
:101F20007C80012E45EAC32341DC43EA525312BFB1
:101F3000D20292025B08240545EAC12141EA5051D0
:101F4000D2EBC020994125D407D1B0FA80F610FA1F
:101F500006F162D00020203608E0B1FA81F6B140E7
:101F6000C6F1200220FA02F21143B0404FEAF474A5
:101F7000B4EB465434F001064FEA74040AD8D6F59F
:101F80000016760D04F00044F04061FA06F250406D
:101F9000F1404840C00A40EA415021F0004128BFCA
:101FA0005FEA500550F1000044EBD12135E0DB0A37
:101FB00045EAC121C90AB6F120050EDD42EA024216
:101FC000120CC5F1200603FA06F6EB4042EA0605BC
:101FD0006D42984161F100010DE062FA06F5F240B0
:101FE000554063FA06FC82EA0C02F3405A406D4207
:101FF000904161EB030111F4801F05D1641E62055D
:1020000002D06D004041494121F48011430875F12F
:10201000004350F1000041EB045170BC70471CEBD1
:10202000410F15D223F0004352EA43060BD04FEA8A
:102030004C0CBCEB410F04D80C0D661E342EB7DDE2
:10204000EBE7801A994150EA410608BF0021E4E716
:1020500008BF1CEB430F28BF6FF00001DDE7000055
:1020600001F000428B1AA3F16051B1F5801F0ADB29
:10207000B1F17F6F1FD242EAC102C10071F100418C
:1020800042EB507070470B15C3F10903212B10D29E
:10209000890241EA905180020128494141F0004102
:1020A00021FA03F0C3F12003994071F1004150413E
:1020B0007047100070476FF0000013EB103F5CBFDB
:1020C000000E42EAC0507047C2175040801AB0FA62
:1020D00080F10AD08840D1F19D01D20742EAC15176
:1020E000020672F1004241EB102070474FF0807CF5
:1020F0001CEB400F94BF1CEB410F05E040EA010CC4
:102100001CEB0C0F01D28142704718BF8842704708
:102110004FF0807C1CEB400F94BF1CEB410F05E09F
:1021200040EA010C1CEB0C0F01D28842704718BF2B
:102130008142704770B504000E0015004FF48071A5
:102140002000C0B200F0D2FBF6B2002E14D14248FB
:102150002100C9B2491150F821102200D2B2521107
:1021600050F822004069012214F01F0412FA04F40E
:1021700030EA04044C6135E00121374A2000C0B246
:10218000401152F820002300DBB25B1152F82330DB
:102190005B6914F01F0611FA06F633434361EDB292
:1021A000002D10D12000C0B2401152F82000036869
:1021B00014F01F00814033EA0101E4B2641152F8C7
:1021C000240001600EE02000C0B2401152F820004F
:1021D000036814F01F0081401943E4B2641152F8FF
:1021E0002400016070BD10B4C9B2002911D11A4A8F
:1021F0000100C9B2491152F821100B68012410F0F6
:102200001F018C40A343C0B2401152F8200003606C
:1022100010E0114A0100C9B2491152F821100B68AF
:10222000012410F01F018C402343C0B2401152F82A
:102230002000036010BC7047010007480A00D2B2BA
:10224000521150F82200006911F01F01C84010F02F
:1022500001007047000000007005FF1FC0F3C75168
:102260007E390EDDC217D1F1200106DD000240F0FB
:102270000040C840104450407047D04380F00040B8
:10228000704700207047000080B50100C9B24909BD
:10229000C9B2002902D001290DD018E098490A6876
:1022A00052F000620A6097490A6832F090020A60B0
:1022B0000A680A600BE094490A6852F000620A60FA
:1022C00090490A6832F410420A600A680A60C0B293
:1022D000002800F08980012800F08680032800F0A3
:1022E000838008284ED0092851D00A2854D00B28C2
:1022F00057D00C285AD00D285DD00E2860D00F285A
:1023000063D0102870D0112864D0122867D0132809
:102310006AD0142868D01A2866D01D2864D01E28D8
:1023200062D0202861D021285FD023285DD02428C6
:102330005CD025285FD0262862D0272865D02828A1
:1023400068D029286BD02A286ED02B2871D02C2851
:1023500074D02D2877D02E287AD02F287DD0302801
:1023600000F0858031287DD0322800F0808033282D
:102370007DD034287BD03A2879D03D2877D03E28AC
:1023800075D075E00021202000F0B0FA70E0002147
:10239000212000F0ABFA6BE00021072000F0A6FA44
:1023A00066E00021082000F0A1FA61E0002122206F
:1023B00000F09CFA5CE00021232000F097FA57E03F
:1023C0000021402000F092FA52E00021412000F06C
:1023D0008DFA4DE00021982000F088FA48E00021B5
:1023E000992000F083FA43E042E041E000218020A0
:1023F00000F07CFA3CE00021812000F077FA37E021
:102400000021822000F072FA32E00021832000F0E7
:102410006DFA2DE00021202000F068FA28E000216C
:10242000212000F063FA23E00021242000F05EFA6E
:102430001EE00021252000F059FA19E00021262095
:1024400000F054FA14E00021272000F04FFA0FE0CA
:1024500000212A2000F04AFA0AE000212B2000F097
:1024600045FA05E00021112000F040FA00E0FFE706
:1024700001BD10B50400E4B264090022C9B2C0B2C3
:1024800000F01AF821492000C0B251F8200000687D
:102490000006F7D52000C0B251F8200000692200E4
:1024A000D2B251F82220126832F08002E4B251F820
:1024B00024100A6080B210BD10B40200D2B25209DA
:1024C00010F01F00114BC9B2890011F00C0151F03E
:1024D00050011400E4B253F82440A1600421140018
:1024E000E4B253F82440E160C0B210F01F0050F095
:1024F0004000D2B253F82210086010BC70470000B0
:102500003C80044018800440308004405C05FF1F7C
:1025100080B5C0B2002803D0022860D046D377E04F
:10252000DFF87C02026852F080720260C9B20029B2
:102530000BD0022915D00ED304291ED017D306299B
:1025400027D020D307292AD02FE04FF480614120E3
:1025500000F0CCF95CE04FF48061422000F0C6F955
:10256000F8E74FF48061432000F0C0F9F2E74FF440
:102570008061442000F0BAF9ECE74FF480616420F8
:1025800000F0B4F9E6E74FF48061652000F0AEF9A1
:10259000E0E74FF48061662000F0A8F9DAE74FF435
:1025A0008061672000F0A2F9D4E731E0DFF8F001A4
:1025B000026852F000720260C9B2002902D00129FB
:1025C00006D00BE04FF440710C2000F08FF91FE0B3
:1025D0004FF440710D2000F089F9F8E718E0DFF8BA
:1025E000C401026852F080720260C9B2002902D0B0
:1025F000012906D00BE04FF440710A2000F076F973
:1026000006E04FF440710B2000F070F9F8E7FFE7A7
:1026100001BD2DE9F04104000D0090461F00290086
:10262000C9B22000C0B2FFF773FFDFF87C01016878
:102630004FF47A7041430800000CB0FBF8F2002020
:1026400000E0401C13009BB20341012BF9DAC140AA
:10265000B1FBF8F12200D2B2002A03D0022A13D033
:1026600009D31AE00A0092B2521C574342F2107288
:10267000B7FBF2F611E00A0092B2521C57434FF436
:102680007A72B7FBF2F608E00A0092B2521C574386
:102690004FF47A72B7FBF2F6FFE7DFF81021230060
:1026A000DBB252F823302F00FFB203EBC703270041
:1026B000FFB252F82770AC465FFA8CFC07EBCC07F0
:1026C000FF6837F00407DF602300DBB252F82330E5
:1026D0002F00FFB203EBC7032827DF60C0B210F062
:1026E000070050F008002300DBB252F823301860D6
:1026F00089B22000C0B252F8200081600020210081
:10270000C9B252F82110C8642000C0B252F82000AB
:10271000EDB200EBC500B6B206610020E4B252F89B
:1027200024104860BDE8F08170B403000020180058
:10273000C0B2002803D0022803D001D302E001E098
:1027400000E0FFE7194D1800C0B255F8200080687E
:102750000028F7D01E00F6B2002E03D0022E0FD0B4
:1027600007D314E0401C424342F21070B2FBF0F475
:102770000DE0401C42434FF47A70B2FBF0F406E0E7
:10278000401C42434FF47A70B2FBF0F4FFE7DBB237
:1027900055F82300C9B200EBC100046170BC70475A
:1027A0003C800440308004402428FF1F6405FF1F44
:1027B00010B40F490A6852F080720A600D490A6825
:1027C00052F001020A600C4A13680C4909684FF480
:1027D0007A7491FBF4F14843C018984202D2116810
:1027E0008842FCD311688142FCD310BC70470000C2
:1027F000FCED00E0001000E0041000E01C28FF1FCA
:1028000010B5040003E04FF47A70FFF7D1FF200009
:10281000441E0028F7D110BD841A71EB030603D2C1
:10282000001BB141121973414FF4001C1CEB410F06
:1028300034BF7CEB430442E00C0DA4EB1356352E61
:102840004FDC45EAC323DB0A45EAC121C912B6F1D0
:1028500020050DDD63FA05F6EB4086EA030512421A
:1028600018BF45F00105C01851F100010CD213E06A
:1028700062FA06F5F2405540F3415A40B340F34046
:102880005A408018594107D349085FEA30005FEA8F
:10289000350528BF45F0010501F58011420875F1A5
:1028A000004250F1000041EB04514E0016F5001FAC
:1028B00070BC38BF70470020090D090570471CEB3C
:1028C000410F10D252EA43060BD0BCEB410F05D8A2
:1028D0000C0DAB43661E342EB6DD02E0AB43801810
:1028E000594170BC704770BC7047000030B42A4B2F
:1028F0001C684FF400750200D2B2520995402C4377
:102900001C60264B0200D2B2521153F8224001251E
:1029100010F01F029540C4F8A0500200D2B252112C
:1029200053F82220C0B210F01F0042F8201030BC33
:10293000704730B4184B1C684FF400750200D2B2D7
:10294000520995402C431C60144B0200D2B2521124
:1029500053F82240012510F01F029540C4F8A05002
:1029600031F4E0610200D2B2521153F82220040087
:10297000E4B214F01F0452F8242012F4E062114370
:102980000200D2B2521153F82220C0B210F01F0040
:1029900042F8201030BC704738800440CC05FF1F3F
:1029A00010B5DFF8DC49DFF8DC0900682060DFF8EB
:1029B000D80900686060DFF8D4090068A060DFF81B
:1029C000D0090068E060DFF8CC0900682061DFF81A
:1029D000C80901686161DFF8C4190968A161DFF8FD
:1029E000C0190968E161DFF8BC1989692162DFF863
:1029F000B81989696162DFF8B4198969A162006850
:102A0000E063DFF8980A0068FFF75EFB206410BD02
:102A1000DFF89019DFF8980902680A6042688A6056
:102A200082680A61DFF88019C2680A6002698A60F8
:102A3000DFF8781942690A6082690A61C169DFF8C2
:102A400074291160DFF8581A026A0A60406A086146
:102A50007047000070B5DFF860492078022856DA28
:102A6000DFF8585901212E20FFF703FD00F088FD03
:102A700028602868FFF712FA5FF06632DFF8403905
:102A8000FFF716F80022DFF83C39FFF7E3F8DFF82C
:102A90003829DFF83839FFF70BF8FFF7E1FA28603B
:102AA000DFF82C290021002000F073FF02232A68A0
:102AB0000021302001F0D7F80523DFF81809DFF8EE
:102AC0001819097850F821200021482001F0CBF88E
:102AD000DFF8D009007807280BD1DFF8CC590120A6
:102AE000287070A20021742000F053FF002028708D
:102AF00004E06CA20021742000F04BFF07217A2033
:102B000000F0DAFD20783030C0B200F08CFF207881
:102B1000002860D100243AE00523DFF89408210062
:102B2000C9B250F82120611CC9B2482001F09BF8BD
:102B300027E0DFF878192200D2B20C2042430A4481
:102B4000611CC9B2002000F024FF20002978C0B227
:102B50008842E1D1DFF8580900780028DCD0DFF89E
:102B60004859012028700523DFF844082100C9B224
:102B700050F82120611CC9B2482001F074F80020EF
:102B80002870611CC9B2742000F096FD641C2000FE
:102B9000C0B2072880F2E081DFF8085920002978C8
:102BA000C0B28842C5D1DFF8080900780028C0D13A
:102BB000DFF8F46801203070DFF8F0182200D2B29C
:102BC0000C2042430A44611CC9B2002000F0E1FE1F
:102BD00000203070B9E72078012865D100243CE05E
:102BE0000523DFF8CC072100C9B200EB8100C269E0
:102BF000611CC9B2482001F036F828E0DFF8B418AB
:102C00002200D2B20C2042430A44611CC9B2002007
:102C100000F0BFFE20002978C0B28842E0D1DFF882
:102C2000900800780028DBD0DFF87C58012028705D
:102C30000523DFF87C072100C9B200EB8100C269DF
:102C4000611CC9B2482001F00EF800202870611CF8
:102C5000C9B2742000F030FD641C2000C0B2072807
:102C600080F27A81DFF83C5820002978C0B288428F
:102C7000C4D1DFF83C0800780028BFD1DFF828680D
:102C800001203070DFF82C182200D2B20C20424311
:102C90000A44611CC9B2002000F07BFE00203070A5
:102CA000B8E700BF454500002078022840F07F804B
:102CB000DFF804280021002000F06BFE0323DFF87A
:102CC000C80602680021482000F0CDFFDFF8EC279D
:102CD0000121002000F05DFE0323DFF8B00602684A
:102CE0000121482000F0BFFFDFF8D4270221002097
:102CF00000F04FFE0323DFF8A806026802214820F7
:102D000000F0B1FFDFF8BC270321002000F041FEF6
:102D10000423DFF8B40702680321482000F0A3FF72
:102D2000DFF8A8270421002000F033FE0423DFF899
:102D3000680602680421482000F095FFDFF890271C
:102D40000521002000F025FE04231C00DFF8840785
:102D50000068FFF7B9F9020023000521482000F0C0
:102D600082FFDFF874270621002000F012FE042302
:102D70001C00DFF828070068FFF7A6F9020023000F
:102D80000621482000F06FFFDFF8502707210020C0
:102D900000F0FFFD0323DFF84807027807214820F1
:102DA00000F0B6FE0020DFF800170870D4E02078AD
:102DB000032822D100F095FC0423DFF8D405026833
:102DC0000221542000F04FFF0423DFF8D0050268F1
:102DD0000421542000F047FF0423DFF8D005826966
:102DE0000521542000F03FFF0423DFF8F8060268B5
:102DF0000621542000F037FFAEE02078042840F090
:102E0000A280DFF8E4260021002000F0C2FDDFF8F8
:102E1000DC0602680021192000F02CFEDFF8D02625
:102E20000021402000F0B5FDDFF8C806026800214F
:102E3000592000F01FFEDFF8C0260121002000F01D
:102E4000A8FD0323DFF8B40602680121232000F067
:102E50005FFEDFF8AC260121402000F09AFD03233D
:102E6000DFF8A00602680121632000F051FEDFF8C0
:102E700098260221002000F08CFD0323DFF88C0649
:102E800002780221402000F043FEDFF8842603216F
:102E9000002000F07EFD0523DFF80C058269032188
:102EA000402000F0E0FEDFF86C260421002000F056
:102EB00070FD0523DFF8600602680421192000F088
:102EC000D2FEDFF858260421462000F062FD0323DD
:102ED0001C00DFF84C060068FFF7C0F90200230071
:102EE0000421632000F014FEDFF8382605210020BD
:102EF00000F04FFD0523DFF8A80582690521402079
:102F000000F0B1FEDFF820260621002000F041FD90
:102F10000523DFF8180602680621402000F0A3FE12
:102F2000DFF80C260721002000F033FD0523DFF831
:102F3000040602680721402000F095FE0020DFF81B
:102F40006815087008E02078052805D1DFF8E82525
:102F50000021002000F01DFD70BD70B59A20FFF724
:102F60006BF9002826D100213420FFF73CF91E2000
:102F7000FFF746FC01213420FFF735F99A20FFF7CF
:102F80005BF900280ED1DFF8B4452078002804D181
:102F900000F07CFC0120207004E000202070002064
:102FA00000F029FC9A20FFF747F90028FAD01E20EC
:102FB000FFF726FC1120FFF73FF9002869D1002117
:102FC0003420FFF710F91E20FFF71AFC01213420EE
:102FD000FFF709F91120FFF72FF9002821D1DFF8B9
:102FE0005C05007800281CD0DFF8B844207807285A
:102FF00004D100F095FF0020207045E0DFF8B01408
:10300000087800280AD1DFF8B0030278012A02D03C
:103010000078002802D10120087035E000200870F7
:1030200032E0DFF81C050178012927D14FF47A71CD
:10303000DFF8102511600121DFF80C251170002147
:1030400001700020DFF8041508600020DFF800158B
:1030500008600020DFF8FC1408600020DFF8481347
:1030600088610020DFF8601408600020DFF8281372
:1030700008600020DFF8E014086005E0012101701D
:103080000120DFF8D81408701120FFF7D5F80028C8
:10309000FAD03020FFF7D0F800283CD1DFF89C04AC
:1030A0000078002837D000213420FFF79CF81E203C
:1030B000FFF7A6FB01213420FFF795F83020FFF73A
:1030C000BBF8002822D1DFF8E803007800280BD0F5
:1030D000DFF804030178052902D10521017015E00C
:1030E0000178491C017011E00020DFF8B813087066
:1030F000DFF8C4120878002802D10520087002E029
:103100000878401E0870002000F075FB3020FFF7A3
:1031100093F80028FAD02920FFF78EF800283BD139
:10312000DFF818040078002836D000213420FFF79B
:103130005AF81E20FFF764FB01213420FFF753F8F3
:103140002920FFF779F8002821D1DFF864030078FF
:1031500000280BD0DFF880120878002802D1002068
:10316000087014E00878401E087010E00020DFF8B6
:103170003413087090480178052902D100210170AC
:1031800002E00178491C0170002000F034FB292086
:10319000FFF752F80028FAD03120FFF74DF8002849
:1031A0005DD1DFF898030078002858D00021342042
:1031B000FFF719F81E20FFF723FB01213420FFF74A
:1031C00012F83120FFF738F8002843D1DFF8E00289
:1031D000007800280DD1DFF8CC120878002804D13F
:1031E000DFF87C030078087034E00878401E08702F
:1031F00030E0714C2078002812D1DFF8A8522878EE
:1032000007280DDA6A4E287856F820107148724A5D
:10321000127850F82200FEF749FB297846F8210081
:103220002078012814D1DFF87C02017807290FDA11
:103230005F49027801EB8204007801EB8000C169EC
:103240006448654A127850F82200FEF72FFBE061CF
:10325000FFF7DEFB3120FEF7EFFF0028FAD0102049
:10326000FEF7EAFF00285AD1DFF8D00200780028E4
:1032700055D000213420FEF7B6FF1E20FFF7C0FA1C
:1032800001213420FEF7AFFF1020FEF7D5FF002804
:1032900040D18748007800280DD182480178DFF8B6
:1032A000C0221278914202D10021017032E00178EF
:1032B000491C01702EE0404C2078002811D1794D36
:1032C000287807280DDA3A4E287856F82000414928
:1032D000414A127851F82210FEF73CFA297846F854
:1032E00021002078012813D16E48017807290FDAD0
:1032F0002F49027801EB8204007801EB8000C0695D
:103300003449354A127851F82210FEF723FAE06169
:10331000FFF77EFB1020FEF78FFF0028FAD070BD6C
:103320007CB5002100230E2100221EE01C00E4B227
:10333000045D8DF800405B1C1C00E4B2045D8DF858
:1033400001405B1C1C00E4B2045D8DF802405B1C74
:103350001C00E4B2045D8DF803405B1C009C144D1E
:103360001600F6B245F82640521C14000D00E4B2D7
:10337000EDB2AC42DAD3FFF74BFB73BD00000000A7
:103380009026FF1FC424FF1FCC24FF1FC824FF1F4B
:10339000F424FF1FF024FF1F2027FF1FEC24FF1F32
:1033A000E024FF1F1825FF1F3425FF1F5025FF1F96
:1033B000E026FF1F7804FF1F0306FF1F1C27FF1FC7
:1033C00066660A400000B040F6285C8FC2F50840EF
:1033D000706200009C04FF1F0506FF1F10B500204F
:1033E00000F074FF012803D15E49002000F060FF67
:1033F0005D4C207800281DD05C480178382908DA17
:10340000584909785A4A0378D1540178491C017007
:1034100010E000210170002020705248007802283E
:1034200008D15348FFF77CFF012052490870012062
:103430005149087051494878552828D10878AA2858
:1034400025D14848007801280AD020D3032816D077
:1034500010D3052818D016D3072817D015D316E097
:10346000444A1078002801D1012010700120424AFE
:1034700010700CE000203D4A1070012020700120E7
:103480003D4A107003E002E001E000E0FFE7087849
:10349000487034480078087010BD0000A825FF1F50
:1034A0006C25FF1F0406FF1F4F28FF1FB404FF1FDA
:1034B0004328FF1F0805FF1F7C6200008862000090
:1034C00094620000A0620000E824FF1FE862000090
:1034D000F06200009425FF1FF8620000AC6200005B
:1034E0000106FF1F9025FF1F00630000F824FF1F47
:1034F00008630000FC24FF1F106300000025FF1F6D
:10350000186300000425FF1FB86200003D28FF1F5C
:10351000C4620000206300000C25FF1F2863000028
:103520000825FF1FD0620000506200008825FF1FA1
:10353000606200008C25FF1F306300004428FF1FDD
:103540003F28FF1F2427FF1F3E28FF1FD424FF1FF3
:10355000D024FF1FD824FF1FE424FF1F4028FF1F93
:103560000206FF1F4728FF1F4928FF1F4828FF1F8B
:103570003427FF1F4528FF1F4628FF1F2827FF1F4E
:1035800000280AD0B0FA80F18840D1F19D01C90528
:10359000020672F1004241EB1020704738B504007A
:1035A000082501214C20FEF71EFE00BF00BF0021B0
:1035B0005220FEF718FE00BF00BF16E00021502089
:1035C000FEF711FE05E0E007F8D501215020FEF7D7
:1035D0000AFE01215220FEF706FE00BF00BF0021B7
:1035E0005220FEF700FEE4B264082800451EC0B277
:1035F0000028E8D131BD000070B505000C00082698
:1036000001214C20FEF7EFFD00BF00BF002152203A
:10361000FEF7E9FD00BF00BFE4B2002C1AD0EDB206
:10362000ED4317E000215020FEF7DDFD05E0280600
:10363000F8D501215020FEF7D6FD00BF00BF0121C3
:103640005220FEF7D0FD00BF00BF00215220FEF740
:10365000CAFD6D003000461EC0B20028E7D170BD23
:1036600038B50400082500214C20FEF7BCFD00BF42
:1036700000BF00215220FEF7B6FD00BF00BF15E0DD
:1036800000215020FEF7AFFD05E02006F8D501210E
:103690005020FEF7A8FD01215220FEF7A4FD00BF37
:1036A00000BF00215220FEF79EFD64002800451E49
:1036B000C0B20028E9D131BD10B50400B1F150000D
:1036C000C0B2FFF7CDFF2000C0B2000950F01000DB
:1036D000C0B2FFF7C5FF14F00F042000FFF7C0FFD2
:1036E00010BDF8B5ADF5965D002005E0DFF88C174C
:1036F000095C6A461154401CB0F5965FF6DB002168
:1037000037E0DFF87C270800C0B2105C00280CD03E
:103710006B460C00E4B250250800C0B2105C05FBFB
:10372000040403EB04000023437050236C460D0097
:10373000EDB20800C0B2104490F83C0003FB050550
:10374000002060550800C0B2104490F8780050285E
:103750000ED06C460D00EDB20800C0B2104490F8D7
:10376000780003FB050304EB0300002200F8022CA1
:10377000491C0800C0B23B28C3DB002400E0641CE5
:103780002000C0B2082832DAB4F15000C0B2FFF70E
:1037900067FF0020FFF764FF1020FFF761FF00259F
:1037A0001EE0521C082A17DA69462300DBB24FF4E8
:1037B0002076502707FB02F706FB037353FA85F3C5
:1037C000CB5CD2F107018B4053FA80F02100C9B2E3
:1037D0000729E6D1032AE4D1C0B2FFF7DFFE6D1C52
:1037E0002800C0B25028CADA00200022DAE70DF51E
:1037F000905D31B0F0BD70B5040000250AE00021F5
:103800002000C0B2FFF7F8FE761C3000C0B280285E
:10381000F5DB6D1C2800C0B208280CDAB5F15000A9
:10382000C0B2FFF71DFF0020FFF71AFF1020FFF7BF
:1038300017FF0026E9E770BD38B5002409E0002134
:103840000020FFF7D9FE6D1C2800C0B28028F6DBEF
:10385000641C2000C0B208280CDAB4F15000C0B2D9
:10386000FFF7FEFE0120FFF7FBFE1020FFF7F8FE3A
:103870000025E9E731BD06E043F2264211004A1E69
:103880000029FBD1401E0028F6D1704780B50022E8
:1038900001214E20FEF74EFC002201214C20FEF7B4
:1038A00049FC002201215220FEF744FC00220121A4
:1038B0005020FEF73FFC3220FFF7DDFF01215220B0
:1038C000FEF791FC00214E20FEF78DFC3220FFF721
:1038D000D2FF01214E20FEF786FCAE20FFF7C0FE8E
:1038E0000020FFF7BDFE1020FFF7BAFE4020FFF7D3
:1038F000B7FE8120FFF7B4FECF20FFF7B1FEA12075
:10390000FFF7AEFEC820FFF7ABFEA620FFF7A8FE2C
:10391000A820FFF7A5FE3F20FFF7A2FED320FFF768
:103920009FFE0020FFF79CFED520FFF799FE802028
:10393000FFF796FED920FFF793FEF120FFF790FEE8
:10394000DA20FFF78DFE1220FFF78AFEDB20FFF75B
:1039500087FE4020FFF784FE2020FFF781FE022033
:10396000FFF77EFE8D20FFF77BFE1420FFF778FE29
:10397000A420FFF775FEA620FFF772FEAF20FFF729
:103980006FFE0020FFF737FF00210020FFF794FEB5
:1039900001BD2DE9F04704000D00160000200020B5
:1039A0000027002016E05146C9B2DFF8D82443466C
:1039B000DBB20620434302EB03004A46D2B2805CEE
:1039C000FFF71AFE19F101094846C0B20628EADBE2
:1039D000A41D7F1C3800C0B2305C002821D0380004
:1039E000C0B2305CB0F12008DFF89C0400780028F9
:1039F00006D04046C0B2002802D05FF0010A01E0C4
:103A00005FF0000A2000C0B27F2801DB00246D1C9B
:103A10002900C9B22000C0B2FFF74EFE5FF00009D6
:103A2000D2E7BDE8F08770B5002100210024B0F195
:103A30002005DFF854040078002804D02800C0B224
:103A4000002800D0012400260FE02100C9B2DFF8D1
:103A500034242B00DBB20620434302EB0300320088
:103A6000D2B2805CFFF7C8FD761C3000C0B20628D9
:103A7000EBDB70BDF8B51400C9B2C0B2FFF71CFE95
:103A80000020002C04D52D20FFF7CDFF644202E07A
:103A90002B20FFF7C8FF42F2107094FBF0F042F2C7
:103AA000107194FBF1F201FB12414FF47A7291FB19
:103AB000F2F54FF47A7194FBF1F201FB12416422AA
:103AC00091FBF2F6642194FBF1F201FB12410A2210
:103AD00091FBF2F70A2194FBF1F201FB1244303022
:103AE000C0B2FFF7A0FF30352800C0B2FFF79BFF40
:103AF00030363000C0B2FFF796FF30373800C0B222
:103B0000FFF791FF30342000C0B2FFF78CFFF1BD0A
:103B10007FB516001C000125C9B2C0B2FFF7CCFD6D
:103B20000F2C00DB0F24012102E00A204543491C31
:103B3000A142FADB002E04D52D20FFF774FF764258
:103B400002E02B20FFF76FFF96FBF5F08DF80000E9
:103B500001200EE096FBF5F105FB11610A2295FBB1
:103B6000F2F291FBF2F16A4611540A2195FBF1F54C
:103B7000401C611E8842EDDB0A2096FBF0F100FB41
:103B800011666846204400F8016C002506E068468E
:103B9000405D3030C0B2FFF746FF6D1CA542F6DB3A
:103BA0007FBDF8B504000D002E20FFF73CFF4FF459
:103BB0007A70B4FBF0F04FF47A71B4FBF1F201FBD0
:103BC00012416422B1FBF2F66421B4FBF1F201FB75
:103BD00012410A22B1FBF2F70A21B4FBF1F201FB18
:103BE0001244EDB2012D06D039D3032D14D008D3E1
:103BF000042D21D033E030342000C0B2FFF713FF92
:103C00002DE030373800C0B2FFF70DFF3034200010
:103C1000C0B2FFF708FF22E030363000C0B2FFF735
:103C200002FF30373800C0B2FFF7FDFE303420000D
:103C3000C0B2FFF7F8FE12E03030C0B2FFF7F3FE7B
:103C400030363000C0B2FFF7EEFE30373800C0B279
:103C5000FFF7E9FE30342000C0B2FFF7E4FE202079
:103C6000FFF7E1FEF1BD2DE9F04707000D00914699
:103C70001C00062048460021FEF738FA09D24846C3
:103C8000FEF70CF9814A824BFEF72CF9FEF7E8F9B2
:103C900081462E00B8464846FEF7E0FA070048463F
:103CA000FEF7DCFAFEF710FA01004846FDF752FD78
:103CB0007849FDF78FFDFEF7D1FA05003100C9B252
:103CC0004046C0B2FFF7F8FC48467349FEF720FAB9
:103CD00002D22D20FFF7A7FE002F00D57F4242F22F
:103CE000107097FBF0F142F2107097FBF0F200FBBE
:103CF00012704FF47A7290FBF2F94FF47A7097FBDE
:103D0000F0F200FB1270642290FBF2F8642097FB43
:103D1000F0F200FB12700A2290FBF2F60A2297FBE7
:103D2000F2F002FB10770800C0B200281DD05FF04F
:103D3000050A30310800C0B2FFF775FE19F13009ED
:103D40004846C0B2FFF76FFE18F130084046C0B2D7
:103D5000FFF769FE30363000C0B2FFF764FE30373F
:103D60003800C0B2FFF75FFE4BE04846C0B2002803
:103D700018D05FF0040A19F130094846C0B2FFF7C5
:103D800052FE18F130084046C0B2FFF74CFE303604
:103D90003000C0B2FFF747FE30373800C0B2FFF73F
:103DA00042FE2EE04046C0B2002812D05FF0030A67
:103DB00018F130084046C0B2FFF735FE303630000B
:103DC000C0B2FFF730FE30373800C0B2FFF72BFE2D
:103DD00017E03000C0B200280CD05FF0020A303685
:103DE0003000C0B2FFF71FFE30373800C0B2FFF717
:103DF0001AFE06E05FF0010A30373800C0B2FFF764
:103E000012FE002D00D56D4221000A00D2B25046AC
:103E1000C0B2121A002A06D0022A12D007D3042AEE
:103E200022D018D328E02020FFF7FDFD24E0B1EBDD
:103E30000A01C9B242F2107095FBF0F0FFF7B1FE33
:103E40001AE0B1EB0A01C9B24FF47A7095FBF0F0B9
:103E5000FFF7A7FE10E0B1EB0A01C9B2642095FBA1
:103E6000F0F0FFF79EFE07E0B1EB0A01C9B20A20AD
:103E700095FBF0F0FFF795FEBDE8F0875011FF1FAE
:103E80001024FF1FC85800004F28FF1FF168E38867
:103E9000B5F8E43E0050C347ACC527B7DFF800F0E3
:103EA0002506FF1FDFF800F04706FF1FDFF800F0D0
:103EB000FF06FF1FDFF800F09F06FF1F38B5002543
:103EC000FFF7ECFF5FF4FF2004786420FEF798FC16
:103ED000E4B2AA2C08D0FF20FFF7E4FF00207649C7
:103EE000087000F01DF81AE0734A002010701F20BF
:103EF00000E0401E00280BD4402101FB00F111F529
:103F0000FF210978C9B2AA29F3D1401C10700125FC
:103F1000EDB2012D03D100F08FF8FEF779FD31BD30
:103F2000F0B58FB0002068463C2100F0FBF90F206F
:103F3000AA218DF80010604C22781023694692FB6C
:103F4000F3F503FB1522521C4A700225002224E0DF
:103F50005A4B1600F6B213F826602F00FFB2CE556A
:103F60006D1C1600F6B203EB860676782F00FFB2C2
:103F7000CE556D1C1600F6B203EB8606B6782F0000
:103F8000FFB2CE556D1C1600F6B203EB8603DB784C
:103F90002E00F6B28B556D1C521C13000600DBB2CE
:103FA000F6B2B342D4D3207820281FDA6B463C22E5
:103FB0002078402110FB01F189B2FF20FFF776FF46
:103FC00021784020414311F5FF210878C0B2AA288A
:103FD00008D0009A2078402110FB01F189B2FF201F
:103FE000FFF768FF2078401C207023E0FF20FFF7D8
:103FF00059FF002020706B463C222078402110FBA6
:1040000001F189B2FF20FFF751FF217840204143A1
:1040100011F5FF210878C0B2AA2808D0009A2078AC
:10402000402110FB01F189B2FF20FFF743FF207808
:10403000401C20700FB0F0BD7CB5002002210F2283
:10404000002330E01E4C1C4D2E784020464356FA8B
:1040500081F0201800788DF80000491C2E7840204F
:10406000464356FA81F0201800788DF80100491C6B
:104070002E784020464356FA81F0201800788DF8BB
:104080000200491C2D784020454355FA81F0241840
:1040900020788DF80300491C0098084C1D00EDB2F3
:1040A00044F825005B1C18001400C0B2E4B2A04222
:1040B000C8D3FEF7ADFC73BD4A28FF1FE026FF1FE3
:1040C000C0F70700012210F01F018A40DFF83C1200
:1040D00040B2400941F82020704738B504000D0077
:1040E0002000C0B2002808D0022828D016D3042807
:1040F00047D035D3052855D065E0DFF814020168B4
:1041000051F4806101604FF440710F20FEF7EEFB27
:104110004FF440710E20FEF7E9FB54E0DFF8F001A8
:10412000016851F4006101604FF440714320FEF7D3
:10413000DDFB4FF440714420FEF7D8FB43E0DFF88D
:10414000D001016851F4805101604FF44071632047
:10415000FEF7CCFB4FF440716220FEF7C7FB32E064
:10416000DFF8AC01016851F4005101604FF4407177
:104170005020FEF7BBFB4FF440715120FEF7B6FB19
:1041800021E0DFF89001016851F4806101604FF493
:1041900040714E20FEF7AAFB4FF440714F20FEF70E
:1041A000A5FB10E0DFF86C01016851F400610160CB
:1041B0004FF440718920FEF799FB4FF4407188203D
:1041C000FEF794FBFFE754492000C0B251F82000ED
:1041D000C07810F0F3002200D2B251F82220D07043
:1041E0002000C0B251F8200080782200D2B251F8ED
:1041F000222090702000C0B2002803D02000C0B25E
:10420000012805D1454803684FF47A70434304E020
:10421000434803684FF47A7043432801B3FBF0F23C
:10422000100080B2B0F5005F01DB41F6FF72B3FB16
:10423000F5F3100080B2B3EB00132000C0B251F8C8
:104240002000057815F0E005C2F3042005432000A6
:10425000C0B251F8200005702000C0B251F8200013
:1042600042702000C0B251F82000807A10F0E000C7
:1042700013F01F0303432000C0B251F820008372E3
:104280002000C0B251F82000007C50F088002200CD
:10429000D2B251F8222010742000C0B251F8200090
:1042A000C07850F00C00E4B251F82410C87031BD51
:1042B000194A0300DBB252F823301B799B06F7D56D
:1042C000C0B252F82000C079087070471249C0B2DD
:1042D00051F82000807D002801D0012000E000205E
:1042E000704780B50C490200D2B251F82220D27832
:1042F00052F020020300DBB251F82310CA70C0B2A2
:1043000040002D3040B2FFF7DDFE01BD00E100E0CE
:104310003480044028800440E005FF1F1C28FF1F54
:104320002428FF1F002200F001B8000000B500BFE4
:10433000130096469446103928BFA0E80C50FAD8CE
:104340005FEA417C28BF0CC048BF40F8042BC90776
:1043500028BF20F8022B48BF00F8012B00BD000049
:104360002DE9F043002000200020DFF86C1400202D
:104370000880DFF86C24002010800AE0FF20DFF8BE
:104380005C340C8818550888401C08801088401C34
:10439000108010883C2880F2B780DFF84834002075
:1043A0001880DFF8444410880A2510FB05F02080AF
:1043B0000025DFF838640020178826F81700002051
:1043C000178826F81700DFF828740020388040E0AE
:1043D000B4F800E0B7F8008018FA8EFE1CF80EE082
:1043E0005EFA00FE1EF0010EF0465FFA88F8B3F8A0
:1043F00000901FFA88F8C8451DD0DFF8F883B7F899
:1044000000905FEAC909A8F80090EDB2002D04D130
:104410000D88B2F8009026F81950B8F80050ED1D3C
:104420002D1ADFF8B883B1F8009008F809500D880C
:104430006D1C0D8001255FFA8EFEA3F800E0401E82
:1044400086460FFA8EFEBEF1000FC1D53888401C9B
:10445000388038880A2891DADFF89CC32088B7F8BA
:1044600000E01EFA80F01CF80000FF2820D1188818
:1044700000281AD1DFF87C03B7F800C05FEACC0C43
:10448000A0F800C0EDB2002D04D10D88B2F800C034
:1044900026F81C500088DFF84453B1F800C005F836
:1044A0000C000888401C0880012501201880CDE7F9
:1044B0002088B7F800E01EFA80F01CF80000002801
:1044C00020D1188801281AD1DFF82803B7F800C0D6
:1044D0005FEACC0CA0F800C0EDB2002D04D10D882D
:1044E000B2F800C026F81C500088DFF8F052B1F88E
:1044F00000C005F80C000888401C08800125002039
:104500001880A3E707209BE7BDE8F08338B586B0A5
:10451000002006E0002103AA03009BB222F813103A
:10452000401C010089B20529F4DB12215FE00A2357
:10453000B14C080080B2584310FA82F0205CC0B23F
:10454000C0090D00ADB25D4315FA82F5655DC5F396
:10455000801555FA80F5080080B2584310FA82F0B1
:10456000205CC0F340104519080080B2584310FA8F
:1045700082F0205CC0F300104519080080B2584357
:1045800010FA82F0205CC0F3C0004519080080B228
:10459000584310FA82F0205CC0F3800045190800EF
:1045A00080B2584310FA82F0205CC0F340004519F5
:1045B000080080B203FB00F313FA82F0205C10F0D5
:1045C0000100451903A80B009BB200EB430030F833
:1045D000280C2D1803A80B009BB200EB430020F819
:1045E000285C521C100080B23C28A0DB491C08004B
:1045F00080B2172801DA3222F4E7002006E0002119
:104600006A4603009BB222F81310401C010089B2D5
:104610000529F4DB12215FE00A23774C080080B201
:10462000584310FA82F0205CC0B2C0090D00ADB250
:104630005D4315FA82F5655DC5F3801555FA80F581
:10464000080080B2584310FA82F0205CC0F340109A
:104650004519080080B2584310FA82F0205CC0F37C
:1046600000104519080080B2584310FA82F0205C0F
:10467000C0F3C0004519080080B2584310FA82F018
:10468000205CC0F380004519080080B2584310FA3E
:1046900082F0205CC0F340004519080080B203FBA3
:1046A00000F313FA82F0205C10F00100451968460F
:1046B0000B009BB200EB430030F85A0C2D186846F3
:1046C0000B009BB200EB430020F85A5C521C100018
:1046D00080B24628A0DB491C080080B2172801DA06
:1046E0003C22F4E746480178002903D002294DD046
:1046F00036D35AE0BDF8001028292FDA69464A88D7
:10470000282A2BDA8A88282A28DACA88282A25DA49
:104710000989282922DABDF80C1028291EDA03A9F4
:104720004A88282A1ADA8A88282A17DACA88282A78
:1047300014DA0989282911DA304C2178012906D1A7
:104740000121017000F033F80020207003E0012106
:1047500021700221017000202A490860002024E015
:1047600028490A68521C0A600A6840F2F5139A4206
:1047700005DB0222027000200860002015E02248BC
:10478000224908602249086001200EE01D490A689C
:10479000521C0A600A6840F2D1739A4203DB00227D
:1047A0000270002008600020FFE707B030BD80B530
:1047B000FBF7FCFF08E0174814490860144908603B
:1047C000FCF76EFBFBF7F2FF134800680021FDF7D2
:1047D0008DFCF0D301BD00003028FF1FA00CFF1F8F
:1047E0003228FF1F3628FF1F3828FF1FA427FF1F6E
:1047F0003428FF1F3A28FF1F480AFF1F4B28FF1FBE
:104800005028FF1FA027FF1FCDCCCC3D8825FF1FC0
:104810008C25FF1F6666663FE024FF1FDFF800F06F
:10482000A907FF1FDFF8A8130200D2B231F8222037
:104830000100C9B2002900F07E81C0B2112880F2C7
:104840007A81DFF8900300210170110089B2652997
:1048500002DA002141707DE0110089B2C92902DA33
:104860000121417076E0110089B240F22D13994286
:1048700002DA022141706DE0110089B240F2911319
:10488000994202DA0321417064E0110089B240F2DA
:10489000F513994202DA042141705BE0110089B2FC
:1048A00040F25923994202DA0521417052E0110089
:1048B00089B240F2BD23994202DA0621417049E0F3
:1048C000110089B240F22133994202DA0721417086
:1048D00040E0110089B240F28533994202DA0821A2
:1048E000417037E0110089B240F2E933994202DAAF
:1048F000092141702EE0110089B240F24D439942E6
:1049000002DA0A21417025E0110089B240F2B14378
:10491000994202DA0B2141701CE0110089B240F289
:104920001553994202DA0C21417013E0110089B24B
:1049300040F27953994202DA0D2141700AE01100E8
:1049400089B240F2DD53994202DA0E21417001E052
:104950000F214170110089B21F2902DA00218170F4
:1049600071E0110089B23D2902DA012181706AE00B
:10497000110089B25B2902DA0221817063E0110023
:1049800089B2792902DA032181705CE0110089B2D1
:10499000972902DA0421817055E0110089B2B52906
:1049A00002DA052181704EE0110089B2D32902DAC2
:1049B0000621817047E0110089B2F12902DA07214E
:1049C000817040E0110089B240F20F13994202DA7F
:1049D0000821817037E0110089B240F22D1399420D
:1049E00002DA092181702EE0110089B240F24B13E6
:1049F000994202DA0A21817025E0110089B240F261
:104A00006913994202DA0B2181701CE0110089B20E
:104A100040F28713994202DA0C21817013E01100F1
:104A200089B240F2A513994202DA0D2181700AE0A1
:104A3000110089B240F2C313994202DA0E2181704B
:104A400001E00F218170110089B21F2902DA0021D3
:104A5000C17070E0110089B23D2902DA0121C170F4
:104A600069E0110089B25B2902DA0221C17062E0BB
:104A7000110089B2792902DA0321C1705BE01100CB
:104A800089B2972902DA0421C17054E0110089B279
:104A9000B52902DA0521C1704DE0110089B2D32990
:104AA00002DA0621C17046E0110089B2F12902DA6A
:104AB0000721C1703FE0110089B240F20F13994203
:104AC00002DA0821C17036E0110089B240F22D13DC
:104AD000994202DA0921C1702DE0110089B240F239
:104AE0004B13994202DA0A21C17024E0110089B205
:104AF00040F26913994202DA0B21C1701BE01100E8
:104B000089B240F28713994202DA0C21C17012E097
:104B1000110089B240F2A513994202DA0D21C17049
:104B200009E092B240F2C3118A4202DA0E21C1704A
:104B300001E00F21C170704770B504002000C0B2C1
:104B4000FFF770FE2448017811F0FD010170017833
:104B500051F010010170214DB8202870204E30789E
:104B6000C006FBD43078C0F381000228FAD119487E
:104B7000C378827841780078FFF750FE144821000E
:104B8000C9B200EB8101897811F01F01154A11703B
:104B90002100C9B200EB8101C97811F01F0151F069
:104BA0004001114A117031788906FCD531784906E7
:104BB000FCD5297811F03F0129703178C1F38101CA
:104BC0000329FAD1E4B230F82400C0B270BD00006D
:104BD0008405FF1FC805FF1F014006400040064036
:104BE000064006400440064005400640012210F001
:104BF0001F018A40DFF8801240B2400941F82020AE
:104C00007047020052B2002A09D50901DFF86C2270
:104C100040B210F00F00104400F8041C04E0090139
:104C2000DFF85C2240B21154704710B5FEF72EFE3B
:104C300000F072F900213420FDF7D5FA4620FDF787
:104C4000DFFD01213420FDF7CEFAAA20FDF7D8FDC3
:104C500000213420FDF7C7FA4620FDF7D1FD0121E0
:104C60003420FDF7C0FA00F09EF900F0A3F972B607
:104C70002E20FDF709FB2920FDF706FB2420FDF778
:104C800003FB2520FDF700FB2620FDF7FDFA27207A
:104C9000FDF7FAFA2820FDF7F7FA7A480068410094
:104CA000002000F0A9F97849542000F0DAF9FFF764
:104CB00005F900F053F8FCF7A9FB42F21074002349
:104CC000220000210020FDF7A4FC00232200012186
:104CD0000020FDF79EFC0023220002210020FDF7AA
:104CE00098FC0023220003210020FDF792FC00F035
:104CF0006FF801213420FDF776FAFEF79DFD634A37
:104D000000210020FEF745FE00F0BEF96049692051
:104D100000F0A7F95F49102000F0A3F95920FFF730
:104D200065FFFEF789FD5C493D2000F09AF90020FF
:104D3000FFF7D7FA4420FFF759FF02214420FFF77D
:104D400060FF01211020FFF75CFF00216920FFF7C1
:104D500058FF62B601205149087010BD70B4504828
:104D600050490160002181604F4C04614F49504A15
:104D70000A60504A8A60504A00231360002313617E
:104D80004E4B4F4D1D601C614E4C4F4D2C604F4C97
:104D90004F4D2C604F4C5FF0804525604E4D4F4E7F
:104DA00035604F4D06682E6086686E600069A860A9
:104DB0000868E86088682861106868611069A861FF
:104DC0002068E861186828621869686270BC7047DA
:104DD00080B54448016851F00071016042480168A3
:104DE00051F4007101604FF450704049086040492F
:104DF0000A6852F044020A600A6832F038020A6017
:104E00003C4908603C48016851F044010160016878
:104E100031F03801016008203849086038480168DD
:104E200051F0040101600021364A1160016849080F
:104E300049000160002034490860002033490860BF
:104E40000FF211014F2000F00CF93F20FFF7CEFECA
:104E500001BD00002D49086800220A60C10703D582
:104E60002B490A68521C0A60800703D5294801684B
:104E7000491C01607047000000E100E018ED00E00F
:104E800000E400E02428FF1F6B5F00003C6200008C
:104E9000E950000015510000DD3300004428FF1FD9
:104EA0001825FF1FEC51B83D27A0093B3425FF1FF3
:104EB0000AD7A33CFAEDEB3A5025FF1F6C25FF1FE4
:104EC00017B7513B0AD7A33B1025FF1F6F12033AB8
:104ED0001425FF1F7804FF1F0000A041DC24FF1FE2
:104EE000E026FF1F3C80044038800440309004409E
:104EF0000C90034034900440149003400090034011
:104F000054900340649003404C9003405090034001
:104F10009827FF1F9C27FF1F80B5012200219A20A0
:104F2000FDF708F903219A20FDF703FD0122002176
:104F30003020FDF7FFF803213020FDF7FAFC0122B5
:104F400000213120FDF7F6F803213120FDF7F1FCB7
:104F5000012200211020FDF7EDF803211020FDF7BC
:104F6000E8FC012200211120FDF7E4F803211120C3
:104F7000FDF7DFFC012200212920FDF7DBF80321EA
:104F80002920FDF7D6FC012201213420FDF7D2F8BB
:104F9000012200219820FDF7CDF80122002199205F
:104FA000FDF7C8F801BD80B5012201211320FDF7EE
:104FB000C1F801BD80B500211320FDF714F94FF4AD
:104FC0009670FDF71DFC01211320FDF70CF94FF43D
:104FD0009670FDF715FC00211320FDF704F94FF43E
:104FE0009670FDF70DFC01211320FDF7FCF84FF43E
:104FF0009670FDF705FC01BD154A136853F40003D4
:1050000013600022134B1A60134A491E0300DBB2DF
:105010001B01D1500100C9B209011144C96851F006
:1050200001010300DBB21B011344D9600100C9B2C6
:10503000090111448968490849000300DBB21B01DA
:10504000134499600321C0B200011044816070478D
:105050003C80044000700340007103400349086035
:105060007047034AC0B242F82010704708ED00E0D4
:105070000000FF1F012210F01F018A406E4940B25C
:10508000400941F82020704780B500F054F800280E
:10509000FBD000F002F8002002BDE0B50120029034
:1050A0004FF416700190002000904D23634A64492C
:1050B000002000F0E7F863480168490849000160F2
:1050C0006148016851F0010101600020FFF7D2FF43
:1050D0005E494D20FDF70AFC5D494F20FDF706FCB7
:1050E0005920FFF7C7FF07BD00205A4802685FF04C
:1050F000FF3101600F21CA40D1070AD54FF40041AA
:1051000001604E48544908604E48016851F0010161
:105110000160704710B54C48016851F00101016011
:1051200001204E4908704FF4167244494C4C20003F
:1051300000F0E6F910BD1CB5002000208DF800003D
:1051400000F032FA8021122000F00DFB002801D17E
:1051500000202AE00B220121684600F03DFB0028D8
:1051600001D1002021E09DF8000021281CD100245D
:1051700000E0641C20003B49097880B289B2884273
:1051800010D23948210089B200EB41014978220050
:1051900092B210F8120080B200F0E5FA0028E8D1CF
:1051A000002002E0012000E0002016BD38B403001A
:1051B0002E480088ADF8000038E00C78491C68469D
:1051C0002500EDB2ED11455D1D705B1C2500EDB2B3
:1051D000C5F38015455D1D705B1C2500EDB2C5F360
:1051E0004015455D1D705B1C2500EDB2C5F3001533
:1051F000455D1D705B1C2500EDB2C5F3C005455D26
:105200001D705B1C2500EDB2C5F38005455D1D706A
:105210005B1C2500EDB2C5F34005455D1D705B1CB0
:10522000E4B214F00104005D18705B1C1000421E13
:105230000028C2D131BC704700E100E0F007FF1F39
:10524000D0F00F400C80004024800040020102009A
:1052500012010A00A0B00440109000403C28FF1F3B
:10526000480AFF1F0006FF1F1004FF1F8E190000D1
:10527000012210F01F018A40964940B2400941F8CE
:10528000202070472DE9F047089F3C00E4B2002C35
:1052900001D101240CE03C00E4B2012C01D1022434
:1052A00006E03C00E4B2022C01D1042400E010240A
:1052B000DDF828C0DDF824E00D000600864801680E
:1052C00051F0020101608548016851F0020101605E
:1052D00083483100C9B2490145503100C9B2490182
:1052E00001440A6100213200D2B25201024491808D
:1052F0002100C9B23200D2B2520102449182390077
:10530000C9B2090211F4E0613A00D2B212F0070208
:1053100011433200D2B252010244D1807146490495
:10532000490C3200D2B252010244D1827146490482
:10533000490C3200D2B252010244D18369490A6851
:1053400032F080020A602100C9B23200D2B25201AA
:105350000244916000213200D2B252010244D16075
:105360005FEA8C6102D4DEF1000E01E05FF0000E16
:105370003100C9B249010144C1F818E00A213200E4
:10538000D2B25201104481831800C0B240093130BA
:1053900050F0800054493200D2B288544FF400716A
:1053A000524A10689E465FFA8EFE5FEA5E1E11FA50
:1053B0000EFE5EEA000010605FF00108DFF830E1E9
:1053C0001800C0B240115EF8200099465FFA89F9D2
:1053D0005FEA69195EF82990D9F8149013F01F0A52
:1053E00018FA0AFA39EA0A09C0F81490DFF80491A9
:1053F0001800C0B2401159F820009A465FFA8AFAA4
:105400001AF01F0A5FEA0C4C1CF4403C5CF4817CEF
:1054100040F82AC01800C0B2002801D0012000E0E6
:1054200000209C465FFA8CFC5FEA6C1C5EF82CC086
:10543000DBB25B115EF823305B6918FA00F033EAE7
:105440000000CCF8140010682B009B0913F0070330
:10545000994001431160FFB2002F03D0022F09D001
:1054600004D30BE00020291D08700BE00020291D4B
:10547000088007E00020291D086003E0A8211E48DD
:1054800000F01AFA2800103810F03F00E4B2E400EF
:1054900054FA80F10CE02A00920912F0070259F840
:1054A00022200300DBB24FF4817442F82340401CF9
:1054B00002000B00D2B2DBB29A42ECD30020FFF71D
:1054C000D7FE0E48016818FA06F631EA06060660AD
:1054D000BDE8F08700E100E0408004403C800440EB
:1054E00000900040008000400010024038800440DE
:1054F0007005FF1FCC05FF1F7C6100000C80004081
:1055000062B38B0708D0521E11F8013B00F8013B33
:1055100000F024808B07F6D1830740F0208000BF85
:10552000103A07D330B4B1E83810103AA0E8381078
:10553000F9D230BC530724BFB1E80810A0E8081026
:1055400044BF51F8043B40F8043BD20724BF31F874
:10555000022B20F8022B44BF0B7803707047121FF8
:1055600017D35B0009D151F8043B20F8023B1B0C18
:10557000121F20F8023BF6D20BE051F8043B00F872
:10558000013B1B0A20F8023B1B0C121F00F8013BD9
:10559000F3D238BF121D521E24BF11F8013B00F890
:1055A000013BF8D87047000080B501220121852019
:1055B000FCF7C0FD012201218420FCF7BBFD232163
:1055C0008520FDF7B6F923218420FDF7B2F901BD4E
:1055D00038B50120DFF8CC1208600120DFF8C812CE
:1055E0000860DFF8C8420120206000F051F9DFF8C0
:1055F000C0520120286000F04BF90020206000F02C
:1056000047F900202860012032BD10B50120DFF8E5
:10561000941208600120DFF890120860DFF88C42D5
:105620000020206000F034F90120DFF884120860C7
:1056300000F02EF90120206000F02AF910BD10B50D
:10564000DFF86C420020206000F022F90020DFF833
:105650005C12086000F01CF90120206000F018F9CD
:105660000020206000F014F910BD10B5DFF84042B2
:105670000020206000F00CF90120DFF830120860F3
:1056800000F006F90120206000F002F900202060FF
:1056900000F0FEF810BD38B5DFF81442002020609D
:1056A000DFF804520020286000F0F2F801202060AA
:1056B00000F0EEF8DFF8FC010068002805D00120BA
:1056C000286000202060002004E0012028600020E5
:1056D0002060012032BD70B50400082515E00020CF
:1056E000DFF8C811086005E02006F8D50120DFF8D2
:1056F000BC110860640000F0CBF8DFF8B461012051
:10570000306000F0C5F8002030602800451EC0B2AF
:105710000028E9D170BDF8B508240026DFF88851CB
:105720000020286011E07600DFF8847100203860E6
:1057300000F0AEF80120386000F0AAF8DFF874013C
:105740000068002801D056F001062000441EC0B2B7
:105750000028E8D1012028600020DFF854110860FB
:10576000F6B23000F2BD70B504000D00002629002D
:10577000C9B2200080B200F00BF8002806D1761CD8
:105780003000C0B21428F2D1002000E0012070BD2A
:1057900038B504000D00FFF71BFF002801D10020E1
:1057A00019E04220FFF797FFFFF775FF002803D1AC
:1057B000FFF72BFF00200EE02000C0B2FFF78BFFA9
:1057C000FFF769FF2800C0B2FFF785FFFFF763FF0F
:1057D000FFF71BFF012032BDF8B504000D001600D5
:1057E00000273200D2B2290089B2200000F00BF865
:1057F000002806D17F1C3800C0B21E28F1D100203D
:1058000000E00120F2BD70B504000D001600FFF7A6
:10581000DFFE002801D1002038E04220FFF75BFFC7
:10582000FFF739FF002803D1FFF7EFFE00202DE03E
:105830003000C0B2FFF74FFFFFF72DFFFFF7E5FE87
:10584000FFF7C6FE002801D100201FE04320FFF72C
:1058500042FFFFF720FF002811D1FFF7D6FE0020FE
:1058600014E0FFF7ECFE08E0FFF755FF207028007A
:1058700080B20128F5D1FFF7F8FE641C6D1E2800E8
:1058800080B20028F0D1FFF7C0FE012070BD0000FB
:10589000002001E000BF401C010089B2B1F5FA6FA1
:1058A000F8DB70479422FE439022FE431020FE4313
:1058B0001420FE431022FE4380B5FFF774FBFFF770
:1058C00079FBFCE7704700000000000000000000CA
:1058D000002F000000000700070000147F147F1451
:1058E00000242A7F2A1200626408132300364955D7
:1058F000225000000503000000001C2241000000AF
:1059000041221C000014083E08140008083E080844
:10591000000000A06000000808080808000060609F
:105920000000002010080402003E5149453E0000DE
:10593000427F4000004261514946002141454B31C0
:10594000001814127F10002745454539003C4A498C
:1059500049300001710905030036494949360006FE
:105960004949291E00003636000000005636000066
:1059700000081422410000141414141400004122E1
:10598000140800020151090600324959513E007CB9
:105990001211127C007F49494936003E41414122A3
:1059A000007F4141221C007F49494941007F09098C
:1059B0000901003E4149497A007F0808087F00003C
:1059C000417F4100002040413F01007F08142241F7
:1059D000007F40404040007F020C027F007F0408AF
:1059E000107F003E4141413E007F09090906003E0B
:1059F0004151215E007F0919294600464949493134
:105A00000001017F0101003F4040403F001F204056
:105A1000201F003F4038403F006314081463000714
:105A20000870080700615149454300007F4141006B
:105A300000552A552A55000041417F00000402010B
:105A400002040040404040400000010204000020E9
:105A500054545478007F4844443800384444442027
:105A600000384444487F00385454541800087E09D4
:105A700001020018A4A4A47C007F0804047800009C
:105A8000447D4000004080847D00007F1028440059
:105A90000000417F4000007C04180478007C08046A
:105AA000047800384444443800FC242424180018A6
:105AB000242418FC007C0804040800485454542092
:105AC00000043F444020003C4040207C001C20401B
:105AD000201C003C4030403C004428102844001C5E
:105AE000A0A0A07C004464544C4414141414141456
:105AF000FFFFFFFFFFFF00000D41110009030CD065
:105B00001240173F185019031A783200A00A63E0B8
:105B1000ACFF650C6600670029142C1E2A007E0C61
:105B20007F16802A814E8261836F847B8586868E74
:105B3000879788A489AF8AC58BD78CE88D204A00C7
:105B4000491347084B144C17460522992303A60412
:105B50009B389C50AB069E119F0200000100000084
:105B6000CDCCCC3E6F12833A6F12833A0000A04036
:105B70006F12833B0000803F000000000000000027
:105B80000000803F17B7D1386F12833A0AD7233C01
:105B9000CDCCCC3D0000803F000020415049445F07
:105BA000414E474C452E50005049445F414E474CB2
:105BB000452E49005049445F414E474C452E440014
:105BC0005049445F53504545442E50005049445F6E
:105BD00053504545442E49005049445F444952457D
:105BE000432E50005049445F44495245432E4400DF
:105BF00053657453706565640000000041445F5450
:105C000055524E2E5000000041445F5455524E2EC6
:105C10004400000046757A7A795F6B7000000000DE
:105C200046757A7A795F6B64000000005354757290
:105C30006E53706565640000425475726E416E6704
:105C40006C65000000B0034000B00B4000800340D2
:105C50000090034000800B4000F00F4040F00F40E8
:105C600080F00F40C0F00F4000F10F40E5000B1F27
:105C70003000180032001801600018186400181A6B
:105C80006E00181F780013187D00131A8200131C71
:105C90008C000E1296000E15A0000E18AA000E1B06
:105CA000B4000E1EC8000C1CE1000B1EFA000A1FF7
:105CB000000404090090044000A0044000B0044027
:105CC00000C0044000D0044000A0064000B00640E0
:105CD00000C0064000D0064000A00E4000B00E40BC
:105CE000002000E0F6FF010031010703010200007F
:105CF0005C48F021017001780906FCD5007810F0AD
:105D0000710F01D0002000E0012070475648016863
:105D100051F4002101605548016851F400210160EF
:105D2000504801780906FBD5F021017070471CB579
:105D30000400210089B24FF4006041430091092022
:105D40004B4908709DF802004A4908709DF801000F
:105D5000494908709DF8000048490870FFF7C8FFDE
:105D6000002801D100200DE0200080B2002808D1D9
:105D70007FF0010240F20C41200080B200F003F8F5
:105D800000E0012016BD80B580B24FF4006389B2F7
:105D900003FB001000909DF80200364908709DF842
:105DA0000100354908709DF80000344908700092E0
:105DB0009DF80300324908709DF8020031490870CF
:105DC0009DF80100304908709DF800002F490870C7
:105DD000062027490870FFF78BFF002801D100201B
:105DE00000E0012002BD7CB514001D0080B24FF41C
:105DF000006289B202FB0010009006201C49087066
:105E0000002604E00098001D00902D1D361D200086
:105E100080B2864223D29DF80200164908709DF890
:105E20000100154908709DF80000144908702868A1
:105E300001909DF80700124908709DF8060011496D
:105E400008709DF80500104908709DF804000F497E
:105E50000870FFF74DFF0028D4D1002000E001209A
:105E600076BD00000000024004F0014008F001404F
:105E70000700024006000240050002400400024004
:105E80000B0002400A0002400900024008000240E4
