:10000000F8FF002011040000DD550000DD55000060
:10001000DD550000DD550000DD550000DD55000018
:10002000DD550000DD550000DD550000DD55000008
:10003000DD550000DD550000DD550000DD550000F8
:10004000DD550000DD550000DD550000DD550000E8
:10040000FFFFFFFFFFFFFFFFFFFFFFFFFEFFFFFFFD
:1004100062B605F0C5FCFEE780B501F072F8DFF8C2
:100420006417088001F07BF8DFF85C17088001F0A2
:100430006FF8DFF8601A088001BD2DE9F24F8046A1
:10044000DFF84847DFF84877DFF848570098296811
:1004500001F0CAF8396801F007F9216801F070F974
:100460002060DFF83497DFF83467DFF8340700687E
:10047000716801F0B9F8B16801F0B6F8C9F8000088
:10048000F06890F00040C9F80400F06890F0004077
:10049000C9F80800DFF80C070068C9F80C00D9F8A3
:1004A0000010386801F0E0F8316801F049F9306077
:1004B000D9F80410386801F0D7F8716801F040F9F4
:1004C0007060D9F80810386801F0CEF8B16801F012
:1004D00037F9B060D9F80C10386801F0C5F8F16848
:1004E00001F02EF9F060DFF800784046216801F055
:1004F0007BF83860DFF8F4873068C8F80000B0682F
:10050000DFF8EC170860DFF8ECB7DFF8EC070168FC
:10051000D8F8000001F014F9CBF80000DFF8DC9700
:10052000D8F80000DBF8001001F07CF9C9F80000F1
:10053000DFF8CCA7DFF8B8070068DBF8001001F09F
:1005400071F9CAF80000DFF8BCB7D8F80000CBF8A2
:100550000000DFF8B4877068C8F80000D9F8001010
:10056000DBF8000001F080F80100306801F03CF891
:100570003060D9F80010D8F8000001F075F80100DB
:10058000706801F031F87060DAF80010DBF80000F4
:1005900001F06AF80100B06801F026F8B060DAF8FE
:1005A0000010D8F8000001F05FF80100F06801F0D9
:1005B0001BF8F060D9F80010386801F055F8216890
:1005C00001F0BEF82060DAF80010386801F04CF84D
:1005D000296801F0B5F828600098296801F004F84E
:1005E000DFF8B4180860BDE8F18F70B5DFF81C675C
:1005F000DFF81C170878002833D1DFF88805B0F938
:100600000000DFF81017B1F90010401A01F088F966
:100610000022DFF8043701F095F904000D00DFF83F
:10062000FC06B0F90000DFF8F816B1F90010401A26
:1006300001F076F902000B002000290001F054FAC5
:1006400004000D00DFF8DC06006801F071FB2200F9
:100650002B0001F091FB01F04DFCDFF870180860F1
:100660002FE0087801282CD1DFF81805B0F9000038
:10067000DFF8A016B1F90010401A01F051F900227C
:10068000DFF8943601F05EF904000D00DFF88C0607
:10069000B0F90000DFF88816B1F90010401A01F037
:1006A0003FF902000B002000290001F01DFA002292
:1006B000DFF8E83701F060FB01F01CFCDFF80C18F4
:1006C0000860DFF8D447DFF8CC07B0F90000DFF8A6
:1006D000D017B1F90010401A01F040FC310000F0D1
:1006E000C3FF20602168DFF8E4070068FFF7A5FE7C
:1006F00070BDF8B5DFF8AC673168DFF890040068CA
:1007000000F0B2FF7060DFF890473169206800F0B8
:10071000ABFF70612068002101F032FC01D220683B
:1007200002E0206890F00040DFF87C1701F028FC20
:1007300036D82068002101F023FC01D2206802E0B5
:10074000206890F00040DFF8641701F02BFC27D2FE
:100750002068002101F014FC01D2276802E027681C
:1007600097F00047706901F0E3FA04000D003800CB
:1007700001F0DEFA0022DFF8383701F0FDFA00223E
:10078000DFF8303701F0B0F90022DFF8A43701F0CC
:10079000F3FA22002B0001F0D5F801F0ABFB7061F9
:1007A0007168706900F0CCFFB061F1BD2DE9704354
:1007B000982001F08BFC012802D1DFF8FC060568C7
:1007C000982001F083FC012803D0DFF8EC060568CF
:1007D0006D42992001F07AFC012803D1DFF8DC0694
:1007E00004686442992001F071FC012802D0DFF80E
:1007F000CC0604680020DFF8C41608600020DFF88B
:10080000B8160860DFF8B866306A7062F069306266
:10081000B069F0617069B06130697061F068306131
:10082000B068F0607068B06030687060280001F0F7
:1008300095FB3060DFF88C56286A6862E8692862A8
:10084000A869E8616869A86128696861E868286141
:10085000A868E8606868A86028686860200001F0FF
:100860007DFB28603168706800F06AFFB16800F0B5
:1008700067FFF16800F064FF316900F061FF7169A2
:1008800000F05EFFB16900F05BFFF16900F058FF16
:10089000316A00F055FF716A00F052FFDFF8281648
:1008A00000F0C0FF01F024FC04002968686800F033
:1008B00047FFA96800F044FFE96800F041FF29699B
:1008C00000F03EFF696900F03BFFA96900F038FFC6
:1008D000E96900F035FF296A00F032FF696A00F02B
:1008E0002FFFDFF8E41500F09DFF01F001FC05008B
:1008F000DFF8DC65306801F01BFA8046894628196C
:1009000001F00EF80022DFF8CC3501F0EDF8424698
:100910004B4601F031FA01F0EDFA30602C1920005D
:1009200000F0FEFFDFF8B025DFF8B03501F00AF87F
:1009300001F0E0FADFF8FC150860BDE87083F8B557
:10094000DFF8F4050068DFF8EC15096800F04CFEEC
:100950000400DFF8E85500202860002613E0DFF8E7
:10096000E0153000C0B201EB800040683200D2B226
:1009700041F8220028683200D2B251F8221000F06B
:10098000DFFE2860761C3000C0B21328E7DBDFF8FA
:10099000B005C4642968C06C00F0D2FE2860DFF89E
:1009A000A4653068DFF8A0150860DFF8A075386826
:1009B000210000F059FE0400B968286800F054FED8
:1009C000210000F0BDFE3060F1BD10B5DFF87445C8
:1009D0002068DFF87415096800F006FE2068DFF86B
:1009E0006C158861DFF814080168192902D101210A
:1009F000016005E00168192902DA0168491C0160FB
:100A000010BD2DE9F04188B0DFF8004300200090D0
:100A10006F4600207860002002900020F8605FF0B0
:100A2000000811E07D680121242001F06CFC15FA1A
:100A300080F07860FD680121292001F064FC15FA3E
:100A400080F0F86018F10108B8F10A0FEADBDFF86E
:100A50000055786890FBF8F02860DFF8F864F868D3
:100A600090FBF8F030602868002801D5002000E0F5
:100A7000286841F28931884203DB41F288302860DE
:100A800001E0286828603068002801D5002000E0D7
:100A90003068884203DB41F28830306001E0306822
:100AA0003060DFF8F4252868322190FBF1F0106007
:100AB000DFF8E8353068322190FBF1F018601068FB
:100AC00019680843002804D10120DFF8D415087004
:100AD00009E010680B2802DA18680B2803DB0020F5
:100AE000DFF8BC150870DFF8BC75DFF8BC05B0F99D
:100AF00000002549B1F90010401A01F02FFA010059
:100B0000200000F0B1FD3860306801F027FA0400E1
:100B1000286801F023FA0100200000F065FD0400C0
:100B200030682968081801F019FA0100DFF8E001BF
:100B30000078002802D14FF47A7501E04FF4FA757D
:100B4000DFF86865200000F06DFE0400280001F069
:100B500005FA0100200000F087FD3060DFF8B446A0
:100B60002068316800F080FD60602069396800F01D
:100B70007BFD60616068616900F0E2FDA06108B022
:100B8000BDE8F0811028FF1F1228FF1FCC24FF1F93
:100B90008804FF1FAC25FF1F9C25FF1F8C04FF1F2F
:100BA0007C04FF1F8004FF1F2DE9704F1420584C58
:100BB000207800282FD1DFF86406007801281DD1A5
:100BC000DFF8DC040078002818D1B6488169DFF826
:100BD0007C03806900F0B4FD0500DFF8386628006A
:100BE000B16900F001FDDFF838160860B06929002E
:100BF00000F0A6FDDFF82C1608600CE0DFF8A0047A
:100C00000078012807D10020DFF8141608600020C2
:100C1000DFF8101608602078012862D1DFF8FC05A3
:100C20000078012850D1DFF87804007800284BD1F3
:100C3000DFF8F415DFF81443A06901F0B3F901D22D
:100C4000A16108E0A069DFF8E41501F099F902D884
:100C5000DFF8DC05A061DFF88082DFF8D895DFF8E7
:100C6000B455904EA06990F00040A96900F0BCFC1A
:100C700001F05EF882468B46B06901F059F84246B1
:100C80004B4600F05FFE52465B4601F075F801F0FE
:100C900031F9DFF88C150860A869A16900F0A4FC9F
:100CA00001F046F804000D00B06901F041F8424639
:100CB0004B4600F047FE22002B0001F05DF801F0EA
:100CC00019F9DFF860150860DFF8D403007801280F
:100CD00007D10020DFF8481508600020DFF8441530
:100CE0000860BDE8708F0000B025FF1FB425FF1F0E
:100CF000B825FF1FBC25FF1F8404FF1FC025FF1F51
:100D0000C425FF1FC825FF1FCC25FF1FA69B443D00
:100D10003328FF1F1628FF1F00806640F805FF1FBD
:100D2000FA05FF1FDC24FF1F70B5DFF80C25DFF884
:100D3000F4542868110001F023F900D82A60DFF884
:100D4000FC342868190001F02DF902D2DFF8F00414
:100D50002860DFF8CC442068110001F011F900D8B8
:100D600022602068190001F01DF902D2DFF8D004DA
:100D70002060DFF8D0642068310000F075FC01F0DD
:100D8000B7F904002868310000F06EFC01F0B0F9FA
:100D90000500DFF8B4241068DFF87C1401F002F9D4
:100DA00004D31068404901F0EBF816D8DFF89C2412
:100DB0001078002811D1DFF898040068DFF8941447
:100DC00001F0DEF809D8012010700120DFF8881446
:100DD00008700020DFF8841408603D480068DFF8E0
:100DE000801401F0CDF824D8DFF8602410780028B2
:100DF0001FD1504B18685FF07C5101F0D3F805D338
:100E00001868DFF8601401F0BBF80ED8DFF84C0466
:100E10000168491C01600068FB280ADB0120107092
:100E20000120DFF83414087003E00020DFF82C14F0
:100E30000860002C0AD422000021002001F0BEFB33
:100E400000220121002001F0B9FB0AE0002200216C
:100E5000002001F0B3FB644222000121002001F0D8
:100E6000ADFB002D0AD42A000221002001F0A6FBD0
:100E700000220321002001F0A1FB0AE00022022150
:100E8000002001F09BFB6D422A000321002001F0AD
:100E900095FB70BD1428FF1FC824FF1F00002E40C3
:100EA000FE05FF1F1C25FF1F0100F0410000A042AE
:100EB00000003EC000003E408027FF1F8427FF1F28
:100EC000D025FF1FF825FF1F00002041C424FF1F6D
:100ED000EC24FF1F0088B3409A9999999999A93FEA
:100EE00070B5002540F2A464282000260BE0DFF84E
:100EF00080030078002805D00121252001F003FAA5
:100F000015FA80F5761C0A2EF1DB0A2095FBF0F12C
:100F1000DFF860030160DFF858030078002805D08F
:100F20008C4201DA012001E00020FFE770BD0000E3
:100F30000000F03FE024FF1F7804FF1FD824FF1FAC
:100F40002026FF1FD024FF1FD424FF1F3825FF1F9A
:100F5000FC24FF1F0025FF1F2DE9F84F4FF4E16B24
:100F60000020FFF723FC09E0DFF80C03AC49086020
:100F7000AC490860FFF7D8FEFFF718FCDFF8FCA2C9
:100F8000DAF80000002100F0FBFFEDD300250BE0B4
:100F9000DFF8DC020078002805D00121252001F0CF
:100FA000B2F914FA80F46D1C0A2DF1DB0A2094FBCF
:100FB000F0F60FE0AE480078002805D0012125208A
:100FC00001F0A1F916FA80F6641C0A2CF2DB0A2063
:100FD00096FBF0F6B3454DDAFFF713FDFFF7E6FB9E
:100FE000DAF80000002100F0CBFF05D2A2488D49BD
:100FF00008608B49086027E0DFF88482DFF86C9294
:101000005FF03334984D834FB86900F091FE2200B1
:101010002B0000F097FC42464B4600F0ADFE00F07E
:1010200069FF80490860B86900F082FE22002B0049
:1010300000F088FC02000B004046494601F002FB2C
:1010400000F058FF76490860FFF76EFE0024BCE709
:1010500087480078002805D00121252001F053F9A8
:1010600016FA80F6641C0A2CF2DB0A2096FBF0F6D6
:10107000FFF79CFBB3450CDBDAF80000002100F021
:1010800091FF06D27F4866490860664908600024DF
:10109000E9E70120BDE8F28F0425FF1F0825FF1FA7
:1010A0002728FF1FF024FF1FFC05FF1F0C25FF1F33
:1010B00010B5754C206800280CD0022822D015D31A
:1010C000042838D02AD306284DD040D3082869D028
:1010D00055D375E000F08AF86C480168502903DBAD
:1010E0000121216000210160012069E000F069F820
:1010F00066480168802903DB02212160002101602C
:1011000001205DE000F072F860480168502903DBBF
:101110000321216000210160012051E000F05FF80F
:101120005A480168B1F5707F03DB0421216000217A
:101130000160012044E000F059F85448016850294A
:1011400003DB0521216000210160012038E000F06F
:101150003FF84E480168C82903DB062121600021C1
:10116000016001202CE000F041F848480168502956
:1011700003DB0721216000210160012020E000F055
:101180002EF8FFF73EFC00F03BF8012808D13F485D
:101190000168B1F50C7F03DB0821216000210160AB
:1011A00001200DE000F022F838480168A02905DB95
:1011B0000021216000210160002001E00120FFE703
:1011C00010BD334816490860324816490860704718
:1011D0003048134908602E481249086070472E486D
:1011E0000F4908600F4908607047000000200C4953
:1011F000086000200B490860704700007404FF1F5E
:1012000026480068B0F5FA6F01DB012000E00020FD
:10121000704700007025FF1F000020C10106FF1F5E
:101220008C25FF1F9025FF1F0AD723BE0BD7233E17
:101230000AD7233E9999C93FA4707D3FA3707DBF13
:10124000A4707DBF00401C46CC24FF1F2928FF1F2F
:101250000827FF1F010000402A28FF1F7026FF1FDC
:101260000100803F010040403333D33F9999B93F9B
:101270003328FF1F9825FF1F6666663FE024FF1F87
:101280009A999999CDCCCCBD7426FF1F8827FF1F52
:10129000CDCC4CBECDCC4C3E9A9919BE0025FF1F3B
:1012A00080B501220121222000F08EFE01220121C1
:1012B000232000F089FE00F039F900F05EF901BD4D
:1012C00070B504000D00160000F038F8640020002E
:1012D000C0B200F0AAF82800C0B200F0A6F83000B2
:1012E000C0B200F0A2F800F050F870BD38B50400AC
:1012F0000D0000F023F86000C0B200F096F828005E
:10130000C0B200F092F800F019F8E4B26400641C76
:101310002000C0B200F089F800F0B9F8040000F035
:1013200054F800F0B4F8050000F067F800F02DF86C
:10133000E4B2240254FA85F000B232BD38B501207F
:10134000684908600F2000F0D5F80F2000F0D2F8AF
:10135000654C01202060654D012028600F2000F0C1
:10136000C9F80F2000F0C6F8002020600F2000F020
:10137000C1F80F2000F0BEF8002028600F2000F018
:10138000B9F80F2000F0B6F831BD38B5564C002042
:101390002060564D002028600F2000F0ABF80F2091
:1013A00000F0A8F8012028600F2000F0A3F80F201B
:1013B00000F0A0F8012020600F2000F09BF80F2023
:1013C00000F098F80020286031BD10B5474C00208F
:1013D00020600F2000F08EF80020434908600F20A5
:1013E00000F088F8012020600F2000F083F8002032
:1013F00020600F2000F07EF810BD10B53B4C00209F
:1014000020600F2000F076F80120374908600F2097
:1014100000F070F8012020600F2000F06BF8002031
:1014200020600F2000F066F810BD70B5040008259C
:1014300014E000202C49086007E02C4E00203060AA
:101440002006F6D501202849086064000F2000F02E
:1014500051F8012030600F2000F04CF82800451EA4
:10146000C0B20028E9D1214C002020600F2000F0FC
:1014700041F801201E4908600F2000F03BF80120D0
:1014800020600F2000F036F80020206070BDF8B515
:1014900008240025012014490860124E0020306005
:1014A00011E06D00114F002038600F2000F022F88D
:1014B000012038600F2000F01DF80D48006800285A
:1014C00001D055F001052000441EC0B20028E8D12B
:1014D000012030600020054908602800C0B2F2BD3C
:1014E000000000008C0AFE430C08FE430808FE437F
:1014F0000C0AFE4300E0401E010089B20029FAD127
:10150000704780B505211C20FFF7F0FE00B202BD38
:1015100080B51F216820FFF7E9FE00B202BD80B54B
:101520001D216820FFF7E2FE00B202BD80B58022D7
:101530003E216820FFF7C4FE052001F01DF90022BE
:1015400015216820FFF7BCFE052001F015F91122D6
:1015500016216820FFF7B4FE052001F00DF90022E6
:1015600017216820FFF7ACFE052001F005F90022E5
:101570003E216820FFF7A4FE01BD80B501220E21A7
:101580001C20FFF79DFE052001F0F6F810220F2128
:101590001C20FFF795FE052001F0EEF801222A211C
:1015A0001C20FFF78DFE052001F0E6F801BD30B4E8
:1015B000002513E050F8042BD30744BFA9F1010321
:1015C0009A18091F042942F8045BFAD213468C07C3
:1015D00044BF15809B1CC90748BF1D7050F8041BF1
:1015E0000029E7D130BC704790EA010F40F1AE808E
:1015F00081F00041421A3CBF801A89184FF0004C1C
:10160000C0F3C752FF2A24D0C1F3C75313B3D21A71
:10161000D2F1190327DD4CEA01214CFA03F321EA48
:101620000303D140C20D4CEA0020401834BF20EA29
:101630000C004CEA5000D20553EA006373EB0C0C2B
:1016400052EB1020420012F1807F38BF7047C00D6E
:10165000C0057047490212BF9A4200EB5120F8E7DB
:10166000D2F11703D9D57047FF2212EAD05C1DBF13
:1016700012EAD153944593422BE09C44D30780EA6D
:1016800001021A4043EA002043EA0121A1FB003095
:10169000C04238BF40007CF17F010BDBFE294ADAF3
:1016A0005B0842EAC15153EA006373F1004C51EB0D
:1016B00010207047D1F1080CDCF120012FDB5B0812
:1016C00010FA01F10B4320FA0CF073F10041504184
:1016D000704794451CBF02EAD153934280EA01024D
:1016E00002F000421DD0400019D0490017D05BB96C
:1016F000634514D00902B1FA81F39940BCEB030CA5
:10170000C00140F00040C1E70002B0FA80FC10FACE
:101710000CF0B3EB0C0CC90141F00041B6E710002E
:10172000704740000AD0490008D010F1807F94BF74
:1017300011F1807F02E042F0FF407047D0437047D4
:1017400090EA010F7FF556AF81F00041431A4FF048
:1017500000423EBF5340C01AC91800BFD3095FEA18
:10176000D05C13EB400F34BFB3EB410F40E07CEB98
:10177000D1530CD342EA012122D8D1EB402009D326
:10178000400A28BF5FEA500140EBCC507047401A36
:1017900015D04002B0FA80F2521C9040400A4FEA45
:1017A0003C23B3EB026384BF00EB730007E040F41B
:1017B00000001A16DB07C2F10102D040184370473F
:1017C000182BFCDC31FA03F202FA03F3591A38BF82
:1017D00042F00102D2EB40203CBF4000ACF1010CD2
:1017E0005FEACC5CC20572F100414CEB50207047BF
:1017F00013EB400F0FD2C94209D0ACEBD153022BEF
:1018000003DB4902172BDDDD70479143401AC042CC
:10181000D5D10020704713EB410FD0D36FF00000FB
:101820007047000110B5FF2313EAD0541DBF13EA1F
:10183000D1529C429A4239E0A41ADA0780EA0103A5
:10184000134042EA012142EA0020421A3CBF641ED2
:1018500001EB4202090AB2FBF1FE01FB1E22120259
:10186000B2FBF1F001FB10226EF30F201202B2FB6B
:10187000F1FE4EEA00207F3406DDFE2C24DA53EA26
:10188000500050EBC45010BDD4F1020401FB1E22E5
:1018900040F08071192C1DDC21FA04F0C4F1200401
:1018A000A140114371F10042584110BD9C421ABF42
:1018B00003EAD1529A420FE080EA010E0EF0004393
:1018C000400004D0490016D143F0FF4010BD49004C
:1018D00008BFD343180010BD9C4205D1D21AF7D0DF
:1018E00001F00041484010BD4A0212BF084648407E
:1018F00000F0004010BD4AB90902B1FA81F29140EE
:1019000044B1A418C00140F000409EE7C90141F075
:10191000004152420002B0FA80F4A040141B94E748
:10192000C11768B14840401AB0FA80F29040D21C0A
:10193000C907C2F5846241EA025202EBD021400598
:1019400070470000B0B581EA030C0CF0004C40F287
:10195000FF7515EA11541DBF15EA1357AC42AF428B
:1019600039E0E41923EA455343F48013C90241F0F6
:10197000004141EA505EC7021100A7FB02020028A5
:101980004FF00000EEFB01204FF00001E3FB0721C8
:1019900018BF42F00102401800214941E3FB0E014B
:1019A000A4F580640F0302D252004041494154F132
:1019B00001046CDD470872F1004250F1000051EB68
:1019C0000451A1F580115CBF41EA0C01B0BD4CEAA5
:1019D00005510020B0BD05EA1357AC4214BFAF4219
:1019E00041E050EA410E1CBF52EA430E02E061465C
:1019F0000020B0BD24423C441BD15FEA070EF6D064
:101A0000090302BF01460020AEF1140EB1FA81F7BE
:101A1000AEEB070401FA07FE0C37C7F1200100FA0C
:101A200007F7C8404EEA000E23EA455343F48013FB
:101A3000A2E733F00043B3FA83F704BFB2FA82FEA1
:101A400077440B3FE41BB7F1200E2FBF02FA0EF3D1
:101A5000BB40C7F1200E22FA0EFE38BF43EA0E0348
:101A6000BA40641C82E750EA410E14BF52EA430EAA
:101A70006FF000014FF4001717EB430F8ABF1946B0
:101A800017EB410FB5E74CEA05510020B0BDD4F18A
:101A90000104B4F120070FDAC4F12007520828BF6F
:101AA00042F0010210FA07F501FA07F7E1BF2A43F5
:101AB000E0403843E1400FE0352C98DCC7F12004CA
:101AC00052EA400220FA07F218BF42F0010231FA4E
:101AD00007F0A1400A43002172F1004250F10000DA
:101AE00051EB0C01B0BD0000F0B540F2FF7581EA8A
:101AF000030C0CF0004C15EA11541DBF15EA1357E6
:101B0000AC42AF42E5E0BC41C1F31301C3F31303A0
:101B1000801A994143F4801304D2641E4000494165
:101B200080185941C90241EA5051B1FBF3F603FB59
:101B30001611A2FB0675D7EBC020A94102D2761E72
:101B400080185941C90241EA5051B1FBF3FE03FB31
:101B50001E11A2FB0E75D7EBC020A94103D2AEF136
:101B6000010E80185941890241EA9051760546EAF2
:101B70008E2EB1FBF3F603FB1611A2FB0675D7EB15
:101B80008020A94102D2761E80185941C90241EA3B
:101B900050514EEA060EB1FBF3F603FB1611A2FB01
:101BA0000675D7EBC020A94102D2761E8018594194
:101BB000C90241EA5051B1FBF3F703FB1711A2FB35
:101BC0000735D3EBC020A94167F100070CBF0042E5
:101BD00047F0010766F3D5274FEA1E31B80814F520
:101BE000806412DDBD0775F1004250EB0E5051EBE1
:101BF000045111F5801F5CBF41EA0C01F0BD4CF0AF
:101C00007F6141F0E0410020F0BDBD076D0840EA72
:101C10000E5041F48011D4F10104B4F120060ADA27
:101C2000C4F120060200E04001FA06F3E140184347
:101C3000B24015430EE0342C13DCC6F1200445EA13
:101C400040056D0820FA06F2154321FA06F0A1407E
:101C50000D43002175F1004250F1000051EB0C01E1
:101C6000F0BD00205FEA0C01F0BDCFB992185B41D6
:101C7000B3FA83F704BFB2FA82F6BF190B3FB7F18C
:101C800020062FBF02FA06F3BB40C7F1200622FA56
:101C900006F638BF3343BA401CB1E419641E33E77B
:101CA0007F4231F00041B1FA81F404BFB0FA80F60E
:101CB000A4190B3CB4F120062FBF00FA06F1A14095
:101CC000C4F1200620FA06F638BF3143A0403C1B81
:101CD0001AE7AC421ABF05EA1357AF4212E050EAC6
:101CE00041061CBF52EA4306BFE750EA41073046AF
:101CF00061461CBF41EA0551F0BD52EA430C08BFE2
:101D0000C143F0BD00204FF4001616EB410F98BF01
:101D100016EB430F08BF16EB410F24BFC14305E08C
:101D200016EB430F0CBF61464CEA0551F0BD0000B5
:101D3000C0F3C75181B1FF2906D0C110400721F07F
:101D4000E04101F16051704741020CBF40F4E001F5
:101D50006FF000410020704700F0004100020AD0FF
:101D6000B0FA80FC00FA0CF001F16051A1EB0C51CB
:101D700001EBD0214005704770B44FF0004591EA67
:101D8000030F40F167846B40841A71EB030604D2A1
:101D90006E40001BB141121973414FF4001C1CEB43
:101DA000410F34BF7CEB430683E00C0DA4EB1356CC
:101DB000362E00F37C80012E45EAC32341DC43EA42
:101DC000525312BFD20292025B08240545EAC12198
:101DD00041EA5051D2EBC020994125D407D1B0FA45
:101DE00080F610FA06F162D00020203608E0B1FA41
:101DF00081F6B140C6F1200220FA02F21143B04050
:101E00004FEAF474B4EB465434F001064FEA74041C
:101E10000AD8D6F50016760D04F00044F04061FAB9
:101E200006F25040F1404840C00A40EA415021F0DB
:101E3000004128BF5FEA500550F1000044EBD1217A
:101E400035E0DB0A45EAC121C90AB6F120050EDDFD
:101E500042EA0242120CC5F1200603FA06F6EB40F4
:101E600042EA06056D42984161F100010DE062FA17
:101E700006F5F240554063FA06FC82EA0C02F34094
:101E80005A406D42904161EB030111F4801F05D16E
:101E9000641E620502D06D004041494121F4801169
:101EA000430875F1004350F1000041EB045170BC50
:101EB00070471CEB410F15D223F0004352EA430652
:101EC0000BD04FEA4C0CBCEB410F04D80C0D661E36
:101ED000342EB7DDEBE7801A994150EA410608BF7E
:101EE0000021E4E708BF1CEB430F28BF6FF000019F
:101EF000DDE7000001F000428B1AA3F16051B1F55B
:101F0000801F0ADBB1F17F6F1FD242EAC102C1001C
:101F100071F1004142EB507070470B15C3F109039A
:101F2000212B10D2890241EA9051800201284941B7
:101F300041F0004121FA03F0C3F12003994071F10F
:101F4000004150417047100070476FF0000013EBE4
:101F5000103F5CBF000E42EAC0507047C2175040AD
:101F6000801AB0FA80F10AD08840D1F19D01D207E1
:101F700042EAC151020672F1004241EB1020704763
:101F80004FF0807C1CEB400F94BF1CEB410F05E031
:101F900040EA010C1CEB0C0F01D28142704718BFC4
:101FA000884270474FF0807C1CEB400F94BF1CEBC5
:101FB000410F05E040EA010C1CEB0C0F01D28842F6
:101FC000704718BF8142704770B504000E001500BD
:101FD0004FF480712000C0B200F0DAFBF6B2002EA0
:101FE00014D142482100C9B2491150F821102200F1
:101FF000D2B2521150F822004069012214F01F049D
:1020000012FA04F430EA04044C6135E00121374A45
:102010002000C0B2401152F820002300DBB25B1157
:1020200052F823305B6914F01F0611FA06F63343A9
:102030004361EDB2002D10D12000C0B2401152F822
:102040002000036814F01F00814033EA0101E4B26C
:10205000641152F8240001600EE02000C0B240116B
:1020600052F82000036814F01F0081401943E4B2C5
:10207000641152F82400016070BD10B4C9B2002987
:1020800011D11A4A0100C9B2491152F821100B6846
:10209000012410F01F018C40A343C0B2401152F83C
:1020A0002000036010E0114A0100C9B2491152F842
:1020B00021100B68012410F01F018C402343C0B293
:1020C000401152F82000036010BC7047010007481F
:1020D0000A00D2B2521150F82200006911F01F011B
:1020E000C84010F001007047000000007005FF1F9D
:1020F000C0F3C7517E390EDDC217D1F1200106DDD4
:10210000000240F00040C840104450407047D043A7
:1021100080F00040704700207047000080B501004B
:10212000C9B24909C9B2002902D001290DD018E06D
:1021300098490A6852F000620A6097490A6832F0CA
:1021400090020A600A680A600BE094490A6852F03B
:1021500000620A6090490A6832F410420A600A6814
:102160000A60C0B2002800F08980012800F0868053
:10217000032800F0838008284ED0092851D00A286F
:1021800054D00B2857D00C285AD00D285DD00E28DB
:1021900060D00F2863D0102870D0112864D0122886
:1021A00067D013286AD0142868D01A2866D01D2852
:1021B00064D01E2862D0202861D021285FD0232837
:1021C0005DD024285CD025285FD0262862D027281F
:1021D00065D0282868D029286BD02A286ED02B28D3
:1021E00071D02C2874D02D2877D02E287AD02F2883
:1021F0007DD0302800F0858031287DD0322800F055
:10220000808033287DD034287BD03A2879D03D286F
:1022100077D03E2875D075E00021202000F0B8FA74
:1022200070E00021212000F0B3FA6BE000210720CC
:1022300000F0AEFA66E00021082000F0A9FA61E0A3
:102240000021222000F0A4FA5CE00021232000F00D
:102250009FFA57E00021402000F09AFA52E0002156
:10226000412000F095FA4DE00021982000F090FA0E
:1022700048E00021992000F08BFA43E042E041E081
:102280000021802000F084FA3CE00021812000F051
:102290007FFA37E00021822000F07AFA32E0002154
:1022A000832000F075FA2DE00021202000F070FA64
:1022B00028E00021212000F06BFA23E000212420F7
:1022C00000F066FA1EE00021252000F061FA19E016
:1022D0000021262000F05CFA14E00021272000F005
:1022E00057FA0FE000212A2000F052FA0AE00021FC
:1022F0002B2000F04DFA05E00021112000F048FAF3
:1023000000E0FFE701BD10B50400E4B2640900225B
:10231000C9B2C0B200F01AF821492000C0B251F889
:10232000200000680006F7D52000C0B251F8200058
:1023300000692200D2B251F82220126832F08002E5
:10234000E4B251F824100A6080B210BD10B402004B
:10235000D2B2520910F01F00114BC9B2890011F01E
:102360000C0151F050011400E4B253F82440A16074
:1023700004211400E4B253F82440E160C0B210F02C
:102380001F0050F04000D2B253F82210086010BC79
:10239000704700003C8004401880044030800440B6
:1023A0005C05FF1F80B5C0B2002803D0022860D0B2
:1023B00046D377E0DFF87C02026852F08072026058
:1023C000C9B200290BD0022915D00ED304291ED082
:1023D00017D3062927D020D307292AD02FE04FF47E
:1023E0008061412000F0D4F95CE04FF4806142202C
:1023F00000F0CEF9F8E74FF48061432000F0C8F90F
:10240000F2E74FF48061442000F0C2F9ECE74FF4AA
:102410008061642000F0BCF9E6E74FF4806165203C
:1024200000F0B6F9E0E74FF48061662000F0B0F903
:10243000DAE74FF48061672000F0AAF9D4E731E0D1
:10244000DFF8F001026852F000720260C9B20029A0
:1024500002D0012906D00BE04FF440710C2000F0AF
:1024600097F91FE04FF440710D2000F091F9F8E763
:1024700018E0DFF8C401026852F080720260C9B24D
:10248000002902D0012906D00BE04FF440710A2048
:1024900000F07EF906E04FF440710B2000F078F96F
:1024A000F8E7FFE701BD2DE9F04104000D0090467B
:1024B0001F002900C9B22000C0B2FFF773FFDFF888
:1024C0007C0101684FF47A7041430800000CB0FBB6
:1024D000F8F2002000E0401C13009BB20341012BE6
:1024E000F9DAC140B1FBF8F12200D2B2002A03D0E0
:1024F000022A13D009D31AE00A0092B2521C5743A1
:1025000042F21072B7FBF2F611E00A0092B2521CCE
:1025100057434FF47A72B7FBF2F608E00A0092B222
:10252000521C57434FF47A72B7FBF2F6FFE7DFF81D
:1025300010212300DBB252F823302F00FFB203EB4F
:10254000C7032700FFB252F82770AC465FFA8CFC35
:1025500007EBCC07FF6837F00407DF602300DBB22E
:1025600052F823302F00FFB203EBC7032827DF60A8
:10257000C0B210F0070050F008002300DBB252F8A0
:102580002330186089B22000C0B252F82000816068
:1025900000202100C9B252F82110C8642000C0B246
:1025A00052F82000EDB200EBC500B6B20661002083
:1025B000E4B252F824104860BDE8F08170B4030022
:1025C00000201800C0B2002803D0022803D001D395
:1025D00002E001E000E0FFE7194D1800C0B255F835
:1025E000200080680028F7D01E00F6B2002E03D02D
:1025F000022E0FD007D314E0401C424342F2107069
:10260000B2FBF0F40DE0401C42434FF47A70B2FB91
:10261000F0F406E0401C42434FF47A70B2FBF0F451
:10262000FFE7DBB255F82300C9B200EBC10004613B
:1026300070BC70473C800440308004400C28FF1F71
:102640006405FF1F70B44FF0004591EA030F7FF55A
:102650009BAB6B40841A71EB030603D2001BB141A4
:10266000121973414FF4001C1CEB410F34BF7CEB7B
:10267000430442E00C0DA4EB1356352E4FDC45EA23
:10268000C323DB0A45EAC121C912B6F120050DDDDD
:1026900063FA05F6EB4086EA0305124218BF45F0DF
:1026A0000105C01851F100010CD213E062FA06F5E1
:1026B000F2405540F3415A40B340F3405A4080182D
:1026C000594107D349085FEA30005FEA350528BF62
:1026D00045F0010501F58011420875F1004250F105
:1026E000000041EB04514E0016F5001F70BC38BFCE
:1026F00070470020090D090570471CEB410F10D2EF
:1027000052EA43060BD0BCEB410F05D80C0DAB438E
:10271000661E342EB6DD02E0AB438018594170BC12
:10272000704770BC7047000010B40F490A6852F03F
:1027300080720A600D490A6852F001020A600C4A70
:1027400013680C4909684FF47A7491FBF4F148431B
:10275000C018984202D211688842FCD311688142A5
:10276000FCD310BC70470000FCED00E0001000E05E
:10277000041000E00428FF1F10B5040003E04FF42C
:102780007A70FFF7D1FF2000441E0028F7D110BD5A
:1027900030B42A4B1C684FF400750200D2B25209C3
:1027A00095402C431C60264B0200D2B2521153F8C4
:1027B0002240012510F01F029540C4F8A0500200ED
:1027C000D2B2521153F82220C0B210F01F0042F8CA
:1027D000201030BC704730B4184B1C684FF40075A3
:1027E0000200D2B2520995402C431C60144B0200E7
:1027F000D2B2521153F82240012510F01F02954029
:10280000C4F8A05031F4E0610200D2B2521153F882
:1028100022200400E4B214F01F0452F8242012F421
:10282000E06211430200D2B2521153F82220C0B22A
:1028300010F01F0042F8201030BC70473880044070
:10284000CC05FF1FDFF8C009DFF8C0190968016077
:10285000DFF8BC1909684160DFF8B81909688160C0
:10286000DFF8B4190968C160DFF8B01909680161BF
:10287000DFF8AC190A684261DFF8A82912688261A2
:10288000DFF8A4291268C261DFF8A0299269026208
:10289000DFF89C2992694262DFF898299269826286
:1028A0000968C1637047DFF88419DFF88C09026892
:1028B0000A6042688A6082680A61DFF87419C26837
:1028C0000A6002698A60DFF86C1942690A608269ED
:1028D0000A61C169DFF864291160DFF8481A026AE9
:1028E0000A60406A0861704770B5DFF85449207883
:1028F000022856DADFF84C5901212E20FFF703FD9C
:1029000000F082FD28602868FFF712FA5FF0663257
:10291000DFF83439FFF716F80022DFF83039FFF717
:10292000E3F8DFF82C29DFF82C39FFF70BF8FFF775
:10293000E1FA2860DFF820290021002000F06DFF77
:1029400002232A680021302001F0D1F80523DFF8A6
:102950000C09DFF80C19097850F8212000214820D3
:1029600001F0C5F8DFF8C009007807280BD1DFF8BF
:10297000BC590120287070A20021742000F04DFF86
:102980000020287004E06CA20021742000F045FFB4
:1029900007217A2000F0D4FD20783030C0B200F05A
:1029A00086FF2078002860D100243AE00523DFF874
:1029B00088082100C9B250F82120611CC9B2482002
:1029C00001F095F827E0DFF868192200D2B20C2058
:1029D00042430A44611CC9B2002000F01EFF2000DF
:1029E0002978C0B28842E1D1DFF848090078002890
:1029F000DCD0DFF83859012028700523DFF83808CB
:102A00002100C9B250F82120611CC9B2482001F050
:102A10006EF800202870611CC9B2742000F090FD8F
:102A2000641C2000C0B2072880F2DA81DFF8F85871
:102A300020002978C0B28842C5D1DFF8F8080078B4
:102A40000028C0D1DFF8E46801203070DFF8E0181A
:102A50002200D2B20C2042430A44611CC9B20020B9
:102A600000F0DBFE00203070B9E72078012865D146
:102A700000243CE00523DFF8C0072100C9B200EBC9
:102A80008100C269611CC9B2482001F030F828E019
:102A9000DFF8A4182200D2B20C2042430A44611C81
:102AA000C9B2002000F0B9FE20002978C0B28842E7
:102AB000E0D1DFF8800800780028DBD0DFF86C5820
:102AC000012028700523DFF870072100C9B200EB50
:102AD0008100C269611CC9B2482001F008F80020D9
:102AE0002870611CC9B2742000F02AFD641C20000B
:102AF000C0B2072880F27481DFF82C5820002978B2
:102B0000C0B28842C4D1DFF82C0800780028BFD1B9
:102B1000DFF8186801203070DFF81C182200D2B2EC
:102B20000C2042430A44611CC9B2002000F075FE2B
:102B300000203070B8E700BF45450000207802282B
:102B400079D1DFF8F8270021002000F066FE03238A
:102B5000DFF8BC0602680021482000F0C8FFDFF85B
:102B6000E0270121002000F058FE0323DFF8A4062F
:102B700002680121482000F0BAFFDFF8C8270221CF
:102B8000002000F04AFE0323DFF89C0602680221C1
:102B9000482000F0ACFFDFF8B0270321002000F050
:102BA0003CFE0423DFF8A40702680321482000F05C
:102BB0009EFFDFF89C270421002000F02EFE042356
:102BC000DFF85C0602680421482000F090FFDFF87F
:102BD00084270521002000F020FE0423DFF8780779
:102BE00002680521482000F082FFDFF870270621E7
:102BF000002000F012FE04231C00DFF864070068C8
:102C0000FFF7ACF9020023000621482000F06FFF17
:102C1000DFF850270721002000F0FFFD0323DFF835
:102C2000480702780721482000F0B6FE0020DFF8B0
:102C3000FC160870D4E02078032822D100F095FC1F
:102C40000423DFF8D40502680221542000F04FFF6E
:102C50000423DFF8D00502680421542000F047FF68
:102C60000423DFF8D00582690521542000F03FFFDE
:102C70000423DFF8F80602680621542000F037FF2D
:102C8000AEE02078042840F0A280DFF8E42600219E
:102C9000002000F0C2FDDFF8DC06026800211920E8
:102CA00000F02CFEDFF8D0260021402000F0B5FD1A
:102CB000DFF8C80602680021592000F01FFEDFF887
:102CC000C0260121002000F0A8FD0323DFF8B40690
:102CD00002680121232000F05FFEDFF8AC2601210D
:102CE000402000F09AFD0323DFF8A00602680121CE
:102CF000632000F051FEDFF898260221002000F04A
:102D00008CFD0323DFF88C0602780221402000F0BE
:102D100043FEDFF884260321002000F07EFD05231A
:102D2000DFF80C0582690321402000F0E0FEDFF8A7
:102D30006C260421002000F070FD0523DFF86006FA
:102D400002680421192000F0D2FEDFF85826042181
:102D5000462000F062FD03231C00DFF84C060068EB
:102D6000FFF7C6F9020023000421632000F014FEDF
:102D7000DFF838260521002000F04FFD0523DFF89D
:102D8000A40582690521402000F0B1FEDFF820266D
:102D90000621002000F041FD0523DFF81806026837
:102DA0000621402000F0A3FEDFF80C2607210020BA
:102DB00000F033FD0523DFF80406026807214020F8
:102DC00000F095FE0020DFF86415087008E0207818
:102DD000052805D1DFF8E8250021002000F01DFDC1
:102DE00070BD70B59A20FFF771F9002826D1002137
:102DF0003420FFF742F91E20FFF7BEFC01213420EA
:102E0000FFF73BF99A20FFF761F900280ED1DFF8B0
:102E1000B4452078002804D100F07CFC012020700B
:102E200004E000202070002000F029FC9A20FFF729
:102E30004DF90028FAD01E20FFF79EFC1120FFF765
:102E400045F9002869D100213420FFF716F91E202A
:102E5000FFF792FC01213420FFF70FF91120FFF753
:102E600035F9002821D1DFF85C05007800281CD056
:102E7000DFF8B4442078072804D100F095FF002043
:102E8000207045E0DFF8AC14087800280AD1DFF89C
:102E9000B0030278012A02D00078002802D1012074
:102EA000087035E00020087032E0DFF81C0501787A
:102EB000012927D14FF47A71DFF810251160012123
:102EC000DFF80C251170002101700020DFF80415D7
:102ED00008600020DFF8001508600020DFF8FC140F
:102EE00008600020DFF8481388610020DFF85C14D8
:102EF00008600020DFF8281308600020DFF8E014E5
:102F0000086005E0012101700120DFF8D814087085
:102F10001120FFF7DBF80028FAD03020FFF7D6F8B1
:102F200000283CD1DFF89C040078002837D000212D
:102F30003420FFF7A2F81E20FFF71EFC01213420E9
:102F4000FFF79BF83020FFF7C1F8002822D1DFF807
:102F5000E403007800280BD0DFF80403017805298A
:102F600002D10521017015E00178491C017011E0C2
:102F70000020DFF8B4130870DFF8C41208780028C6
:102F800002D10520087002E00878401E0870002079
:102F900000F075FB3020FFF799F80028FAD02920BF
:102FA000FFF794F800283BD1DFF8180400780028D8
:102FB00036D000213420FFF760F81E20FFF7DCFB3D
:102FC00001213420FFF759F82920FFF77FF8002866
:102FD00021D1DFF86003007800280BD0DFF88012E1
:102FE0000878002802D10020087014E00878401EFC
:102FF000087010E00020DFF8301308709048017866
:10300000052902D10021017002E00178491C0170FC
:10301000002000F034FB2920FFF758F80028FAD0F0
:103020003120FFF753F800285DD1DFF898030078CE
:10303000002858D000213420FFF71FF81E20FFF78A
:103040009BFB01213420FFF718F83120FFF73EF8F1
:10305000002843D1DFF8DC02007800280DD1DFF82A
:10306000C8120878002804D1DFF87C0300780870C3
:1030700034E00878401E087030E0714C2078002859
:1030800012D1DFF8A452287807280DDA6A4E287882
:1030900056F820107148724A127850F82200FEF754
:1030A0004FFB297846F821002078012814D1DFF859
:1030B0007802017807290FDA5F49027801EB820470
:1030C000007801EB8000C1696448654A127850F8C5
:1030D0002200FEF735FBE061FFF7E5FB3120FEF74C
:1030E000F5FF0028FAD01020FEF7F0FF00285AD193
:1030F000DFF8D0020078002855D000213420FEF7F8
:10310000BCFF1E20FFF738FB01213420FEF7B5FF7E
:103110001020FEF7DBFF002840D186480078002809
:103120000DD181480178DFF8C0221278914202D196
:103130000021017032E00178491C01702EE0404C02
:103140002078002811D1784D287807280DDA3A4EDA
:10315000287856F820004149414A127851F8221047
:10316000FEF742FA297846F821002078012813D189
:103170006D48017807290FDA2F49027801EB8204A4
:10318000007801EB8000C0693449354A127851F863
:103190002210FEF729FAE061FFF785FB1020FEF709
:1031A00095FF0028FAD070BD7CB5002100230E21C8
:1031B00000221EE01C00E4B2045D8DF800405B1CA0
:1031C0001C00E4B2045D8DF801405B1C1C00E4B2FD
:1031D000045D8DF802405B1C1C00E4B2045D8DF8B8
:1031E00003405B1C009C144D1600F6B245F82640C7
:1031F000521C14000D00E4B2EDB2AC42DAD3FFF77A
:1032000052FB73BD000000007826FF1FC424FF1F7F
:10321000CC24FF1FC824FF1FF824FF1FF424FF1F26
:103220000827FF1FF024FF1FE024FF1F1C25FF1F9E
:103230003825FF1F5425FF1FC826FF1F7804FF1FD6
:103240000306FF1F0427FF1F66660A400000B04008
:10325000F6285C8FC2F50840C45F00009C04FF1F85
:103260000506FF1F10B5002000F074FF012803D1F0
:103270005E49002000F060FF5D4C207800281DD0E2
:103280005C480178382908DA584909785A4A03789D
:10329000D1540178491C017010E000210170002018
:1032A000207052480078022808D15348FFF77CFF6D
:1032B000012052490870012051490870514948784D
:1032C000552828D10878AA2825D14848007801280F
:1032D0000AD020D3032816D010D3052818D016D32F
:1032E000072817D015D316E0444A1078002801D1DA
:1032F000012010700120424A10700CE000203D4A6D
:1033000010700120207001203D4A107003E002E09F
:1033100001E000E0FFE70878487034480078087062
:1033200010BD00007025FF1F0406FF1F3828FF1F77
:10333000B404FF1F2B28FF1F0805FF1FD05F0000EC
:10334000DC5F0000E85F0000F45F0000EC24FF1F7A
:103350004860000000600000E824FF1F506000008B
:103360009825FF1F0C6000000106FF1F9425FF1F1A
:1033700058600000FC24FF1F606000000025FF1F54
:10338000686000000425FF1F706000000825FF1F13
:10339000186000002728FF1F2460000078600000EC
:1033A0001025FF1F806000000C25FF1F306000000B
:1033B000A45F00008C25FF1FB45F00009025FF1F55
:1033C000886000002C28FF1F2928FF1F0C27FF1FE3
:1033D0002828FF1FD424FF1FD024FF1FD824FF1F3D
:1033E000E424FF1F2A28FF1F0206FF1F2F28FF1FAC
:1033F0003128FF1F3028FF1F1C27FF1F2D28FF1F0C
:103400002E28FF1F1027FF1F00280AD0B0FA80F1D6
:103410008840D1F19D01C905020672F1004241EBDD
:103420001020704738B50400082501214C20FEF714
:1034300024FE00BF00BF00215220FEF71EFE00BF89
:1034400000BF16E000215020FEF717FE05E0E00760
:10345000F8D501215020FEF710FE01215220FEF781
:103460000CFE00BF00BF00215220FEF706FEE4B2B2
:1034700064082800451EC0B20028E8D131BD000014
:1034800070B505000C00082601214C20FEF7F5FD63
:1034900000BF00BF00215220FEF7EFFD00BF00BFBC
:1034A000E4B2002C1AD0EDB2ED4317E00021502019
:1034B000FEF7E3FD05E02806F8D501215020FEF7D0
:1034C000DCFD00BF00BF01215220FEF7D6FD00BF8A
:1034D00000BF00215220FEF7D0FD6D003000461ED7
:1034E000C0B20028E7D170BD38B50400082500211E
:1034F0004C20FEF7C2FD00BF00BF00215220FEF7A6
:10350000BCFD00BF00BF15E000215020FEF7B5FD57
:1035100005E02006F8D501215020FEF7AEFD01217F
:103520005220FEF7AAFD00BF00BF00215220FEF787
:10353000A4FD64002800451EC0B20028E9D131BDB9
:1035400010B50400B1F15000C0B2FFF7CDFF20006C
:10355000C0B2000950F01000C0B2FFF7C5FF14F070
:103560000F042000FFF7C0FF10BDF8B5ADF5965D64
:10357000002005E0DFF88C17095C6A461154401CF6
:10358000B0F5965FF6DB002137E0DFF87C27080016
:10359000C0B2105C00280CD06B460C00E4B2502581
:1035A0000800C0B2105C05FB040403EB0400002318
:1035B000437050236C460D00EDB20800C0B21044B9
:1035C00090F83C0003FB0505002060550800C0B2E0
:1035D000104490F8780050280ED06C460D00EDB2E3
:1035E0000800C0B2104490F8780003FB050304EB18
:1035F0000300002200F8022C491C0800C0B23B283E
:10360000C3DB002400E0641C2000C0B2082832DACA
:10361000B4F15000C0B2FFF767FF0020FFF764FF6E
:103620001020FFF761FF00251EE0521C082A17DA60
:1036300069462300DBB24FF42076502707FB02F7E0
:1036400006FB037353FA85F3CB5CD2F107018B4081
:1036500053FA80F02100C9B20729E6D1032AE4D148
:10366000C0B2FFF7DFFE6D1C2800C0B25028CADAD6
:1036700000200022DAE70DF5905D31B0F0BD70B5A5
:10368000040000250AE000212000C0B2FFF7F8FE88
:10369000761C3000C0B28028F5DB6D1C2800C0B25B
:1036A00008280CDAB5F15000C0B2FFF71DFF00206A
:1036B000FFF71AFF1020FFF717FF0026E9E770BD9C
:1036C00038B5002409E000210020FFF7D9FE6D1C69
:1036D0002800C0B28028F6DB641C2000C0B2082895
:1036E0000CDAB4F15000C0B2FFF7FEFE0120FFF784
:1036F000FBFE1020FFF7F8FE0025E9E731BD06E0EC
:1037000043F2264211004A1E0029FBD1401E002828
:10371000F6D1704780B5002201214E20FEF754FCFF
:10372000002201214C20FEF74FFC002201215220F3
:10373000FEF74AFC002201215020FEF745FC322012
:10374000FFF7DDFF01215220FEF797FC00214E20FC
:10375000FEF793FC3220FFF7D2FF01214E20FEF747
:103760008CFCAE20FFF7C0FE0020FFF7BDFE10204E
:10377000FFF7BAFE4020FFF7B7FE8120FFF7B4FE47
:10378000CF20FFF7B1FEA120FFF7AEFEC820FFF764
:10379000ABFEA620FFF7A8FEA820FFF7A5FE3F205E
:1037A000FFF7A2FED320FFF79FFE0020FFF79CFE4D
:1037B000D520FFF799FE8020FFF796FED920FFF76E
:1037C00093FEF120FFF790FEDA20FFF78DFE122026
:1037D000FFF78AFEDB20FFF787FE4020FFF784FE1D
:1037E0002020FFF781FE0220FFF77EFE8D20FFF7ED
:1037F0007BFE1420FFF778FEA420FFF775FEA620BD
:10380000FFF772FEAF20FFF76FFE0020FFF737FFD4
:1038100000210020FFF794FE01BD2DE9F0470400D0
:103820000D001600002000200027002016E0514661
:10383000C9B2DFF8D8244346DBB20620434302EB8B
:1038400003004A46D2B2805CFFF71AFE19F1010963
:103850004846C0B20628EADBA41D7F1C3800C0B26F
:10386000305C002821D03800C0B2305CB0F12008B4
:10387000DFF89C040078002806D04046C0B200283B
:1038800002D05FF0010A01E05FF0000A2000C0B240
:103890007F2801DB00246D1C2900C9B22000C0B2C2
:1038A000FFF74EFE5FF00009D2E7BDE8F08770B584
:1038B000002100210024B0F12005DFF85404007835
:1038C000002804D02800C0B2002800D0012400261F
:1038D0000FE02100C9B2DFF834242B00DBB2062050
:1038E000434302EB03003200D2B2805CFFF7C8FD15
:1038F000761C3000C0B20628EBDB70BDF8B51400B2
:10390000C9B2C0B2FFF71CFE0020002C04D52D2048
:10391000FFF7CDFF644202E02B20FFF7C8FF42F221
:10392000107094FBF0F042F2107194FBF1F201FB85
:1039300012414FF47A7291FBF2F54FF47A7194FBD5
:10394000F1F201FB1241642291FBF2F6642194FB37
:10395000F1F201FB12410A2291FBF2F70A2194FBDA
:10396000F1F201FB12443030C0B2FFF7A0FF303556
:103970002800C0B2FFF79BFF30363000C0B2FFF71F
:1039800096FF30373800C0B2FFF791FF3034200087
:10399000C0B2FFF78CFFF1BD7FB516001C000125FA
:1039A000C9B2C0B2FFF7CCFD0F2C00DB0F24012100
:1039B00002E00A204543491CA142FADB002E04D54F
:1039C0002D20FFF774FF764202E02B20FFF76FFFF8
:1039D00096FBF5F08DF8000001200EE096FBF5F166
:1039E00005FB11610A2295FBF2F291FBF2F16A46A6
:1039F00011540A2195FBF1F5401C611E8842EDDB54
:103A00000A2096FBF0F100FB11666846204400F89E
:103A1000016C002506E06846405D3030C0B2FFF71B
:103A200046FF6D1CA542F6DB7FBDF8B504000D0016
:103A30002E20FFF73CFF4FF47A70B4FBF0F04FF408
:103A40007A71B4FBF1F201FB12416422B1FBF2F690
:103A50006421B4FBF1F201FB12410A22B1FBF2F73F
:103A60000A21B4FBF1F201FB1244EDB2012D06D0A4
:103A700039D3032D14D008D3042D21D033E03034B2
:103A80002000C0B2FFF713FF2DE030373800C0B27E
:103A9000FFF70DFF30342000C0B2FFF708FF22E02F
:103AA00030363000C0B2FFF702FF30373800C0B206
:103AB000FFF7FDFE30342000C0B2FFF7F8FE12E041
:103AC0003030C0B2FFF7F3FE30363000C0B2FFF73F
:103AD000EEFE30373800C0B2FFF7E9FE3034200088
:103AE000C0B2FFF7E4FE2020FFF7E1FEF1BD2DE9B3
:103AF000F04707000D0091461C00062048460021B3
:103B0000FEF73EFA09D24846FEF712F9814A824B87
:103B1000FEF732F9FEF7EEF981462E00B846484628
:103B2000FEF7E6FA07004846FEF7E2FAFEF716FA55
:103B300001004846FDF758FD7849FDF795FDFEF771
:103B4000D7FA05003100C9B24046C0B2FFF7F8FC11
:103B500048467349FEF726FA02D22D20FFF7A7FE4A
:103B6000002F00D57F4242F2107097FBF0F142F235
:103B7000107097FBF0F200FB12704FF47A7290FB1A
:103B8000F2F94FF47A7097FBF0F200FB12706422A6
:103B900090FBF2F8642097FBF0F200FB12700A220F
:103BA00090FBF2F60A2297FBF2F002FB1077080076
:103BB000C0B200281DD05FF0050A30310800C0B245
:103BC000FFF775FE19F130094846C0B2FFF76FFEE6
:103BD00018F130084046C0B2FFF769FE30363000B9
:103BE000C0B2FFF764FE30373800C0B2FFF75FFEA7
:103BF0004BE04846C0B2002818D05FF0040A19F123
:103C000030094846C0B2FFF752FE18F1300840466E
:103C1000C0B2FFF74CFE30363000C0B2FFF747FEAF
:103C200030373800C0B2FFF742FE2EE04046C0B247
:103C3000002812D05FF0030A18F130084046C0B2E5
:103C4000FFF735FE30363000C0B2FFF730FE3037B8
:103C50003800C0B2FFF72BFE17E03000C0B20028DA
:103C60000CD05FF0020A30363000C0B2FFF71FFE02
:103C700030373800C0B2FFF71AFE06E05FF0010AE5
:103C800030373800C0B2FFF712FE002D00D56D426C
:103C900021000A00D2B25046C0B2121A002A06D041
:103CA000022A12D007D3042A22D018D328E02020D9
:103CB000FFF7FDFD24E0B1EB0A01C9B242F210703A
:103CC00095FBF0F0FFF7B1FE1AE0B1EB0A01C9B2C3
:103CD0004FF47A7095FBF0F0FFF7A7FE10E0B1EB20
:103CE0000A01C9B2642095FBF0F0FFF79EFE07E0E1
:103CF000B1EB0A01C9B20A2095FBF0F0FFF795FE7F
:103D0000BDE8F0875011FF1F1024FF1FE055000091
:103D10003828FF1FF168E388B5F8E43E0050C34738
:103D2000ACC527B7DFF800F02506FF1FDFF800F06D
:103D30004706FF1FDFF800F0FF06FF1FDFF800F067
:103D40009F06FF1F38B50025FFF7ECFF5FF4FF204B
:103D500004786420FEF710FDE4B2AA2C08D0FF20FE
:103D6000FFF7E4FF00207649087000F01DF81AE024
:103D7000734A002010701F2000E0401E00280BD462
:103D8000402101FB00F111F5FF210978C9B2AA29F0
:103D9000F3D1401C10700125EDB2012D03D100F0CC
:103DA0008FF8FEF780FD31BDF0B58FB0002068467A
:103DB0003C2100F0FBF90F20AA218DF80010604C87
:103DC00022781023694692FBF3F503FB1522521C5F
:103DD0004A700225002224E05A4B1600F6B213F86E
:103DE00026602F00FFB2CE556D1C1600F6B203EB15
:103DF000860676782F00FFB2CE556D1C1600F6B2FF
:103E000003EB8606B6782F00FFB2CE556D1C160068
:103E1000F6B203EB8603DB782E00F6B28B556D1CF1
:103E2000521C13000600DBB2F6B2B342D4D32078A2
:103E300020281FDA6B463C222078402110FB01F13C
:103E400089B2FF20FFF776FF21784020414311F52A
:103E5000FF210878C0B2AA2808D0009A2078402113
:103E600010FB01F189B2FF20FFF768FF2078401CAA
:103E7000207023E0FF20FFF759FF002020706B46E1
:103E80003C222078402110FB01F189B2FF20FFF78E
:103E900051FF21784020414311F5FF210878C0B23D
:103EA000AA2808D0009A2078402110FB01F189B29D
:103EB000FF20FFF743FF2078401C20700FB0F0BDBB
:103EC0007CB5002002210F22002330E01E4C1C4D47
:103ED0002E784020464356FA81F0201800788DF85D
:103EE0000000491C2E784020464356FA81F02018E5
:103EF00000788DF80100491C2E784020464356FA80
:103F000081F0201800788DF80200491C2D7840209F
:103F1000454355FA81F0241820788DF80300491C98
:103F20000098084C1D00EDB244F825005B1C1800F9
:103F30001400C0B2E4B2A042C8D3FEF7B4FC73BD13
:103F40003228FF1FC826FF1FC0F70700012210F00C
:103F50001F018A40DFF83C1240B2400941F820209E
:103F6000704738B504000D002000C0B2002808D00A
:103F7000022828D016D3042847D035D3052855D099
:103F800065E0DFF81402016851F4806101604FF4CC
:103F900040710F20FEF7FCFB4FF440710E20FEF73E
:103FA000F7FB54E0DFF8F001016851F400610160B3
:103FB0004FF440714320FEF7EBFB4FF44071442077
:103FC000FEF7E6FB43E0DFF8D001016851F48051D1
:103FD00001604FF440716320FEF7DAFB4FF440714B
:103FE0006220FEF7D5FB32E0DFF8AC01016851F446
:103FF000005101604FF440715020FEF7C9FB4FF4AF
:1040000040715120FEF7C4FB21E0DFF89001016808
:1040100051F4806101604FF440714E20FEF7B8FB0F
:104020004FF440714F20FEF7B3FB10E0DFF86C0156
:10403000016851F4006101604FF440718920FEF77E
:10404000A7FB4FF440718820FEF7A2FBFFE754491D
:104050002000C0B251F82000C07810F0F300220018
:10406000D2B251F82220D0702000C0B251F8200006
:1040700080782200D2B251F8222090702000C0B285
:10408000002803D02000C0B2012805D145480368AC
:104090004FF47A70434304E0434803684FF47A7066
:1040A00043432801B3FBF0F2100080B2B0F5005F8B
:1040B00001DB41F6FF72B3FBF5F3100080B2B3EB06
:1040C00000132000C0B251F82000057815F0E0057B
:1040D000C2F3042005432000C0B251F8200005704F
:1040E0002000C0B251F8200042702000C0B251F848
:1040F0002000807A10F0E00013F01F03034320003B
:10410000C0B251F8200083722000C0B251F82000E4
:10411000007C50F088002200D2B251F822201074A6
:104120002000C0B251F82000C07850F00C00E4B27A
:1041300051F82410C87031BD194A0300DBB252F89F
:1041400023301B799B06F7D5C0B252F82000C07906
:10415000087070471249C0B251F82000807D0028D5
:1041600001D0012000E00020704780B50C4902001A
:10417000D2B251F82220D27852F020020300DBB2F2
:1041800051F82310CA70C0B240002D3040B2FFF782
:10419000DDFE01BD00E100E03480044028800440E1
:1041A000E005FF1F0428FF1F0C28FF1F002200F05E
:1041B00001B8000000B500BF1300964694461039C0
:1041C00028BFA0E80C50FAD85FEA417C28BF0CC099
:1041D00048BF40F8042BC90728BF20F8022B48BF6E
:1041E00000F8012B00BD0000DFF800F0A907FF1F59
:1041F000DFF8A8130200D2B231F822200100C9B2C0
:10420000002900F07E81C0B2112880F27A81DFF8A7
:10421000900300210170110089B2652902DA0021A2
:1042200041707DE0110089B2C92902DA0121417093
:1042300076E0110089B240F22D13994202DA022190
:1042400041706DE0110089B240F29113994202DA97
:104250000321417064E0110089B240F2F5139942E4
:1042600002DA042141705BE0110089B240F2592367
:10427000994202DA0521417052E0110089B240F200
:10428000BD23994202DA0621417049E0110089B24A
:1042900040F22133994202DA0721417040E01100D7
:1042A00089B240F28533994202DA0821417037E041
:1042B000110089B240F2E933994202DA09214170D2
:1042C0002EE0110089B240F24D43994202DA0A21F0
:1042D000417025E0110089B240F2B143994202DAFF
:1042E0000B2141701CE0110089B240F21553994234
:1042F00002DA0C21417013E0110089B240F27953C7
:10430000994202DA0D2141700AE0110089B240F2AF
:10431000DD53994202DA0E21417001E00F21417014
:10432000110089B21F2902DA0021817071E01100A9
:1043300089B23D2902DA012181706AE0110089B257
:104340005B2902DA0221817063E0110089B27929C8
:1043500002DA032181705CE0110089B2972902DA48
:104360000421817055E0110089B2B52902DA0521D6
:1043700081704EE0110089B2D32902DA06218170E2
:1043800047E0110089B2F12902DA0721817040E08B
:10439000110089B240F20F13994202DA08218170AC
:1043A00037E0110089B240F22D13994202DA092157
:1043B00081702EE0110089B240F24B13994202DA6B
:1043C0000A21817025E0110089B240F269139942F7
:1043D00002DA0B2181701CE0110089B240F28713D0
:1043E000994202DA0C21817013E0110089B240F287
:1043F000A513994202DA0D2181700AE0110089B2F9
:1044000040F2C313994202DA0E21817001E00F21BC
:104410008170110089B21F2902DA0021C17070E099
:10442000110089B23D2902DA0121C17069E0110051
:1044300089B25B2902DA0221C17062E0110089B2FF
:10444000792902DA0321C1705BE0110089B2972952
:1044500002DA0421C17054E0110089B2B52902DAF0
:104460000521C1704DE0110089B2D32902DA06217D
:10447000C17046E0110089B2F12902DA0721C1704A
:104480003FE0110089B240F20F13994202DA08218D
:10449000C17036E0110089B240F22D13994202DA60
:1044A0000921C1702DE0110089B240F24B139942ED
:1044B00002DA0A21C17024E0110089B240F26913C6
:1044C000994202DA0B21C1701BE0110089B240F25F
:1044D0008713994202DA0C21C17012E0110089B2EF
:1044E00040F2A513994202DA0D21C17009E092B29F
:1044F00040F2C3118A4202DA0E21C17001E00F219D
:10450000C170704770B504002000C0B2FFF770FEA4
:104510002448017811F0FD010170017851F010017B
:104520000170214DB8202870204E3078C006FBD491
:104530003078C0F381000228FAD11948C378827814
:1045400041780078FFF750FE14482100C9B200EB13
:104550008101897811F01F01154A11702100C9B23B
:1045600000EB8101C97811F01F0151F04001114A9F
:10457000117031788906FCD531784906FCD5297847
:1045800011F03F0129703178C1F381010329FAD17B
:10459000E4B230F82400C0B270BD00008405FF1FF3
:1045A000C805FF1F01400640004006400640064087
:1045B00004400640054006402DE9F043002000205D
:1045C0000020DFF80C1300200880DFF80C23002007
:1045D00010800AE0FF20DFF8FC320C8818550888AC
:1045E000401C08801088401C108010883C2880F2F5
:1045F000B780DFF8E83200201880DFF8E442108846
:104600000A2510FB05F020800025DFF8D862002085
:10461000178826F817000020178826F81700DFF8FB
:10462000C8720020388040E0B4F800E0B7F800809D
:1046300018FA8EFE1CF80EE05EFA00FE1EF0010E67
:10464000F0465FFA88F8B3F800901FFA88F8C8457A
:104650001DD0DFF89882B7F800905FEAC909A8F882
:104660000090EDB2002D04D10D88B2F8009026F82C
:104670001950B8F80050ED1D2D1ADFF85882B1F826
:10468000009008F809500D886D1C0D8001255FFA17
:104690008EFEA3F800E0401E86460FFA8EFEBEF1A5
:1046A000000FC1D53888401C388038880A2891DA34
:1046B000DFF83CC22088B7F800E01EFA80F01CF852
:1046C0000000FF2820D1188800281AD1DFF81C022A
:1046D000B7F800C05FEACC0CA0F800C0EDB2002D26
:1046E00004D10D88B2F800C026F81C500088DFF80D
:1046F000E451B1F800C005F80C000888401C08809F
:10470000012501201880CDE72088B7F800E01EFAC7
:1047100080F01CF80000002820D1188801281AD148
:10472000DFF8C801B7F800C05FEACC0CA0F800C001
:10473000EDB2002D04D10D88B2F800C026F81C504F
:104740000088DFF89051B1F800C005F80C00088827
:10475000401C0880012500201880A3E707209BE764
:10476000BDE8F0833EB4002006E000216A46030065
:104770009BB222F81310401C010089B20529F4DB1A
:104780002D215FE00A235A4C080080B2584310FAEA
:1047900082F0205CC0B2C0090D00ADB25D4315FAD5
:1047A00082F5655DC5F3801555FA80F5080080B285
:1047B000584310FA82F0205CC0F3401045190800FD
:1047C00080B2584310FA82F0205CC0F30010451903
:1047D000080080B2584310FA82F0205CC0F3C00099
:1047E0004519080080B2584310FA82F0205CC0F3EB
:1047F00080004519080080B2584310FA82F0205C0E
:10480000C0F340004519080080B203FB00F313FA1F
:1048100082F0205C10F00100451968460B009BB245
:1048200000EB430030F85A0C2D1868460B009BB281
:1048300000EB430020F85A5C521C100080B2322872
:10484000A0DB491C080080B2322801DA2822F4E7F4
:104850002949088800281FD1BDF800003D280FDB3A
:10486000684642883D2A0BDB82883D2A08DBC288E5
:104870003D2A05DB00893D2802DB0020088024E07A
:10488000012008801B480178012902D10021017014
:104890001BE00121017018E00888012815D1BDF83E
:1048A00000003D280FDB684642883D2A0BDB8288EA
:1048B0003D2A08DBC2883D2A05DB00893D2802DB52
:1048C0000020088001E00120088037BC704700000C
:1048D0001828FF1FA00CFF1F1A28FF1F1E28FF1FEC
:1048E0002028FF1F8C27FF1F1C28FF1F2228FF1FC7
:1048F000480AFF1F3328FF1F2428FF1F012210F042
:104900001F018A40DFF8801240B2400941F82020A0
:104910007047020052B2002A09D50901DFF86C2263
:1049200040B210F00F00104400F8041C04E009012C
:10493000DFF85C2240B21154704710B5FEF7EAFE72
:1049400000F076F900213420FDF797FB4620FDF7B3
:1049500013FF01213420FDF790FBAA20FDF70CFF87
:1049600000213420FDF789FB4620FDF705FF0121DA
:104970003420FDF782FB00F0A2F900F0A7F972B62F
:104980002E20FDF7CBFB2920FDF7C8FB2420FDF7E7
:10499000C5FB2520FDF7C2FB2620FDF7BFFB272026
:1049A000FDF7BCFB2820FDF7B9FB7A480068410001
:1049B000002000F0ADF97849542000F0DEF9FFF74F
:1049C000C1F900F053F8FCF76BFC42F210740023BD
:1049D000220000210020FDF766FD002322000121B6
:1049E0000020FDF760FD0023220002210020FDF7DA
:1049F0005AFD0023220003210020FDF754FD00F0A2
:104A00006FF801213420FDF738FBFEF759FE634AA9
:104A100000210020FEF701FF00F0C2F96049692083
:104A200000F0ABF95F49102000F0A7F95920FFF71B
:104A300065FFFEF745FE5C493D2000F09EF9002031
:104A4000FFF793FB4420FFF759FF02214420FFF7B3
:104A500060FF01211020FFF75CFF00216920FFF7B4
:104A600058FF62B601205149087010BD70B450481B
:104A700050490160002181604F4C04614F49504A08
:104A80000A60504A8A60504A504B1360504B136181
:104A9000504B514D1D601C61504C514D2C60514C80
:104AA000514D2C60514C5FF080452560504D514E6A
:104AB0003560514D06682E6086686E600069A8609A
:104AC0000868E86088682861106868611069A861F2
:104AD0002068E861186828621869686270BC7047CD
:104AE00080B54648016851F0007101604448016892
:104AF00051F4007101604FF450704249086042491E
:104B00000A6852F044020A600A6832F038020A6009
:104B10003E4908603E48016851F044010160016867
:104B200031F03801016008203A4908603A480168CC
:104B300051F0040101600021384A11600168490800
:104B400049000160002036490860002035490860AE
:104B50000FF211014F2000F010F93F20FFF7CEFEB9
:104B600001BD00002F49086800220A60C10703D573
:104B70002D490A68521C0A60800703D52B4801683A
:104B8000491C01607047000000E100E018ED00E002
:104B900000E400E00C28FF1F835C0000905F000031
:104BA000014E00002D4E0000653200002C28FF1F32
:104BB0001C25FF1FEC51B83D27A0093B3825FF1FDE
:104BC0000AD7A33CFAEDEB3A5425FF1F6F12833B43
:104BD0005839343C7025FF1F6F12033B0AD7A33BA3
:104BE0001425FF1F6F12033A1825FF1F7804FF1FBB
:104BF0000000B0C1DC24FF1FC826FF1F3C8004401A
:104C000038800440309004400C90034034900440BD
:104C1000149003400090034054900340649003407C
:104C20004C900340509003408027FF1F8427FF1FB4
:104C300080B5012200219A20FDF7C6F903219A20B0
:104C4000FDF7C9FD012200213020FDF7BDF9032148
:104C50003020FDF7C0FD012200213120FDF7B4F91D
:104C600003213120FDF7B7FD012200211020FDF7BF
:104C7000ABF903211020FDF7AEFD01220021112028
:104C8000FDF7A2F903211120FDF7A5FD0122002166
:104C90002920FDF799F903212920FDF79CFD012228
:104CA00001213420FDF790F9012200219820FDF721
:104CB0008BF9012200219920FDF786F901BD80B50D
:104CC000012201211320FDF77FF901BD80B50021EC
:104CD0001320FDF7D2F94FF49670FDF74DFD012139
:104CE0001320FDF7CAF94FF49670FDF745FD00213A
:104CF0001320FDF7C2F94FF49670FDF73DFD012139
:104D00001320FDF7BAF94FF49670FDF735FD01BD9C
:104D1000154A136853F4000313600022134B1A6002
:104D2000134A491E0300DBB21B01D1500100C9B276
:104D300009011144C96851F001010300DBB21B01F4
:104D40001344D9600100C9B20901114489684908B6
:104D500049000300DBB21B01134499600321C0B278
:104D600000011044816070473C80044000700340A3
:104D700000710340034908607047034AC0B242F81B
:104D80002010704708ED00E00000FF1F012210F026
:104D90001F018A406E4940B2400941F82020704707
:104DA00080B500F054F80028FBD000F002F8002095
:104DB00002BDE0B5012002904FF416700190002072
:104DC00000904D23634A6449002000F0E7F86348EF
:104DD00001684908490001606148016851F001011A
:104DE00001600020FFF7D2FF5E494D20FDF7D0FCA7
:104DF0005D494F20FDF7CCFC5920FFF7C7FF07BDE9
:104E000000205A4802685FF0FF3101600F21CA405C
:104E1000D1070AD54FF4004101604E48544908605B
:104E20004E48016851F001010160704710B54C48CF
:104E3000016851F00101016001204E4908704FF4F2
:104E4000167244494C4C200000F0E6F910BD1CB528
:104E5000002000208DF8000000F032FA802112209E
:104E600000F00DFB002801D100202AE00B220121D7
:104E7000684600F03DFB002801D1002021E09DF8AC
:104E8000000021281CD1002400E0641C20003B49C4
:104E9000097880B289B2884210D23948210089B29B
:104EA00000EB41014978220092B210F8120080B262
:104EB00000F0E5FA0028E8D1002002E0012000E03F
:104EC000002016BD38B403002E480088ADF800005D
:104ED00038E00C78491C68462500EDB2ED11455DBF
:104EE0001D705B1C2500EDB2C5F38015455D1D707E
:104EF0005B1C2500EDB2C5F34015455D1D705B1CC4
:104F00002500EDB2C5F30015455D1D705B1C250045
:104F1000EDB2C5F3C005455D1D705B1C2500EDB20B
:104F2000C5F38005455D1D705B1C2500EDB2C5F322
:104F30004005455D1D705B1CE4B214F00104005D8A
:104F400018705B1C1000421E0028C2D131BC704793
:104F500000E100E0F007FF1FD0F00F400C800040A0
:104F6000248000400201020012010A00A0B00440A7
:104F7000109000402628FF1F480AFF1F0006FF1F51
:104F80001004FF1F22180000012210F01F018A40A8
:104F9000964940B2400941F8202070472DE9F0477A
:104FA000089F3C00E4B2002C01D101240CE03C003D
:104FB000E4B2012C01D1022406E03C00E4B2022C50
:104FC00001D1042400E01024DDF828C0DDF824E03D
:104FD0000D0006008648016851F002010160854815
:104FE000016851F00201016083483100C9B24901F2
:104FF00045503100C9B2490101440A610021320023
:10500000D2B25201024491802100C9B23200D2B220
:105010005201024491823900C9B2090211F4E061DF
:105020003A00D2B212F0070211433200D2B252015A
:105030000244D18071464904490C3200D2B2520177
:105040000244D18271464904490C3200D2B2520165
:105050000244D18369490A6832F080020A60210063
:10506000C9B23200D2B25201024491600021320032
:10507000D2B252010244D1605FEA8C6102D4DEF107
:10508000000E01E05FF0000E3100C9B24901014499
:10509000C1F818E00A213200D2B2520110448183D3
:1050A0001800C0B24009313050F08000544932003D
:1050B000D2B288544FF40071524A10689E465FFA8B
:1050C0008EFE5FEA5E1E11FA0EFE5EEA00001060C0
:1050D0005FF00108DFF830E11800C0B240115EF85F
:1050E000200099465FFA89F95FEA69195EF829900C
:1050F000D9F8149013F01F0A18FA0AFA39EA0A09C3
:10510000C0F81490DFF804911800C0B2401159F8AB
:1051100020009A465FFA8AFA1AF01F0A5FEA0C4CDE
:105120001CF4403C5CF4817C40F82AC01800C0B2FA
:10513000002801D0012000E000209C465FFA8CFC92
:105140005FEA6C1C5EF82CC0DBB25B115EF82330AA
:105150005B6918FA00F033EA0000CCF8140010681C
:105160002B009B0913F00703994001431160FFB224
:10517000002F03D0022F09D004D30BE00020291DFB
:1051800008700BE00020291D088007E00020291D81
:10519000086003E0A8211E4800F01AFA2800103821
:1051A00010F03F00E4B2E40054FA80F10CE02A0071
:1051B000920912F0070259F822200300DBB24FF4E3
:1051C000817442F82340401C02000B00D2B2DBB2D3
:1051D0009A42ECD30020FFF7D7FE0E48016818FA78
:1051E00006F631EA06060660BDE8F08700E100E059
:1051F000408004403C80044000900040008000401B
:1052000000100240388004407005FF1FCC05FF1FCE
:10521000D05E00000C80004062B38B0708D0521EA5
:1052200011F8013B00F8013B00F024808B07F6D118
:10523000830740F0208000BF103A07D330B4B1E8B4
:105240003810103AA0E83810F9D230BC530724BF08
:10525000B1E80810A0E8081044BF51F8043B40F83A
:10526000043BD20724BF31F8022B20F8022B44BFA5
:105270000B7803707047121F17D35B0009D151F8E8
:10528000043B20F8023B1B0C121F20F8023BF6D215
:105290000BE051F8043B00F8013B1B0A20F8023BED
:1052A0001B0C121F00F8013BF3D238BF121D521E17
:1052B00024BF11F8013B00F8013BF8D8704700000B
:1052C00080B5012201218520FCF77EFE012201210B
:1052D0008420FCF779FE23218520FDF77CFA232129
:1052E0008420FDF778FA01BD38B50120DFF8CC1233
:1052F00008600120DFF8C8120860DFF8C84201200A
:10530000206000F051F9DFF8C0520120286000F061
:105310004BF90020206000F047F9002028600120B0
:1053200032BD10B50120DFF8941208600120DFF8CB
:1053300090120860DFF88C420020206000F034F901
:105340000120DFF88412086000F02EF901202060AF
:1053500000F02AF910BD10B5DFF86C420020206083
:1053600000F022F90020DFF85C12086000F01CF960
:105370000120206000F018F90020206000F014F9EE
:1053800010BD10B5DFF840420020206000F00CF99D
:105390000120DFF83012086000F006F901202060DB
:1053A00000F002F90020206000F0FEF810BD38B5D2
:1053B000DFF8144200202060DFF80452002028604B
:1053C00000F0F2F80120206000F0EEF8DFF8FC01B8
:1053D0000068002805D001202860002020600020FF
:1053E00004E00120286000202060012032BD70B55B
:1053F0000400082515E00020DFF8C811086005E06A
:105400002006F8D50120DFF8BC110860640000F028
:10541000CBF8DFF8B4610120306000F0C5F800205F
:1054200030602800451EC0B20028E9D170BDF8B533
:1054300008240026DFF888510020286011E076005B
:10544000DFF884710020386000F0AEF80120386089
:1054500000F0AAF8DFF874010068002801D056F0C7
:1054600001062000441EC0B20028E8D101202860B7
:105470000020DFF854110860F6B23000F2BD70B5BC
:1054800004000D0000262900C9B2200080B200F0FF
:105490000BF8002806D1761C3000C0B21428F2D1D7
:1054A000002000E0012070BD38B504000D00FFF7BA
:1054B0001BFF002801D1002019E04220FFF797FFD1
:1054C000FFF775FF002803D1FFF72BFF00200EE048
:1054D0002000C0B2FFF78BFFFFF769FF2800C0B2C2
:1054E000FFF785FFFFF763FFFFF71BFF012032BDCA
:1054F000F8B504000D00160000273200D2B22900D2
:1055000089B2200000F00BF8002806D17F1C38007B
:10551000C0B21E28F1D1002000E00120F2BD70B51C
:1055200004000D001600FFF7DFFE002801D1002067
:1055300038E04220FFF75BFFFFF739FF002803D177
:10554000FFF7EFFE00202DE03000C0B2FFF74FFF65
:10555000FFF72DFFFFF7E5FEFFF7C6FE002801D19C
:1055600000201FE04320FFF742FFFFF720FF002845
:1055700011D1FFF7D6FE002014E0FFF7ECFE08E0A3
:10558000FFF755FF2070280080B20128F5D1FFF702
:10559000F8FE641C6D1E280080B20028F0D1FFF7D1
:1055A000C0FE012070BD0000002001E000BF401CD3
:1055B000010089B2B1F5FA6FF8DB70479422FE431F
:1055C0009022FE431020FE431420FE431022FE438F
:1055D00080B5FFF774FBFFF779FBFCE7704700002D
:1055E0000000000000000000002F00000000070085
:1055F000070000147F147F1400242A7F2A120062FF
:1056000064081323003649552250000005030000AA
:1056100000001C224100000041221C000014083E32
:1056200008140008083E0808000000A060000008F8
:10563000080808080000606000000020100804024C
:10564000003E5149453E0000427F4000004261510A
:105650004946002141454B31001814127F100027A4
:1056600045454539003C4A49493000017109050367
:1056700000364949493600064949291E0000363698
:1056800000000000563600000008142241000014FB
:1056900014141414000041221408000201510906D8
:1056A00000324959513E007C1211127C007F494959
:1056B0004936003E41414122007F4141221C007F8A
:1056C00049494941007F09090901003E4149497A98
:1056D000007F0808087F0000417F41000020404112
:1056E0003F01007F08142241007F40404040007F7E
:1056F000020C027F007F0408107F003E4141413EC2
:10570000007F09090906003E4151215E007F091909
:1057100029460046494949310001017F0101003F06
:105720004040403F001F2040201F003F4038403F86
:1057300000631408146300070870080700615149EA
:10574000454300007F41410000552A552A5500007D
:1057500041417F00000402010204004040404040FB
:10576000000001020400002054545478007F484493
:10577000443800384444442000384444487F0038CA
:105780005454541800087E0901020018A4A4A47CF3
:10579000007F080404780000447D400000408084BD
:1057A0007D00007F102844000000417F4000007C05
:1057B00004180478007C0804047800384444443811
:1057C00000FC242424180018242418FC007C08045D
:1057D000040800485454542000043F444020003C36
:1057E0004040207C001C2040201C003C4030403CBD
:1057F000004428102844001CA0A0A07C004464544D
:105800004C44141414141414FFFFFFFFFFFF000096
:105810000D41110009030CD01240173F1850190315
:105820001A783200A00A63E0ACFF650C66006700DE
:1058300029142C1E2A007E0C7F16802A814E82613C
:10584000836F847B8586868E879788A489AF8AC577
:105850008BD78CE88D204A00491347084B144C170E
:10586000460522992303A6049B389C50AB069E1143
:105870009F02000001000000CDCCCC3E6F12833AA5
:105880006F12833A0000A0406F12833B0000803FFC
:1058900000000000000000000000803F17B7D13872
:1058A0006F12833A0AD7233CCDCCCC3D0000803F19
:1058B000000020415049445F414E474C452E500066
:1058C0005049445F414E474C452E49005049445F82
:1058D000414E474C452E44005049445F5350454586
:1058E000442E50005049445F53504545442E4900D2
:1058F0005049445F44495245432E50005049445F4B
:1059000044495245432E44005365745370656564A1
:105910000000000041445F5455524E2E50000000DC
:1059200041445F5455524E2E4400000046757A7A29
:10593000795F6B700000000046757A7A795F6B645E
:1059400000000000535475726E537065656400006A
:10595000425475726E416E676C65000000B0034082
:1059600000B00B40008003400090034000800B40DB
:1059700000F00F4040F00F4080F00F40C0F00F40AB
:1059800000F10F40E5000B1F300018003200180135
:10599000600018186400181A6E00181F7800131899
:1059A0007D00131A8200131C8C000E1296000E1537
:1059B000A0000E18AA000E1BB4000E1EC8000C1C7E
:1059C000E1000B1EFA000A1F0004040900900440C5
:1059D00000A0044000B0044000C0044000D00440D7
:1059E00000A0064000B0064000C0064000D00640BF
:1059F00000A00E4000B00E40002000E0F6FF0100C5
:105A000031010703010200005C48F02101700178B8
:105A10000906FCD5007810F0710F01D0002000E0DD
:105A2000012070475648016851F400210160554833
:105A3000016851F400210160504801780906FBD546
:105A4000F021017070471CB50400210089B24FF4A9
:105A500000604143009109204B4908709DF8020005
:105A60004A4908709DF80100494908709DF80000F6
:105A700048490870FFF7C8FF002801D100200DE059
:105A8000200080B2002808D17FF0010240F20C41D2
:105A9000200080B200F003F800E0012016BD80B5C0
:105AA00080B24FF4006389B203FB001000909DF8B0
:105AB0000200364908709DF80100354908709DF8CC
:105AC00000003449087000929DF8030032490870C4
:105AD0009DF80200314908709DF8010030490870B6
:105AE0009DF800002F490870062027490870FFF72D
:105AF0008BFF002801D1002000E0012002BD7CB511
:105B000014001D0080B24FF4006289B202FB001045
:105B1000009006201C490870002604E00098001D33
:105B200000902D1D361D200080B2864223D29DF8A4
:105B30000200164908709DF80100154908709DF88B
:105B4000000014490870286801909DF80700124968
:105B500008709DF80600114908709DF8050010496D
:105B600008709DF804000F490870FFF74DFF0028EA
:105B7000D4D1002000E0012076BD000000000240EA
:105B800004F0014008F00140070002400600024016
:105B900005000240040002400B0002400A000240DF
:105BA000090002400800024070B40F4D2C682E68B6
:105BB00056F47F062E60090611F0706151EA0071FB
:105BC000120512F470021143180410F470200143FE
:105BD00006480160002000E0401C0100C9B2994263
:105BE000FAD32C6070BC704700F001404480044040
:105BF000012210F01F018A40564940B2400941F885
:105C00002020704738B5012053490870534C0120BB
:105C100020706420FCF7B0FDFEF78FFE504D287811
:105C200000280CD000213420FCF727FA3220FCF7A2
:105C3000A3FD01213420FCF720FA00202870FDF795
:105C4000D0F8484D287800280ED0FEF7B5FC207813
:105C5000002801D1FEF786FD00202870FCF7F2FD38
:105C60005920FFF7C5FF62B63F4800780028D5D01D
:105C70004FF416723D493E48FFF724F9FCF734FE15
:105C8000CCE738B53B48016851F0010101603A4C5E
:105C90002068FCF74DF8394A394BFCF76DF8FCF7F2
:105CA00029F92060374D2878002846D1FBF718F9EC
:105CB000002839D120685FF08041FCF773F903D2E6
:105CC00000203149886002E030482F498860304820
:105CD0000178491C01700178332904DB002101702F
:105CE00000202C4908602C4C2078401C2070207823
:105CF000012807D1FAF790FBFAF777FCFAF7F9FCDD
:105D0000FAF77FFE2078022801DB0020207021486E
:105D10000168491C0160FAF749FDFAF710FEFAF72D
:105D200054FEFAF741FF12E0002810D0FBF714F9F7
:105D3000287000201949086009E02878012806D158
:105D400016480168491C0160FBF7B2F92870FAF7A0
:105D5000EBFF31BD00E100E03328FF1F3428FF1FB7
:105D60002E28FF1F2628FF1F2C28FF1F480AFF1F71
:105D70005011FF1F0C7103400827FF1FFCA9F1D22F
:105D80004D62603F3528FF1F3825FF1F0AD7233C8F
:105D90003628FF1F7404FF1F3728FF1F8827FF1FA7
:105DA00080B500F077F800F021F800F003F8FFF775
:105DB00029FFFEE710B5294C0D20FEF7A3FB20605C
:105DC000274922684FF47A7042430A6008682549DF
:105DD0000968C1F30361491CB0FBF1F02249086076
:105DE0005FF4E1310020FEF7BCF810BD80B51F4A1A
:105DF0001F48904209D0002104E052F8213040F8B9
:105E00002130491CB1F5826FF7D3FEF7B3FF194A71
:105E1000194B1A49C91A03E0187810705B1C521C00
:105E20000800411E0028F7D1154A1649891A02E0D8
:105E300000201070521C0800411E0028F8D1124AA0
:105E4000124B1349C91A03E0187810705B1C521CDE
:105E50000800411E0028F7D101BD00000828FF1FDF
:105E60000428FF1F448004400C28FF1F000000008E
:105E70000000FF1F1004FF1F10580000085A000008
:105E8000F007FF1F3C28FF1F0806FF1F085A0000ED
